{
  "_format": "hh-sol-artifact-1",
  "contractName": "MessageProxyForSchain",
  "sourceName": "contracts/schain/MessageProxyForSchain.sol",
  "abi": [
    {
      "anonymous": false,
      "inputs": [
        {
          "indexed": true,
          "internalType": "bytes32",
          "name": "dstChainHash",
          "type": "bytes32"
        },
        {
          "indexed": true,
          "internalType": "uint256",
          "name": "msgCounter",
          "type": "uint256"
        },
        {
          "indexed": true,
          "internalType": "address",
          "name": "srcContract",
          "type": "address"
        },
        {
          "indexed": false,
          "internalType": "address",
          "name": "dstContract",
          "type": "address"
        },
        {
          "indexed": false,
          "internalType": "bytes",
          "name": "data",
          "type": "bytes"
        }
      ],
      "name": "OutgoingMessage",
      "type": "event"
    },
    {
      "anonymous": false,
      "inputs": [
        {
          "indexed": true,
          "internalType": "uint256",
          "name": "msgCounter",
          "type": "uint256"
        },
        {
          "indexed": false,
          "internalType": "bytes",
          "name": "message",
          "type": "bytes"
        }
      ],
      "name": "PostMessageError",
      "type": "event"
    },
    {
      "anonymous": false,
      "inputs": [
        {
          "indexed": true,
          "internalType": "bytes32",
          "name": "role",
          "type": "bytes32"
        },
        {
          "indexed": true,
          "internalType": "bytes32",
          "name": "previousAdminRole",
          "type": "bytes32"
        },
        {
          "indexed": true,
          "internalType": "bytes32",
          "name": "newAdminRole",
          "type": "bytes32"
        }
      ],
      "name": "RoleAdminChanged",
      "type": "event"
    },
    {
      "anonymous": false,
      "inputs": [
        {
          "indexed": true,
          "internalType": "bytes32",
          "name": "role",
          "type": "bytes32"
        },
        {
          "indexed": true,
          "internalType": "address",
          "name": "account",
          "type": "address"
        },
        {
          "indexed": true,
          "internalType": "address",
          "name": "sender",
          "type": "address"
        }
      ],
      "name": "RoleGranted",
      "type": "event"
    },
    {
      "anonymous": false,
      "inputs": [
        {
          "indexed": true,
          "internalType": "bytes32",
          "name": "role",
          "type": "bytes32"
        },
        {
          "indexed": true,
          "internalType": "address",
          "name": "account",
          "type": "address"
        },
        {
          "indexed": true,
          "internalType": "address",
          "name": "sender",
          "type": "address"
        }
      ],
      "name": "RoleRevoked",
      "type": "event"
    },
    {
      "inputs": [],
      "name": "CHAIN_CONNECTOR_ROLE",
      "outputs": [
        {
          "internalType": "bytes32",
          "name": "",
          "type": "bytes32"
        }
      ],
      "stateMutability": "view",
      "type": "function"
    },
    {
      "inputs": [],
      "name": "CONSTANT_SETTER_ROLE",
      "outputs": [
        {
          "internalType": "bytes32",
          "name": "",
          "type": "bytes32"
        }
      ],
      "stateMutability": "view",
      "type": "function"
    },
    {
      "inputs": [],
      "name": "DEBUGGER_ROLE",
      "outputs": [
        {
          "internalType": "bytes32",
          "name": "",
          "type": "bytes32"
        }
      ],
      "stateMutability": "view",
      "type": "function"
    },
    {
      "inputs": [],
      "name": "DEFAULT_ADMIN_ROLE",
      "outputs": [
        {
          "internalType": "bytes32",
          "name": "",
          "type": "bytes32"
        }
      ],
      "stateMutability": "view",
      "type": "function"
    },
    {
      "inputs": [],
      "name": "EXTRA_CONTRACT_REGISTRAR_ROLE",
      "outputs": [
        {
          "internalType": "bytes32",
          "name": "",
          "type": "bytes32"
        }
      ],
      "stateMutability": "view",
      "type": "function"
    },
    {
      "inputs": [
        {
          "internalType": "string",
          "name": "chainName",
          "type": "string"
        }
      ],
      "name": "addConnectedChain",
      "outputs": [],
      "stateMutability": "nonpayable",
      "type": "function"
    },
    {
      "inputs": [
        {
          "internalType": "bytes32",
          "name": "",
          "type": "bytes32"
        }
      ],
      "name": "connectedChains",
      "outputs": [
        {
          "internalType": "uint256",
          "name": "incomingMessageCounter",
          "type": "uint256"
        },
        {
          "internalType": "uint256",
          "name": "outgoingMessageCounter",
          "type": "uint256"
        },
        {
          "internalType": "bool",
          "name": "inited",
          "type": "bool"
        }
      ],
      "stateMutability": "view",
      "type": "function"
    },
    {
      "inputs": [],
      "name": "gasLimit",
      "outputs": [
        {
          "internalType": "uint256",
          "name": "",
          "type": "uint256"
        }
      ],
      "stateMutability": "view",
      "type": "function"
    },
    {
      "inputs": [
        {
          "internalType": "string",
          "name": "fromSchainName",
          "type": "string"
        }
      ],
      "name": "getIncomingMessagesCounter",
      "outputs": [
        {
          "internalType": "uint256",
          "name": "",
          "type": "uint256"
        }
      ],
      "stateMutability": "view",
      "type": "function"
    },
    {
      "inputs": [
        {
          "internalType": "string",
          "name": "targetSchainName",
          "type": "string"
        }
      ],
      "name": "getOutgoingMessagesCounter",
      "outputs": [
        {
          "internalType": "uint256",
          "name": "",
          "type": "uint256"
        }
      ],
      "stateMutability": "view",
      "type": "function"
    },
    {
      "inputs": [
        {
          "internalType": "bytes32",
          "name": "role",
          "type": "bytes32"
        }
      ],
      "name": "getRoleAdmin",
      "outputs": [
        {
          "internalType": "bytes32",
          "name": "",
          "type": "bytes32"
        }
      ],
      "stateMutability": "view",
      "type": "function"
    },
    {
      "inputs": [
        {
          "internalType": "bytes32",
          "name": "role",
          "type": "bytes32"
        },
        {
          "internalType": "uint256",
          "name": "index",
          "type": "uint256"
        }
      ],
      "name": "getRoleMember",
      "outputs": [
        {
          "internalType": "address",
          "name": "",
          "type": "address"
        }
      ],
      "stateMutability": "view",
      "type": "function"
    },
    {
      "inputs": [
        {
          "internalType": "bytes32",
          "name": "role",
          "type": "bytes32"
        }
      ],
      "name": "getRoleMemberCount",
      "outputs": [
        {
          "internalType": "uint256",
          "name": "",
          "type": "uint256"
        }
      ],
      "stateMutability": "view",
      "type": "function"
    },
    {
      "inputs": [
        {
          "internalType": "bytes32",
          "name": "role",
          "type": "bytes32"
        },
        {
          "internalType": "address",
          "name": "account",
          "type": "address"
        }
      ],
      "name": "grantRole",
      "outputs": [],
      "stateMutability": "nonpayable",
      "type": "function"
    },
    {
      "inputs": [
        {
          "internalType": "bytes32",
          "name": "role",
          "type": "bytes32"
        },
        {
          "internalType": "address",
          "name": "account",
          "type": "address"
        }
      ],
      "name": "hasRole",
      "outputs": [
        {
          "internalType": "bool",
          "name": "",
          "type": "bool"
        }
      ],
      "stateMutability": "view",
      "type": "function"
    },
    {
      "inputs": [
        {
          "internalType": "contract KeyStorage",
          "name": "blsKeyStorage",
          "type": "address"
        },
        {
          "internalType": "string",
          "name": "schainName",
          "type": "string"
        }
      ],
      "name": "initialize",
      "outputs": [],
      "stateMutability": "nonpayable",
      "type": "function"
    },
    {
      "inputs": [
        {
          "internalType": "string",
          "name": "schainName",
          "type": "string"
        }
      ],
      "name": "isConnectedChain",
      "outputs": [
        {
          "internalType": "bool",
          "name": "",
          "type": "bool"
        }
      ],
      "stateMutability": "view",
      "type": "function"
    },
    {
      "inputs": [
        {
          "internalType": "string",
          "name": "schainName",
          "type": "string"
        },
        {
          "internalType": "address",
          "name": "contractAddress",
          "type": "address"
        }
      ],
      "name": "isContractRegistered",
      "outputs": [
        {
          "internalType": "bool",
          "name": "",
          "type": "bool"
        }
      ],
      "stateMutability": "view",
      "type": "function"
    },
    {
      "inputs": [],
      "name": "keyStorage",
      "outputs": [
        {
          "internalType": "contract KeyStorage",
          "name": "",
          "type": "address"
        }
      ],
      "stateMutability": "view",
      "type": "function"
    },
    {
      "inputs": [
        {
          "internalType": "string",
          "name": "schainName",
          "type": "string"
        }
      ],
      "name": "moveIncomingCounter",
      "outputs": [],
      "stateMutability": "nonpayable",
      "type": "function"
    },
    {
      "inputs": [
        {
          "internalType": "string",
          "name": "fromChainName",
          "type": "string"
        },
        {
          "internalType": "uint256",
          "name": "startingCounter",
          "type": "uint256"
        },
        {
          "components": [
            {
              "internalType": "address",
              "name": "sender",
              "type": "address"
            },
            {
              "internalType": "address",
              "name": "destinationContract",
              "type": "address"
            },
            {
              "internalType": "bytes",
              "name": "data",
              "type": "bytes"
            }
          ],
          "internalType": "struct MessageProxyForSchain.Message[]",
          "name": "messages",
          "type": "tuple[]"
        },
        {
          "components": [
            {
              "internalType": "uint256[2]",
              "name": "blsSignature",
              "type": "uint256[2]"
            },
            {
              "internalType": "uint256",
              "name": "hashA",
              "type": "uint256"
            },
            {
              "internalType": "uint256",
              "name": "hashB",
              "type": "uint256"
            },
            {
              "internalType": "uint256",
              "name": "counter",
              "type": "uint256"
            }
          ],
          "internalType": "struct MessageProxyForSchain.Signature",
          "name": "signature",
          "type": "tuple"
        },
        {
          "internalType": "uint256",
          "name": "idxLastToPopNotIncluding",
          "type": "uint256"
        }
      ],
      "name": "postIncomingMessages",
      "outputs": [],
      "stateMutability": "nonpayable",
      "type": "function"
    },
    {
      "inputs": [
        {
          "internalType": "string",
          "name": "targetChainName",
          "type": "string"
        },
        {
          "internalType": "address",
          "name": "dstContract",
          "type": "address"
        },
        {
          "internalType": "bytes",
          "name": "data",
          "type": "bytes"
        }
      ],
      "name": "postOutgoingMessage",
      "outputs": [],
      "stateMutability": "nonpayable",
      "type": "function"
    },
    {
      "inputs": [
        {
          "internalType": "string",
          "name": "schainName",
          "type": "string"
        },
        {
          "internalType": "address",
          "name": "contractOnSchain",
          "type": "address"
        }
      ],
      "name": "registerExtraContract",
      "outputs": [],
      "stateMutability": "nonpayable",
      "type": "function"
    },
    {
      "inputs": [
        {
          "internalType": "address",
          "name": "contractOnSchain",
          "type": "address"
        }
      ],
      "name": "registerExtraContractForAll",
      "outputs": [],
      "stateMutability": "nonpayable",
      "type": "function"
    },
    {
      "inputs": [
        {
          "internalType": "bytes32",
          "name": "",
          "type": "bytes32"
        },
        {
          "internalType": "address",
          "name": "",
          "type": "address"
        }
      ],
      "name": "registryContracts",
      "outputs": [
        {
          "internalType": "bool",
          "name": "",
          "type": "bool"
        }
      ],
      "stateMutability": "view",
      "type": "function"
    },
    {
      "inputs": [
        {
          "internalType": "string",
          "name": "schainName",
          "type": "string"
        }
      ],
      "name": "removeConnectedChain",
      "outputs": [],
      "stateMutability": "nonpayable",
      "type": "function"
    },
    {
      "inputs": [
        {
          "internalType": "string",
          "name": "schainName",
          "type": "string"
        },
        {
          "internalType": "address",
          "name": "contractOnSchain",
          "type": "address"
        }
      ],
      "name": "removeExtraContract",
      "outputs": [],
      "stateMutability": "nonpayable",
      "type": "function"
    },
    {
      "inputs": [
        {
          "internalType": "address",
          "name": "contractOnSchain",
          "type": "address"
        }
      ],
      "name": "removeExtraContractForAll",
      "outputs": [],
      "stateMutability": "nonpayable",
      "type": "function"
    },
    {
      "inputs": [
        {
          "internalType": "bytes32",
          "name": "role",
          "type": "bytes32"
        },
        {
          "internalType": "address",
          "name": "account",
          "type": "address"
        }
      ],
      "name": "renounceRole",
      "outputs": [],
      "stateMutability": "nonpayable",
      "type": "function"
    },
    {
      "inputs": [
        {
          "internalType": "bytes32",
          "name": "role",
          "type": "bytes32"
        },
        {
          "internalType": "address",
          "name": "account",
          "type": "address"
        }
      ],
      "name": "revokeRole",
      "outputs": [],
      "stateMutability": "nonpayable",
      "type": "function"
    },
    {
      "inputs": [],
      "name": "schainHash",
      "outputs": [
        {
          "internalType": "bytes32",
          "name": "",
          "type": "bytes32"
        }
      ],
      "stateMutability": "view",
      "type": "function"
    },
    {
      "inputs": [
        {
          "internalType": "string",
          "name": "schainName",
          "type": "string"
        }
      ],
      "name": "setCountersToZero",
      "outputs": [],
      "stateMutability": "nonpayable",
      "type": "function"
    },
    {
      "inputs": [
        {
          "internalType": "uint256",
          "name": "newGasLimit",
          "type": "uint256"
        }
      ],
      "name": "setNewGasLimit",
      "outputs": [],
      "stateMutability": "nonpayable",
      "type": "function"
    },
    {
      "inputs": [
        {
          "components": [
            {
              "internalType": "string",
              "name": "dstChain",
              "type": "string"
            },
            {
              "internalType": "uint256",
              "name": "msgCounter",
              "type": "uint256"
            },
            {
              "internalType": "address",
              "name": "srcContract",
              "type": "address"
            },
            {
              "internalType": "address",
              "name": "dstContract",
              "type": "address"
            },
            {
              "internalType": "bytes",
              "name": "data",
              "type": "bytes"
            }
          ],
          "internalType": "struct MessageProxyForSchain.OutgoingMessageData",
          "name": "message",
          "type": "tuple"
        }
      ],
      "name": "verifyOutgoingMessageData",
      "outputs": [
        {
          "internalType": "bool",
          "name": "isValidMessage",
          "type": "bool"
        }
      ],
      "stateMutability": "view",
      "type": "function"
    }
  ],
  "bytecode": "0x608060405234801561001057600080fd5b506135fa806100206000396000f3fe608060405234801561001057600080fd5b50600436106102065760003560e01c8063a217fddf1161011a578063d547741f116100ad578063f2f636051161007c578063f2f6360514610431578063f399e22e14610444578063f68016b714610457578063f79f79541461045f578063f8c88a161461046757610206565b8063d547741f146103d6578063e356a6f9146103e9578063e45b045f146103fc578063e6ab84031461040f57610206565b8063b51cc14d116100e9578063b51cc14d14610395578063bbc4e8c2146103a8578063ca15c873146103b0578063cab010c9146103c357610206565b8063a217fddf1461035f578063a78868c814610367578063a8bb1b7d1461037a578063ac2f861e1461038d57610206565b80634da84ce51161019d57806377fe0f311161016c57806377fe0f31146102e65780637c5ad80c146102f95780639010d07c1461031957806391d1485414610339578063999ab9aa1461034c57610206565b80634da84ce5146102a5578063523c8ab6146102b857806365e3781f146102c057806367ec6020146102d357610206565b80633b597ffe116101d95780633b597ffe146102645780633b690b6b146102775780633cdd2cc31461027f5780634d2038591461029257610206565b806313c522601461020b578063248a9ca3146102295780632f2ff15d1461023c57806336568abe14610251575b600080fd5b61021361047a565b6040516102209190612b72565b60405180910390f35b6102136102373660046126c9565b61049e565b61024f61024a3660046126e1565b6104b3565b005b61024f61025f3660046126e1565b610504565b61024f6102723660046126c9565b610546565b610213610591565b61024f61028d36600461277f565b610597565b61024f6102a0366004612691565b6106a7565b61024f6102b336600461277f565b610780565b610213610852565b61024f6102ce366004612814565b610864565b6102136102e136600461277f565b610a0c565b6102136102f436600461277f565b610a79565b61030c6103073660046126e1565b610ae1565b6040516102209190612b67565b61032c610327366004612710565b610b01565b6040516102209190612b2f565b61030c6103473660046126e1565b610b20565b61030c61035a36600461277f565b610b38565b610213610b84565b61024f610375366004612896565b610b89565b61024f610388366004612691565b610cc0565b610213610d95565b61030c6103a3366004612996565b610db9565b610213610e20565b6102136103be3660046126c9565b610e44565b61024f6103d13660046127bf565b610e5b565b61024f6103e43660046126e1565b610f5e565b61030c6103f73660046127bf565b610f98565b61024f61040a36600461277f565b610ff7565b61042261041d3660046126c9565b6110c6565b604051610220939291906133db565b61024f61043f36600461277f565b6110ea565b61024f610452366004612731565b611203565b610213611360565b61032c611366565b61024f6104753660046127bf565b611375565b7f2785f35fe7d8743aa971942d8474737bb31895d396eff2cc688a481e0221e19181565b60009081526033602052604090206002015490565b6000828152603360205260409020600201546104d190610347611474565b6104f65760405162461bcd60e51b81526004016104ed90612c9d565b60405180910390fd5b6105008282611479565b5050565b61050c611474565b6001600160a01b0316816001600160a01b03161461053c5760405162461bcd60e51b81526004016104ed9061338c565b61050082826114e2565b6105707f96e3fc3be15159903e053027cff8a23f39a990e0194abcd8ac1cf1b355b8b93c33610b20565b61058c5760405162461bcd60e51b81526004016104ed90612dc2565b606c55565b60665481565b6105c17f2785f35fe7d8743aa971942d8474737bb31895d396eff2cc688a481e0221e19133610b20565b6105dd5760405162461bcd60e51b81526004016104ed90612e08565b600082826040516020016105f2929190612af0565b60405160208183030381529060405280519060200120905060405160200161061990612b1c565b6040516020818303038152906040528051906020012081141561064e5760405162461bcd60e51b81526004016104ed90613343565b60008181526067602052604090206002015460ff1661067f5760405162461bcd60e51b81526004016104ed906131d5565b60009081526067602052604081208181556001810191909155600201805460ff191690555050565b6106bf60008051602061356583398151915233610b20565b6106db5760405162461bcd60e51b81526004016104ed90612cec565b6106ed816001600160a01b031661154b565b6107095760405162461bcd60e51b81526004016104ed9061326b565b6001600160a01b03811660009081526000805160206135a5833981519152602052604090205460ff161561074f5760405162461bcd60e51b81526004016104ed906132ff565b6001600160a01b031660009081526000805160206135a583398151915260205260409020805460ff19166001179055565b6107aa7f621a88c2734d2b469650b9ed1f143b5eea096e7e7bb5c68a326ac7aee5e7f94633610b20565b6107c65760405162461bcd60e51b81526004016104ed90613234565b60006067600084846040516020016107df929190612af0565b604051602081830303815290604052805190602001208152602001908152602001600020600001819055506000606760008484604051602001610823929190612af0565b604051602081830303815290604052805190602001208152602001908152602001600020600101819055505050565b60008051602061356583398151915281565b60008585604051602001610879929190612af0565b60408051601f1981840301815291815281516020928301206000818152606790935291206002015490915060ff166108c35760405162461bcd60e51b81526004016104ed90613135565b3360009081526000805160206135a5833981519152602052604090205460ff168061090757506000818152606b6020908152604080832033845290915290205460ff165b6109235760405162461bcd60e51b81526004016104ed90612d81565b600081815260676020526040902060019081015461094091611551565b60008281526067602090815260409182902060010192909255805160c0601f89018490049093028101830190915260a08101878152610a04928291908a908a908190850183828082843760009201829052509385525050508481526067602090815260409182902060010154600019018184015233828401526001600160a01b03891660608401528151601f880182900482028101820190925286825260809092019187908790819084018382808284376000920191909152505050915250611576565b505050505050565b6000808383604051602001610a22929190612af0565b60408051601f1981840301815291815281516020928301206000818152606790935291206002015490915060ff16610a5e576000915050610a73565b60009081526067602052604090206001015490505b92915050565b6000808383604051602001610a8f929190612af0565b60408051601f1981840301815291815281516020928301206000818152606790935291206002015490915060ff16610acb576000915050610a73565b6000908152606760205260409020549392505050565b606b60209081526000928352604080842090915290825290205460ff1681565b6000828152603360205260408120610b19908361164b565b9392505050565b6000828152603360205260408120610b199083611657565b6000606760008484604051602001610b51929190612af0565b60408051808303601f190181529181528151602092830120835290820192909252016000206002015460ff169392505050565b600081565b60008787604051602001610b9e929190612af0565b604051602081830303815290604052805190602001209050610bc9610bc3868661166c565b8461175b565b610be55760405162461bcd60e51b81526004016104ed90612f53565b60008181526067602052604090206002015460ff16610c165760405162461bcd60e51b81526004016104ed906131d5565b6000818152606760205260409020548614610c435760405162461bcd60e51b81526004016104ed90613039565b60005b84811015610c8257610c7982878784818110610c5e57fe5b9050602002810190610c709190613438565b89600101611808565b50600101610c46565b50600081815260676020526040902054610c9c9085611551565b600082815260676020526040902055610cb58183611976565b505050505050505050565b610cd860008051602061356583398151915233610b20565b610cf45760405162461bcd60e51b81526004016104ed906132a2565b610d06816001600160a01b031661154b565b610d225760405162461bcd60e51b81526004016104ed9061326b565b6001600160a01b03811660009081526000805160206135a5833981519152602052604090205460ff16610d675760405162461bcd60e51b81526004016104ed90612fc1565b6001600160a01b031660009081526000805160206135a583398151915260205260409020805460ff19169055565b7f621a88c2734d2b469650b9ed1f143b5eea096e7e7bb5c68a326ac7aee5e7f94681565b6000808260000151604051602001610dd19190612b00565b60408051601f198184030181529181528151602092830120600081815260688452828120878501518252909352912054909150610e0d84611a02565b811415610e1957600192505b5050919050565b7f96e3fc3be15159903e053027cff8a23f39a990e0194abcd8ac1cf1b355b8b93c81565b6000818152603360205260408120610a7390611a95565b60008383604051602001610e70929190612af0565b604051602081830303815290604052805190602001209050610ea060008051602061356583398151915233610b20565b610ebc5760405162461bcd60e51b81526004016104ed90613096565b610ece826001600160a01b031661154b565b610eea5760405162461bcd60e51b81526004016104ed9061326b565b6000818152606b602090815260408083206001600160a01b038616845290915290205460ff1615610f2d5760405162461bcd60e51b81526004016104ed906132ff565b6000908152606b602090815260408083206001600160a01b03909416835292905220805460ff191660011790555050565b600082815260336020526040902060020154610f7c90610347611474565b61053c5760405162461bcd60e51b81526004016104ed90612f03565b6000606b60008585604051602001610fb1929190612af0565b60408051601f19818403018152918152815160209283012083528282019390935290820160009081206001600160a01b0386168252909152205460ff1690509392505050565b6110217f621a88c2734d2b469650b9ed1f143b5eea096e7e7bb5c68a326ac7aee5e7f94633610b20565b61103d5760405162461bcd60e51b81526004016104ed90613234565b6110856001606760008585604051602001611059929190612af0565b60408051601f198184030181529181528151602092830120835290820192909252016000205490611551565b60676000848460405160200161109c929190612af0565b60408051601f19818403018152918152815160209283012083529082019290925201600020555050565b60676020526000908152604090208054600182015460029092015490919060ff1683565b6111147f2785f35fe7d8743aa971942d8474737bb31895d396eff2cc688a481e0221e19133610b20565b6111305760405162461bcd60e51b81526004016104ed90612e08565b60008282604051602001611145929190612af0565b60405160208183030381529060405280519060200120905060665481141561117f5760405162461bcd60e51b81526004016104ed90612c66565b60008181526067602052604090206002015460ff16156111b15760405162461bcd60e51b81526004016104ed90612f8a565b604080516060810182526000808252602080830182815260018486018181529684526067909252939091209151825591519181019190915590516002909101805460ff19169115159190911790555050565b600054610100900460ff168061121c575061121c611aa0565b8061122a575060005460ff16155b6112465760405162461bcd60e51b81526004016104ed906130e7565b600054610100900460ff16158015611271576000805460ff1961ff0019909116610100171660011790555b611279611ab1565b6112846000336104f6565b606580546001600160a01b0319166001600160a01b0385161790556040805160608101825260008082526020808301829052600183850152925191926067926112cd9101612b1c565b60408051808303601f19018152918152815160209283012083528282019390935290820160002083518155838201516001820155928201516002909301805460ff1916931515939093179092555161132791849101612b00565b60408051601f198184030181529190528051602090910120606655622dc6c0606c55801561135b576000805461ff00191690555b505050565b606c5481565b6065546001600160a01b031681565b6000838360405160200161138a929190612af0565b6040516020818303038152906040528051906020012090506113ba60008051602061356583398151915233610b20565b6113d65760405162461bcd60e51b81526004016104ed90612c17565b6113e8826001600160a01b031661154b565b6114045760405162461bcd60e51b81526004016104ed9061326b565b6000818152606b602090815260408083206001600160a01b038616845290915290205460ff166114465760405162461bcd60e51b81526004016104ed90612fc1565b6000908152606b602090815260408083206001600160a01b03909416835292905220805460ff191690555050565b335b90565b60008281526033602052604090206114919082611b44565b156105005761149e611474565b6001600160a01b0316816001600160a01b0316837f2f8788117e7eff1d82e926ec794901d17c78024a50270940304540a733656f0d60405160405180910390a45050565b60008281526033602052604090206114fa9082611b59565b1561050057611507611474565b6001600160a01b0316816001600160a01b0316837ff6391f5c32d9c69d2a47ea670b442974b53935d1edc7fd64eb21e047a839171b60405160405180910390a45050565b3b151590565b600082820183811015610b195760405162461bcd60e51b81526004016104ed90612d4a565b805160405160009161158a91602001612b00565b60405160208183030381529060405280519060200120905081604001516001600160a01b03168260200151827f803d7f3ca0e5f93fcce39fa29812ed57a95a151594966e17125220132741c6b0856060015186608001516040516115ef929190612b43565b60405180910390a461160082611a02565b6000828152606860209081526040808320606a8084528285208054865291845291842094909455918490525254611638906001611551565b6000918252606a60205260409091205550565b6000610b198383611b6e565b6000610b19836001600160a01b038416611bb3565b6000606060005b8381101561174b578185858381811061168857fe5b905060200281019061169a9190613438565b6116a8906020810190612691565b60601b6001600160601b0319168686848181106116c157fe5b90506020028101906116d39190613438565b6116e4906040810190602001612691565b60601b6001600160601b0319168787858181106116fd57fe5b905060200281019061170f9190613438565b61171d9060408101906133f3565b604051602001611731959493929190612ab9565b60408051601f198184030181529190529150600101611673565b5080516020909101209392505050565b60408051808201825282358152602080840135908201526065548251632aa77bd360e11b81528351600094610b19949388936080808a013594938a01359360608b0135936001600160a01b03169263554ef7a6926004808301939192829003018186803b1580156117cb57600080fd5b505afa1580156117df573d6000803e3d6000fd5b505050506040513d601f19601f820116820180604052508101906118039190612956565b611bcb565b600061181a6040840160208501612691565b6001600160a01b031663884cee5a606c548686600001602081019061183f9190612691565b61184c60408901896133f3565b6040518663ffffffff1660e01b815260040161186b9493929190612b7b565b602060405180830381600088803b15801561188557600080fd5b5087f1935050505080156118b6575060408051601f3d908101601f191682019092526118b3918101906126ad565b60015b61196f576118c26134aa565b806118cd575061190f565b827f4b7d3908626050c0d998d657e4e6f31cb43ed736bf2b9a1a0192494537ca0e59826040516118fd9190612bc2565b60405180910390a26000915050610b19565b3d808015611939576040519150601f19603f3d011682016040523d82523d6000602084013e61193e565b606091505b50827f4b7d3908626050c0d998d657e4e6f31cb43ed736bf2b9a1a0192494537ca0e59826040516118fd9190612bc2565b9050610b19565b6000828152606a602090815260408083205460699092528220545b838110156119cb578181106119a5576119cb565b600085815260686020908152604080832084845290915281205560019283019201611991565b5081156119fb576000848152606960205260409020546119eb9083611551565b6000858152606960205260409020555b5092915050565b600060608260000151604051602001611a1b9190612b00565b60405160208183030381529060405280519060200120836020015160001b846040015160601b6001600160601b031916856060015160601b6001600160601b0319168660800151604051602001611a76959493929190612a7e565b60408051808303601f1901815291905280516020909101209392505050565b6000610a7382611d09565b6000611aab3061154b565b15905090565b600054610100900460ff1680611aca5750611aca611aa0565b80611ad8575060005460ff16155b611af45760405162461bcd60e51b81526004016104ed906130e7565b600054610100900460ff16158015611b1f576000805460ff1961ff0019909116610100171660011790555b611b27611d0d565b611b2f611d0d565b8015611b41576000805461ff00191690555b50565b6000610b19836001600160a01b038416611d8e565b6000610b19836001600160a01b038416611dd8565b81546000908210611b915760405162461bcd60e51b81526004016104ed90612bd5565b826000018281548110611ba057fe5b9060005260206000200154905092915050565b60009081526001919091016020526040902054151590565b6000611bd687611e9e565b611bf25760405162461bcd60e51b81526004016104ed90612e74565b611bfe86868686611ed4565b611c0a57506000611cff565b6000611c198860200151611fa8565b9050611c29886000015182611fcc565b611c455760405162461bcd60e51b81526004016104ed9061320c565b611c4f8585611fcc565b611c6b5760405162461bcd60e51b81526004016104ed90612ea4565b611c73612512565b611c7b611ffc565b9050611c86846120bc565b611ca25760405162461bcd60e51b81526004016104ed906131a7565b611cfa8960000151838360000151602001518460000151600001518560200151602001518660200151600001518c8c8c60000151602001518d60000151600001518e60200151602001518f60200151600001516120d0565b925050505b9695505050505050565b5490565b600054610100900460ff1680611d265750611d26611aa0565b80611d34575060005460ff16155b611d505760405162461bcd60e51b81526004016104ed906130e7565b600054610100900460ff16158015611b2f576000805460ff1961ff0019909116610100171660011790558015611b41576000805461ff001916905550565b6000611d9a8383611bb3565b611dd057508154600181810184556000848152602080822090930184905584548482528286019093526040902091909155610a73565b506000610a73565b60008181526001830160205260408120548015611e945783546000198083019190810190600090879083908110611e0b57fe5b9060005260206000200154905080876000018481548110611e2857fe5b600091825260208083209091019290925582815260018981019092526040902090840190558654879080611e5857fe5b60019003818190600052602060002001600090559055866001016000878152602001908152602001600020600090556001945050505050610a73565b6000915050610a73565b60006000805160206135858339815191528260000151108015610a73575050602001516000805160206135858339815191521190565b60006064841115611ee757506000611fa0565b60008051602061358583398151915280860690611f048287611551565b81611f0b57fe5b069050600060008051602061358583398151915260036000805160206135858339815191528460008051602061358583398151915286870909089050611f606000805160206135858339815191526002612179565b841080611f7e57508060008051602061358583398151915285860914155b80611f895750848214155b15611f9957600092505050611fa0565b6001925050505b949350505050565b6000610a73600080516020613585833981519152611fc681856121ab565b906121d3565b600060008051602061358583398151915280600381868188890909088180611ff057fe5b84850914949350505050565b612004612512565b50604080516080810182527f1800deef121f1e76426a00665e5c4479674322d4f75edadd46debd5cd992f6ed8183019081527f198e9393920d483a7260bfb731fb5d25f1aa493335a9e71297e485b7aef312c26060830152815281518083019092527f12c85ea5db8c6deb4aab71808dcb408fe3d1e7690c43d37b4ce6cc0166fa7daa82527f090689d0585ff075ec9e99ad690c3395bc4b313370b38ef355acdadcd122975b60208381019190915281019190915290565b6000610a7382600001518360200151612205565b6000806120db612537565b8e8152602081018e9052604081018d9052606081018c9052608081018b905260a081018a905260c0810189905260e081018890526101008101879052610120810186905261014081018590526101608101849052612137612556565b602081610180846008600019fa9250826121635760405162461bcd60e51b81526004016104ed90613179565b5115159f9e505050505050505050505050505050565b600080821161219a5760405162461bcd60e51b81526004016104ed90612ecc565b8183816121a357fe5b049392505050565b6000828211156121cd5760405162461bcd60e51b81526004016104ed90612e3d565b50900390565b60008082116121f45760405162461bcd60e51b81526004016104ed90613002565b8183816121fd57fe5b069392505050565b60006122118383612284565b1561221e57506001610a73565b612226612574565b61222f836122b7565b9050612239612574565b61226761224461233c565b61226161225a886122548a6122b7565b9061239a565b859061245e565b9061245e565b805190915015801561227b57506020810151155b95945050505050565b815160009015801561229857506020830151155b80156122a5575081516001145b8015610b195750506020015115919050565b6122bf612574565b60008051602061358583398151915260008160208501518551099050600082806122e557fe5b83806122ed57fe5b84806122f557fe5b87602001516001870309875108848061230a57fe5b60208801518851080990506040518060400160405280828152602001848061232e57fe5b848508905295945050505050565b612344612574565b50604080518082019091527f2b149d40ceb8aaae81be18991be06ac3b5b4c5e559dbefa33267e6dc24a138e581527e9713b03af0fed4cd2cafadeed8fdf4a74fa084e52d1852e4a2bd0685c315d2602082015290565b6123a2612574565b6000805160206135858339815191526123b9612574565b604051806040016040528083806123cc57fe5b8651885109815260200183806123de57fe5b86602001518860200151099052905081806123f557fe5b82806123fd57fe5b826020015160018503098251088352818061241457fe5b828061241c57fe5b60208301518351088303838061242e57fe5b848061243657fe5b6020880151885108858061244657fe5b60208a01518a51080908602084015250909392505050565b612466612574565b81518351600080516020613585833981519152911161249757808061248757fe5b83518551908303900882526124b7565b6124b48182806124a357fe5b8651865190850390088303906121d3565b82525b82602001518460200151106124e55780806124ce57fe5b8360200151820385602001510860208301526119fb565b6125068182806124f157fe5b866020015184038660200151088303906121d3565b60208301525092915050565b6040518060400160405280612525612574565b8152602001612532612574565b905290565b604051806101800160405280600c906020820280368337509192915050565b60405180602001604052806001906020820280368337509192915050565b604051806040016040528060008152602001600081525090565b8035610a738161354f565b60008083601f8401126125aa578182fd5b50813567ffffffffffffffff8111156125c1578182fd5b6020830191508360208285010111156125d957600080fd5b9250929050565b600082601f8301126125f0578081fd5b813567ffffffffffffffff811115612606578182fd5b612619601f8201601f191660200161344d565b915080825283602082850101111561263057600080fd5b8060208401602084013760009082016020015292915050565b60006040828403121561265a578081fd5b612664604061344d565b9050815181526020820151602082015292915050565b600060a0828403121561268b578081fd5b50919050565b6000602082840312156126a2578081fd5b8135610b198161354f565b6000602082840312156126be578081fd5b8151610b198161354f565b6000602082840312156126da578081fd5b5035919050565b600080604083850312156126f3578081fd5b8235915060208301356127058161354f565b809150509250929050565b60008060408385031215612722578182fd5b50508035926020909101359150565b60008060408385031215612743578182fd5b823561274e8161354f565b9150602083013567ffffffffffffffff811115612769578182fd5b612775858286016125e0565b9150509250929050565b60008060208385031215612791578182fd5b823567ffffffffffffffff8111156127a7578283fd5b6127b385828601612599565b90969095509350505050565b6000806000604084860312156127d3578081fd5b833567ffffffffffffffff8111156127e9578182fd5b6127f586828701612599565b90945092505060208401356128098161354f565b809150509250925092565b60008060008060006060868803121561282b578081fd5b853567ffffffffffffffff80821115612842578283fd5b61284e89838a01612599565b9097509550602088013591506128638261354f565b90935060408701359080821115612878578283fd5b5061288588828901612599565b969995985093965092949392505050565b6000806000806000806000610120888a0312156128b1578485fd5b873567ffffffffffffffff808211156128c8578687fd5b6128d48b838c01612599565b909950975060208a0135965060408a01359150808211156128f3578384fd5b818a0191508a601f830112612906578384fd5b813581811115612914578485fd5b8b60208083028501011115612927578485fd5b6020830196508095505050506129408960608a0161267a565b9150610100880135905092959891949750929550565b600060808284031215612967578081fd5b612971604061344d565b61297b8484612649565b815261298a8460408501612649565b60208201529392505050565b6000602082840312156129a7578081fd5b813567ffffffffffffffff808211156129be578283fd5b9083019060a082860312156129d1578283fd5b6129db60a061344d565b8235828111156129e9578485fd5b6129f5878286016125e0565b82525060208301356020820152612a0f866040850161258e565b6040820152612a21866060850161258e565b6060820152608083013582811115612a37578485fd5b612a43878286016125e0565b60808301525095945050505050565b60008151808452612a6a816020860160208601613474565b601f01601f19169290920160200192915050565b60008682528560208301528460408301528360608301528251612aa8816080850160208701613474565b919091016080019695505050505050565b60008651612acb818460208b01613474565b8201868152602081018690528385604083013790920160400191825250949350505050565b6000828483379101908152919050565b60008251612b12818460208701613474565b9190910192915050565b6613585a5b9b995d60ca1b815260070190565b6001600160a01b0391909116815260200190565b6001600160a01b0383168152604060208201819052600090611fa090830184612a52565b901515815260200190565b90815260200190565b8481526001600160a01b03841660208201526060604082018190528101829052600082846080840137818301608090810191909152601f909201601f191601019392505050565b600060208252610b196020830184612a52565b60208082526022908201527f456e756d657261626c655365743a20696e646578206f7574206f6620626f756e604082015261647360f01b606082015260800190565b6020808252602f908201527f4e6f7420656e6f756768207065726d697373696f6e7320746f2072656d6f766560408201526e08195e1d1c984818dbdb9d1c9858dd608a1b606082015260800190565b6020808252601c908201527f53636861696e2063616e6e6f7420636f6e6e65637420697473656c6600000000604082015260600190565b6020808252602f908201527f416363657373436f6e74726f6c3a2073656e646572206d75737420626520616e60408201526e0818591b5a5b881d1bc819dc985b9d608a1b606082015260800190565b602080825260409082018190527f4e6f7420656e6f756768207065726d697373696f6e7320746f20726567697374908201527f657220657874726120636f6e747261637420666f7220616c6c20636861696e73606082015260800190565b6020808252601b908201527f536166654d6174683a206164646974696f6e206f766572666c6f770000000000604082015260600190565b60208082526021908201527f53656e64657220636f6e7472616374206973206e6f74207265676973746572656040820152601960fa1b606082015260800190565b60208082526026908201527f4e6f7420656e6f756768207065726d697373696f6e7320746f2073657420636f6040820152651b9cdd185b9d60d21b606082015260800190565b6020808252818101527f434841494e5f434f4e4e4543544f525f524f4c45206973207265717569726564604082015260600190565b6020808252601e908201527f536166654d6174683a207375627472616374696f6e206f766572666c6f770000604082015260600190565b60208082526016908201527514da59db985d1d5c99481a5cc81b9bdd081d985b1a5960521b604082015260600190565b6020808252600e908201526d48617368206e6f7420696e20473160901b604082015260600190565b6020808252601a908201527f536166654d6174683a206469766973696f6e206279207a65726f000000000000604082015260600190565b60208082526030908201527f416363657373436f6e74726f6c3a2073656e646572206d75737420626520616e60408201526f2061646d696e20746f207265766f6b6560801b606082015260800190565b60208082526019908201527f5369676e6174757265206973206e6f7420766572696669656400000000000000604082015260600190565b6020808252601a908201527f436861696e20697320616c726561647920636f6e6e6563746564000000000000604082015260600190565b60208082526021908201527f457874726120636f6e747261637420697320616c72656164792072656d6f76656040820152601960fa1b606082015260800190565b60208082526018908201527f536166654d6174683a206d6f64756c6f206279207a65726f0000000000000000604082015260600190565b60208082526038908201527f5374617274696e6720636f756e746572206973206e6f74207175616c20746f2060408201527f696e636f6d696e67206d65737361676520636f756e7465720000000000000000606082015260800190565b60208082526031908201527f4e6f7420656e6f756768207065726d697373696f6e7320746f20726567697374604082015270195c88195e1d1c984818dbdb9d1c9858dd607a1b606082015260800190565b6020808252602e908201527f496e697469616c697a61626c653a20636f6e747261637420697320616c72656160408201526d191e481a5b9a5d1a585b1a5e995960921b606082015260800190565b60208082526024908201527f44657374696e6174696f6e20636861696e206973206e6f7420696e697469616c6040820152631a5e995960e21b606082015260800190565b60208082526014908201527314185a5c9a5b99c818da1958dac819985a5b195960621b604082015260600190565b602080825260149082015273283ab13634b19025b2bc903737ba1034b710239960611b604082015260600190565b60208082526018908201527f436861696e206973206e6f7420696e697469616c697a65640000000000000000604082015260600190565b6020808252600e908201526d5369676e206e6f7420696e20473160901b604082015260600190565b60208082526019908201527f44454255474745525f524f4c4520697320726571756972656400000000000000604082015260600190565b6020808252601f908201527f476976656e2061646472657373206973206e6f74206120636f6e747261637400604082015260600190565b6020808252603e908201527f4e6f7420656e6f756768207065726d697373696f6e7320746f2072656d6f766560408201527f20657874726120636f6e747261637420666f7220616c6c20636861696e730000606082015260800190565b60208082526024908201527f457874726120636f6e747261637420697320616c726561647920726567697374604082015263195c995960e21b606082015260800190565b60208082526029908201527f4e657720636861696e20686173682063616e6e6f7420626520657175616c20746040820152681bc813585a5b9b995d60ba1b606082015260800190565b6020808252602f908201527f416363657373436f6e74726f6c3a2063616e206f6e6c792072656e6f756e636560408201526e103937b632b9903337b91039b2b63360891b606082015260800190565b92835260208301919091521515604082015260600190565b6000808335601e19843603018112613409578283fd5b83018035915067ffffffffffffffff821115613423578283fd5b6020019150368190038213156125d957600080fd5b60008235605e19833603018112612b12578182fd5b60405181810167ffffffffffffffff8111828210171561346c57600080fd5b604052919050565b60005b8381101561348f578181015183820152602001613477565b8381111561349e576000848401525b50505050565b60e01c90565b600060443d10156134ba57611476565b600481823e6308c379a06134ce82516134a4565b146134d857611476565b6040513d600319016004823e80513d67ffffffffffffffff81602484011181841117156135085750505050611476565b828401925082519150808211156135225750505050611476565b503d8301602082840101111561353a57505050611476565b601f01601f1916810160200160405291505090565b6001600160a01b0381168114611b4157600080fdfe6155b5aac15ce9aa193c0527a6f43be0a36a7e2e7496c2b615c0e5f92284277330644e72e131a029b85045b68181585d97816a916871ca8d3c208c16d87cfd47c8cc8bda7ad4886bea3ebbdafa02e79d37c39bf4011696b26a31a0802fd9458ba26469706673582212200f7ce670749a86338500fd2ffd29fccf07bb2488ef555f3df5a2ad3e10ce8c8164736f6c634300060c0033",
  "linkReferences": {},
  "deployedLinkReferences": {}
}