{
  "_format": "hh-sol-artifact-1",
  "contractName": "MessageProxyForSchain",
  "sourceName": "contracts/schain/MessageProxyForSchain.sol",
  "abi": [
    {
      "anonymous": false,
      "inputs": [
        {
          "indexed": true,
          "internalType": "bytes32",
          "name": "dstChainHash",
          "type": "bytes32"
        },
        {
          "indexed": true,
          "internalType": "uint256",
          "name": "msgCounter",
          "type": "uint256"
        },
        {
          "indexed": true,
          "internalType": "address",
          "name": "srcContract",
          "type": "address"
        },
        {
          "indexed": false,
          "internalType": "address",
          "name": "dstContract",
          "type": "address"
        },
        {
          "indexed": false,
          "internalType": "bytes",
          "name": "data",
          "type": "bytes"
        }
      ],
      "name": "OutgoingMessage",
      "type": "event"
    },
    {
      "anonymous": false,
      "inputs": [
        {
          "indexed": true,
          "internalType": "uint256",
          "name": "msgCounter",
          "type": "uint256"
        },
        {
          "indexed": false,
          "internalType": "bytes",
          "name": "message",
          "type": "bytes"
        }
      ],
      "name": "PostMessageError",
      "type": "event"
    },
    {
      "anonymous": false,
      "inputs": [
        {
          "indexed": true,
          "internalType": "bytes32",
          "name": "role",
          "type": "bytes32"
        },
        {
          "indexed": true,
          "internalType": "bytes32",
          "name": "previousAdminRole",
          "type": "bytes32"
        },
        {
          "indexed": true,
          "internalType": "bytes32",
          "name": "newAdminRole",
          "type": "bytes32"
        }
      ],
      "name": "RoleAdminChanged",
      "type": "event"
    },
    {
      "anonymous": false,
      "inputs": [
        {
          "indexed": true,
          "internalType": "bytes32",
          "name": "role",
          "type": "bytes32"
        },
        {
          "indexed": true,
          "internalType": "address",
          "name": "account",
          "type": "address"
        },
        {
          "indexed": true,
          "internalType": "address",
          "name": "sender",
          "type": "address"
        }
      ],
      "name": "RoleGranted",
      "type": "event"
    },
    {
      "anonymous": false,
      "inputs": [
        {
          "indexed": true,
          "internalType": "bytes32",
          "name": "role",
          "type": "bytes32"
        },
        {
          "indexed": true,
          "internalType": "address",
          "name": "account",
          "type": "address"
        },
        {
          "indexed": true,
          "internalType": "address",
          "name": "sender",
          "type": "address"
        }
      ],
      "name": "RoleRevoked",
      "type": "event"
    },
    {
      "inputs": [],
      "name": "CHAIN_CONNECTOR_ROLE",
      "outputs": [
        {
          "internalType": "bytes32",
          "name": "",
          "type": "bytes32"
        }
      ],
      "stateMutability": "view",
      "type": "function"
    },
    {
      "inputs": [],
      "name": "CONSTANT_SETTER_ROLE",
      "outputs": [
        {
          "internalType": "bytes32",
          "name": "",
          "type": "bytes32"
        }
      ],
      "stateMutability": "view",
      "type": "function"
    },
    {
      "inputs": [],
      "name": "DEBUGGER_ROLE",
      "outputs": [
        {
          "internalType": "bytes32",
          "name": "",
          "type": "bytes32"
        }
      ],
      "stateMutability": "view",
      "type": "function"
    },
    {
      "inputs": [],
      "name": "DEFAULT_ADMIN_ROLE",
      "outputs": [
        {
          "internalType": "bytes32",
          "name": "",
          "type": "bytes32"
        }
      ],
      "stateMutability": "view",
      "type": "function"
    },
    {
      "inputs": [],
      "name": "EXTRA_CONTRACT_REGISTRAR_ROLE",
      "outputs": [
        {
          "internalType": "bytes32",
          "name": "",
          "type": "bytes32"
        }
      ],
      "stateMutability": "view",
      "type": "function"
    },
    {
      "inputs": [
        {
          "internalType": "string",
          "name": "chainName",
          "type": "string"
        }
      ],
      "name": "addConnectedChain",
      "outputs": [],
      "stateMutability": "nonpayable",
      "type": "function"
    },
    {
      "inputs": [
        {
          "internalType": "bytes32",
          "name": "",
          "type": "bytes32"
        }
      ],
      "name": "connectedChains",
      "outputs": [
        {
          "internalType": "uint256",
          "name": "incomingMessageCounter",
          "type": "uint256"
        },
        {
          "internalType": "uint256",
          "name": "outgoingMessageCounter",
          "type": "uint256"
        },
        {
          "internalType": "bool",
          "name": "inited",
          "type": "bool"
        }
      ],
      "stateMutability": "view",
      "type": "function"
    },
    {
      "inputs": [],
      "name": "gasLimit",
      "outputs": [
        {
          "internalType": "uint256",
          "name": "",
          "type": "uint256"
        }
      ],
      "stateMutability": "view",
      "type": "function"
    },
    {
      "inputs": [
        {
          "internalType": "string",
          "name": "fromSchainName",
          "type": "string"
        }
      ],
      "name": "getIncomingMessagesCounter",
      "outputs": [
        {
          "internalType": "uint256",
          "name": "",
          "type": "uint256"
        }
      ],
      "stateMutability": "view",
      "type": "function"
    },
    {
      "inputs": [
        {
          "internalType": "string",
          "name": "targetSchainName",
          "type": "string"
        }
      ],
      "name": "getOutgoingMessagesCounter",
      "outputs": [
        {
          "internalType": "uint256",
          "name": "",
          "type": "uint256"
        }
      ],
      "stateMutability": "view",
      "type": "function"
    },
    {
      "inputs": [
        {
          "internalType": "bytes32",
          "name": "role",
          "type": "bytes32"
        }
      ],
      "name": "getRoleAdmin",
      "outputs": [
        {
          "internalType": "bytes32",
          "name": "",
          "type": "bytes32"
        }
      ],
      "stateMutability": "view",
      "type": "function"
    },
    {
      "inputs": [
        {
          "internalType": "bytes32",
          "name": "role",
          "type": "bytes32"
        },
        {
          "internalType": "uint256",
          "name": "index",
          "type": "uint256"
        }
      ],
      "name": "getRoleMember",
      "outputs": [
        {
          "internalType": "address",
          "name": "",
          "type": "address"
        }
      ],
      "stateMutability": "view",
      "type": "function"
    },
    {
      "inputs": [
        {
          "internalType": "bytes32",
          "name": "role",
          "type": "bytes32"
        }
      ],
      "name": "getRoleMemberCount",
      "outputs": [
        {
          "internalType": "uint256",
          "name": "",
          "type": "uint256"
        }
      ],
      "stateMutability": "view",
      "type": "function"
    },
    {
      "inputs": [
        {
          "internalType": "bytes32",
          "name": "role",
          "type": "bytes32"
        },
        {
          "internalType": "address",
          "name": "account",
          "type": "address"
        }
      ],
      "name": "grantRole",
      "outputs": [],
      "stateMutability": "nonpayable",
      "type": "function"
    },
    {
      "inputs": [
        {
          "internalType": "bytes32",
          "name": "role",
          "type": "bytes32"
        },
        {
          "internalType": "address",
          "name": "account",
          "type": "address"
        }
      ],
      "name": "hasRole",
      "outputs": [
        {
          "internalType": "bool",
          "name": "",
          "type": "bool"
        }
      ],
      "stateMutability": "view",
      "type": "function"
    },
    {
      "inputs": [
        {
          "internalType": "contract KeyStorage",
          "name": "blsKeyStorage",
          "type": "address"
        },
        {
          "internalType": "string",
          "name": "schainName",
          "type": "string"
        }
      ],
      "name": "initialize",
      "outputs": [],
      "stateMutability": "nonpayable",
      "type": "function"
    },
    {
      "inputs": [
        {
          "internalType": "string",
          "name": "schainName",
          "type": "string"
        }
      ],
      "name": "isConnectedChain",
      "outputs": [
        {
          "internalType": "bool",
          "name": "",
          "type": "bool"
        }
      ],
      "stateMutability": "view",
      "type": "function"
    },
    {
      "inputs": [
        {
          "internalType": "string",
          "name": "schainName",
          "type": "string"
        },
        {
          "internalType": "address",
          "name": "contractAddress",
          "type": "address"
        }
      ],
      "name": "isContractRegistered",
      "outputs": [
        {
          "internalType": "bool",
          "name": "",
          "type": "bool"
        }
      ],
      "stateMutability": "view",
      "type": "function"
    },
    {
      "inputs": [],
      "name": "keyStorage",
      "outputs": [
        {
          "internalType": "contract KeyStorage",
          "name": "",
          "type": "address"
        }
      ],
      "stateMutability": "view",
      "type": "function"
    },
    {
      "inputs": [
        {
          "internalType": "string",
          "name": "schainName",
          "type": "string"
        }
      ],
      "name": "moveIncomingCounter",
      "outputs": [],
      "stateMutability": "nonpayable",
      "type": "function"
    },
    {
      "inputs": [
        {
          "internalType": "string",
          "name": "fromChainName",
          "type": "string"
        },
        {
          "internalType": "uint256",
          "name": "startingCounter",
          "type": "uint256"
        },
        {
          "components": [
            {
              "internalType": "address",
              "name": "sender",
              "type": "address"
            },
            {
              "internalType": "address",
              "name": "destinationContract",
              "type": "address"
            },
            {
              "internalType": "bytes",
              "name": "data",
              "type": "bytes"
            }
          ],
          "internalType": "struct MessageProxyForSchain.Message[]",
          "name": "messages",
          "type": "tuple[]"
        },
        {
          "components": [
            {
              "internalType": "uint256[2]",
              "name": "blsSignature",
              "type": "uint256[2]"
            },
            {
              "internalType": "uint256",
              "name": "hashA",
              "type": "uint256"
            },
            {
              "internalType": "uint256",
              "name": "hashB",
              "type": "uint256"
            },
            {
              "internalType": "uint256",
              "name": "counter",
              "type": "uint256"
            }
          ],
          "internalType": "struct MessageProxyForSchain.Signature",
          "name": "signature",
          "type": "tuple"
        },
        {
          "internalType": "uint256",
          "name": "idxLastToPopNotIncluding",
          "type": "uint256"
        }
      ],
      "name": "postIncomingMessages",
      "outputs": [],
      "stateMutability": "nonpayable",
      "type": "function"
    },
    {
      "inputs": [
        {
          "internalType": "bytes32",
          "name": "targetChainHash",
          "type": "bytes32"
        },
        {
          "internalType": "address",
          "name": "dstContract",
          "type": "address"
        },
        {
          "internalType": "bytes",
          "name": "data",
          "type": "bytes"
        }
      ],
      "name": "postOutgoingMessage",
      "outputs": [],
      "stateMutability": "nonpayable",
      "type": "function"
    },
    {
      "inputs": [
        {
          "internalType": "string",
          "name": "schainName",
          "type": "string"
        },
        {
          "internalType": "address",
          "name": "contractOnSchain",
          "type": "address"
        }
      ],
      "name": "registerExtraContract",
      "outputs": [],
      "stateMutability": "nonpayable",
      "type": "function"
    },
    {
      "inputs": [
        {
          "internalType": "address",
          "name": "contractOnSchain",
          "type": "address"
        }
      ],
      "name": "registerExtraContractForAll",
      "outputs": [],
      "stateMutability": "nonpayable",
      "type": "function"
    },
    {
      "inputs": [
        {
          "internalType": "bytes32",
          "name": "",
          "type": "bytes32"
        },
        {
          "internalType": "address",
          "name": "",
          "type": "address"
        }
      ],
      "name": "registryContracts",
      "outputs": [
        {
          "internalType": "bool",
          "name": "",
          "type": "bool"
        }
      ],
      "stateMutability": "view",
      "type": "function"
    },
    {
      "inputs": [
        {
          "internalType": "string",
          "name": "schainName",
          "type": "string"
        }
      ],
      "name": "removeConnectedChain",
      "outputs": [],
      "stateMutability": "nonpayable",
      "type": "function"
    },
    {
      "inputs": [
        {
          "internalType": "string",
          "name": "schainName",
          "type": "string"
        },
        {
          "internalType": "address",
          "name": "contractOnSchain",
          "type": "address"
        }
      ],
      "name": "removeExtraContract",
      "outputs": [],
      "stateMutability": "nonpayable",
      "type": "function"
    },
    {
      "inputs": [
        {
          "internalType": "address",
          "name": "contractOnSchain",
          "type": "address"
        }
      ],
      "name": "removeExtraContractForAll",
      "outputs": [],
      "stateMutability": "nonpayable",
      "type": "function"
    },
    {
      "inputs": [
        {
          "internalType": "bytes32",
          "name": "role",
          "type": "bytes32"
        },
        {
          "internalType": "address",
          "name": "account",
          "type": "address"
        }
      ],
      "name": "renounceRole",
      "outputs": [],
      "stateMutability": "nonpayable",
      "type": "function"
    },
    {
      "inputs": [
        {
          "internalType": "bytes32",
          "name": "role",
          "type": "bytes32"
        },
        {
          "internalType": "address",
          "name": "account",
          "type": "address"
        }
      ],
      "name": "revokeRole",
      "outputs": [],
      "stateMutability": "nonpayable",
      "type": "function"
    },
    {
      "inputs": [],
      "name": "schainHash",
      "outputs": [
        {
          "internalType": "bytes32",
          "name": "",
          "type": "bytes32"
        }
      ],
      "stateMutability": "view",
      "type": "function"
    },
    {
      "inputs": [
        {
          "internalType": "string",
          "name": "schainName",
          "type": "string"
        }
      ],
      "name": "setCountersToZero",
      "outputs": [],
      "stateMutability": "nonpayable",
      "type": "function"
    },
    {
      "inputs": [
        {
          "internalType": "uint256",
          "name": "newGasLimit",
          "type": "uint256"
        }
      ],
      "name": "setNewGasLimit",
      "outputs": [],
      "stateMutability": "nonpayable",
      "type": "function"
    },
    {
      "inputs": [
        {
          "components": [
            {
              "internalType": "bytes32",
              "name": "dstChain",
              "type": "bytes32"
            },
            {
              "internalType": "uint256",
              "name": "msgCounter",
              "type": "uint256"
            },
            {
              "internalType": "address",
              "name": "srcContract",
              "type": "address"
            },
            {
              "internalType": "address",
              "name": "dstContract",
              "type": "address"
            },
            {
              "internalType": "bytes",
              "name": "data",
              "type": "bytes"
            }
          ],
          "internalType": "struct MessageProxyForSchain.OutgoingMessageData",
          "name": "message",
          "type": "tuple"
        }
      ],
      "name": "verifyOutgoingMessageData",
      "outputs": [
        {
          "internalType": "bool",
          "name": "isValidMessage",
          "type": "bool"
        }
      ],
      "stateMutability": "view",
      "type": "function"
    }
  ],
  "bytecode": "0x608060405234801561001057600080fd5b506134c3806100206000396000f3fe608060405234801561001057600080fd5b50600436106102065760003560e01c8063999ab9aa1161011a578063d547741f116100ad578063f2f636051161007c578063f2f6360514610431578063f399e22e14610444578063f68016b714610457578063f79f79541461045f578063f8c88a161461046757610206565b8063d547741f146103d6578063e356a6f9146103e9578063e45b045f146103fc578063e6ab84031461040f57610206565b8063ac2f861e116100e9578063ac2f861e146103a0578063bbc4e8c2146103a8578063ca15c873146103b0578063cab010c9146103c357610206565b8063999ab9aa1461035f578063a217fddf14610372578063a78868c81461037a578063a8bb1b7d1461038d57610206565b80634da84ce51161019d5780637aa38a7c1161016c5780637aa38a7c146102e65780637c5ad80c146103065780639010d07c1461031957806391d1485414610339578063944892021461034c57610206565b80634da84ce5146102a5578063523c8ab6146102b857806367ec6020146102c057806377fe0f31146102d357610206565b80633b597ffe116101d95780633b597ffe146102645780633b690b6b146102775780633cdd2cc31461027f5780634d2038591461029257610206565b806313c522601461020b578063248a9ca3146102295780632f2ff15d1461023c57806336568abe14610251575b600080fd5b61021361047a565b6040516102209190612a3f565b60405180910390f35b6102136102373660046125d5565b61049e565b61024f61024a3660046125ed565b6104b3565b005b61024f61025f3660046125ed565b610504565b61024f6102723660046125d5565b610546565b610213610591565b61024f61028d3660046126e5565b610597565b61024f6102a036600461259d565b6106a7565b61024f6102b33660046126e5565b610780565b610213610852565b6102136102ce3660046126e5565b610864565b6102136102e13660046126e5565b6108d1565b6102f96102f436600461287a565b610939565b6040516102209190612a34565b6102f96103143660046125ed565b610973565b61032c610327366004612676565b610993565b60405161022091906129fc565b6102f96103473660046125ed565b6109b2565b61024f61035a36600461261c565b6109ca565b6102f961036d3660046126e5565b610b05565b610213610b51565b61024f61038836600461277a565b610b56565b61024f61039b36600461259d565b610c8d565b610213610d62565b610213610d86565b6102136103be3660046125d5565b610daa565b61024f6103d1366004612725565b610dc1565b61024f6103e43660046125ed565b610ec4565b6102f96103f7366004612725565b610efe565b61024f61040a3660046126e5565b610f5d565b61042261041d3660046125d5565b61102c565b604051610220939291906132a8565b61024f61043f3660046126e5565b611050565b61024f610452366004612697565b611169565b6102136112c6565b61032c6112cc565b61024f610475366004612725565b6112db565b7f2785f35fe7d8743aa971942d8474737bb31895d396eff2cc688a481e0221e19181565b60009081526033602052604090206002015490565b6000828152603360205260409020600201546104d1906103476113da565b6104f65760405162461bcd60e51b81526004016104ed90612b6a565b60405180910390fd5b61050082826113df565b5050565b61050c6113da565b6001600160a01b0316816001600160a01b03161461053c5760405162461bcd60e51b81526004016104ed90613259565b6105008282611448565b6105707f96e3fc3be15159903e053027cff8a23f39a990e0194abcd8ac1cf1b355b8b93c336109b2565b61058c5760405162461bcd60e51b81526004016104ed90612c8f565b606c55565b60665481565b6105c17f2785f35fe7d8743aa971942d8474737bb31895d396eff2cc688a481e0221e191336109b2565b6105dd5760405162461bcd60e51b81526004016104ed90612cd5565b600082826040516020016105f29291906129bd565b604051602081830303815290604052805190602001209050604051602001610619906129e9565b6040516020818303038152906040528051906020012081141561064e5760405162461bcd60e51b81526004016104ed90613210565b60008181526067602052604090206002015460ff1661067f5760405162461bcd60e51b81526004016104ed906130a2565b60009081526067602052604081208181556001810191909155600201805460ff191690555050565b6106bf60008051602061342e833981519152336109b2565b6106db5760405162461bcd60e51b81526004016104ed90612bb9565b6106ed816001600160a01b03166114b1565b6107095760405162461bcd60e51b81526004016104ed90613138565b6001600160a01b038116600090815260008051602061346e833981519152602052604090205460ff161561074f5760405162461bcd60e51b81526004016104ed906131cc565b6001600160a01b0316600090815260008051602061346e83398151915260205260409020805460ff19166001179055565b6107aa7f621a88c2734d2b469650b9ed1f143b5eea096e7e7bb5c68a326ac7aee5e7f946336109b2565b6107c65760405162461bcd60e51b81526004016104ed90613101565b60006067600084846040516020016107df9291906129bd565b6040516020818303038152906040528051906020012081526020019081526020016000206000018190555060006067600084846040516020016108239291906129bd565b604051602081830303815290604052805190602001208152602001908152602001600020600101819055505050565b60008051602061342e83398151915281565b600080838360405160200161087a9291906129bd565b60408051601f1981840301815291815281516020928301206000818152606790935291206002015490915060ff166108b65760009150506108cb565b60009081526067602052604090206001015490505b92915050565b60008083836040516020016108e79291906129bd565b60408051601f1981840301815291815281516020928301206000818152606790935291206002015490915060ff166109235760009150506108cb565b6000908152606760205260409020549392505050565b80516000908152606860209081526040808320828501518452909152812054610961836114b7565b81141561096d57600191505b50919050565b606b60209081526000928352604080842090915290825290205460ff1681565b60008281526033602052604081206109ab9083611524565b9392505050565b60008281526033602052604081206109ab9083611530565b60008481526067602052604090206002015460ff166109fb5760405162461bcd60e51b81526004016104ed90613002565b33600090815260008051602061346e833981519152602052604090205460ff1680610a3f57506000848152606b6020908152604080832033845290915290205460ff165b610a5b5760405162461bcd60e51b81526004016104ed90612c4e565b6000848152606760205260409020600190810154610a7891611545565b6000858152606760208181526040808420600101859055805160a081018252898152938990529181526000199093018284015233828201526001600160a01b03861660608301528051601f8501849004840281018401909152838152610aff926080830191908690869081908401838280828437600092019190915250505091525061156a565b50505050565b6000606760008484604051602001610b1e9291906129bd565b60408051808303601f190181529181528151602092830120835290820192909252016000206002015460ff169392505050565b600081565b60008787604051602001610b6b9291906129bd565b604051602081830303815290604052805190602001209050610b96610b90868661161c565b8461170b565b610bb25760405162461bcd60e51b81526004016104ed90612e20565b60008181526067602052604090206002015460ff16610be35760405162461bcd60e51b81526004016104ed906130a2565b6000818152606760205260409020548614610c105760405162461bcd60e51b81526004016104ed90612f06565b60005b84811015610c4f57610c4682878784818110610c2b57fe5b9050602002810190610c3d9190613305565b896001016117b8565b50600101610c13565b50600081815260676020526040902054610c699085611545565b600082815260676020526040902055610c828183611926565b505050505050505050565b610ca560008051602061342e833981519152336109b2565b610cc15760405162461bcd60e51b81526004016104ed9061316f565b610cd3816001600160a01b03166114b1565b610cef5760405162461bcd60e51b81526004016104ed90613138565b6001600160a01b038116600090815260008051602061346e833981519152602052604090205460ff16610d345760405162461bcd60e51b81526004016104ed90612e8e565b6001600160a01b0316600090815260008051602061346e83398151915260205260409020805460ff19169055565b7f621a88c2734d2b469650b9ed1f143b5eea096e7e7bb5c68a326ac7aee5e7f94681565b7f96e3fc3be15159903e053027cff8a23f39a990e0194abcd8ac1cf1b355b8b93c81565b60008181526033602052604081206108cb906119b2565b60008383604051602001610dd69291906129bd565b604051602081830303815290604052805190602001209050610e0660008051602061342e833981519152336109b2565b610e225760405162461bcd60e51b81526004016104ed90612f63565b610e34826001600160a01b03166114b1565b610e505760405162461bcd60e51b81526004016104ed90613138565b6000818152606b602090815260408083206001600160a01b038616845290915290205460ff1615610e935760405162461bcd60e51b81526004016104ed906131cc565b6000908152606b602090815260408083206001600160a01b03909416835292905220805460ff191660011790555050565b600082815260336020526040902060020154610ee2906103476113da565b61053c5760405162461bcd60e51b81526004016104ed90612dd0565b6000606b60008585604051602001610f179291906129bd565b60408051601f19818403018152918152815160209283012083528282019390935290820160009081206001600160a01b0386168252909152205460ff1690509392505050565b610f877f621a88c2734d2b469650b9ed1f143b5eea096e7e7bb5c68a326ac7aee5e7f946336109b2565b610fa35760405162461bcd60e51b81526004016104ed90613101565b610feb6001606760008585604051602001610fbf9291906129bd565b60408051601f198184030181529181528151602092830120835290820192909252016000205490611545565b6067600084846040516020016110029291906129bd565b60408051601f19818403018152918152815160209283012083529082019290925201600020555050565b60676020526000908152604090208054600182015460029092015490919060ff1683565b61107a7f2785f35fe7d8743aa971942d8474737bb31895d396eff2cc688a481e0221e191336109b2565b6110965760405162461bcd60e51b81526004016104ed90612cd5565b600082826040516020016110ab9291906129bd565b6040516020818303038152906040528051906020012090506066548114156110e55760405162461bcd60e51b81526004016104ed90612b33565b60008181526067602052604090206002015460ff16156111175760405162461bcd60e51b81526004016104ed90612e57565b604080516060810182526000808252602080830182815260018486018181529684526067909252939091209151825591519181019190915590516002909101805460ff19169115159190911790555050565b600054610100900460ff168061118257506111826119bd565b80611190575060005460ff16155b6111ac5760405162461bcd60e51b81526004016104ed90612fb4565b600054610100900460ff161580156111d7576000805460ff1961ff0019909116610100171660011790555b6111df6119ce565b6111ea6000336104f6565b606580546001600160a01b0319166001600160a01b03851617905560408051606081018252600080825260208083018290526001838501529251919260679261123391016129e9565b60408051808303601f19018152918152815160209283012083528282019390935290820160002083518155838201516001820155928201516002909301805460ff1916931515939093179092555161128d918491016129cd565b60408051601f198184030181529190528051602090910120606655622dc6c0606c5580156112c1576000805461ff00191690555b505050565b606c5481565b6065546001600160a01b031681565b600083836040516020016112f09291906129bd565b60405160208183030381529060405280519060200120905061132060008051602061342e833981519152336109b2565b61133c5760405162461bcd60e51b81526004016104ed90612ae4565b61134e826001600160a01b03166114b1565b61136a5760405162461bcd60e51b81526004016104ed90613138565b6000818152606b602090815260408083206001600160a01b038616845290915290205460ff166113ac5760405162461bcd60e51b81526004016104ed90612e8e565b6000908152606b602090815260408083206001600160a01b03909416835292905220805460ff191690555050565b335b90565b60008281526033602052604090206113f79082611a61565b15610500576114046113da565b6001600160a01b0316816001600160a01b0316837f2f8788117e7eff1d82e926ec794901d17c78024a50270940304540a733656f0d60405160405180910390a45050565b60008281526033602052604090206114609082611a76565b156105005761146d6113da565b6001600160a01b0316816001600160a01b0316837ff6391f5c32d9c69d2a47ea670b442974b53935d1edc7fd64eb21e047a839171b60405160405180910390a45050565b3b151590565b600060608260000151836020015160001b846040015160601b6001600160601b031916856060015160601b6001600160601b031916866080015160405160200161150595949392919061294b565b60408051808303601f1901815291905280516020909101209392505050565b60006109ab8383611a8b565b60006109ab836001600160a01b038416611ad0565b6000828201838110156109ab5760405162461bcd60e51b81526004016104ed90612c17565b60008160000151905081604001516001600160a01b03168260200151827f803d7f3ca0e5f93fcce39fa29812ed57a95a151594966e17125220132741c6b0856060015186608001516040516115c0929190612a10565b60405180910390a46115d1826114b7565b6000828152606860209081526040808320606a8084528285208054865291845291842094909455918490525254611609906001611545565b6000918252606a60205260409091205550565b6000606060005b838110156116fb578185858381811061163857fe5b905060200281019061164a9190613305565b61165890602081019061259d565b60601b6001600160601b03191686868481811061167157fe5b90506020028101906116839190613305565b61169490604081019060200161259d565b60601b6001600160601b0319168787858181106116ad57fe5b90506020028101906116bf9190613305565b6116cd9060408101906132c0565b6040516020016116e1959493929190612986565b60408051601f198184030181529190529150600101611623565b5080516020909101209392505050565b60408051808201825282358152602080840135908201526065548251632aa77bd360e11b815283516000946109ab949388936080808a013594938a01359360608b0135936001600160a01b03169263554ef7a6926004808301939192829003018186803b15801561177b57600080fd5b505afa15801561178f573d6000803e3d6000fd5b505050506040513d601f19601f820116820180604052508101906117b3919061283a565b611ae8565b60006117ca604084016020850161259d565b6001600160a01b031663884cee5a606c54868660000160208101906117ef919061259d565b6117fc60408901896132c0565b6040518663ffffffff1660e01b815260040161181b9493929190612a48565b602060405180830381600088803b15801561183557600080fd5b5087f193505050508015611866575060408051601f3d908101601f19168201909252611863918101906125b9565b60015b61191f57611872613373565b8061187d57506118bf565b827f4b7d3908626050c0d998d657e4e6f31cb43ed736bf2b9a1a0192494537ca0e59826040516118ad9190612a8f565b60405180910390a260009150506109ab565b3d8080156118e9576040519150601f19603f3d011682016040523d82523d6000602084013e6118ee565b606091505b50827f4b7d3908626050c0d998d657e4e6f31cb43ed736bf2b9a1a0192494537ca0e59826040516118ad9190612a8f565b90506109ab565b6000828152606a602090815260408083205460699092528220545b8381101561197b578181106119555761197b565b600085815260686020908152604080832084845290915281205560019283019201611941565b5081156119ab5760008481526069602052604090205461199b9083611545565b6000858152606960205260409020555b5092915050565b60006108cb82611c26565b60006119c8306114b1565b15905090565b600054610100900460ff16806119e757506119e76119bd565b806119f5575060005460ff16155b611a115760405162461bcd60e51b81526004016104ed90612fb4565b600054610100900460ff16158015611a3c576000805460ff1961ff0019909116610100171660011790555b611a44611c2a565b611a4c611c2a565b8015611a5e576000805461ff00191690555b50565b60006109ab836001600160a01b038416611cab565b60006109ab836001600160a01b038416611cf5565b81546000908210611aae5760405162461bcd60e51b81526004016104ed90612aa2565b826000018281548110611abd57fe5b9060005260206000200154905092915050565b60009081526001919091016020526040902054151590565b6000611af387611dbb565b611b0f5760405162461bcd60e51b81526004016104ed90612d41565b611b1b86868686611df1565b611b2757506000611c1c565b6000611b368860200151611ec5565b9050611b46886000015182611ee9565b611b625760405162461bcd60e51b81526004016104ed906130d9565b611b6c8585611ee9565b611b885760405162461bcd60e51b81526004016104ed90612d71565b611b9061242f565b611b98611f19565b9050611ba384611fd9565b611bbf5760405162461bcd60e51b81526004016104ed90613074565b611c178960000151838360000151602001518460000151600001518560200151602001518660200151600001518c8c8c60000151602001518d60000151600001518e60200151602001518f6020015160000151611fed565b925050505b9695505050505050565b5490565b600054610100900460ff1680611c435750611c436119bd565b80611c51575060005460ff16155b611c6d5760405162461bcd60e51b81526004016104ed90612fb4565b600054610100900460ff16158015611a4c576000805460ff1961ff0019909116610100171660011790558015611a5e576000805461ff001916905550565b6000611cb78383611ad0565b611ced575081546001818101845560008481526020808220909301849055845484825282860190935260409020919091556108cb565b5060006108cb565b60008181526001830160205260408120548015611db15783546000198083019190810190600090879083908110611d2857fe5b9060005260206000200154905080876000018481548110611d4557fe5b600091825260208083209091019290925582815260018981019092526040902090840190558654879080611d7557fe5b600190038181906000526020600020016000905590558660010160008781526020019081526020016000206000905560019450505050506108cb565b60009150506108cb565b600060008051602061344e83398151915282600001511080156108cb5750506020015160008051602061344e8339815191521190565b60006064841115611e0457506000611ebd565b60008051602061344e83398151915280860690611e218287611545565b81611e2857fe5b069050600060008051602061344e833981519152600360008051602061344e8339815191528460008051602061344e83398151915286870909089050611e7d60008051602061344e8339815191526002612096565b841080611e9b57508060008051602061344e83398151915285860914155b80611ea65750848214155b15611eb657600092505050611ebd565b6001925050505b949350505050565b60006108cb60008051602061344e833981519152611ee381856120c8565b906120f0565b600060008051602061344e83398151915280600381868188890909088180611f0d57fe5b84850914949350505050565b611f2161242f565b50604080516080810182527f1800deef121f1e76426a00665e5c4479674322d4f75edadd46debd5cd992f6ed8183019081527f198e9393920d483a7260bfb731fb5d25f1aa493335a9e71297e485b7aef312c26060830152815281518083019092527f12c85ea5db8c6deb4aab71808dcb408fe3d1e7690c43d37b4ce6cc0166fa7daa82527f090689d0585ff075ec9e99ad690c3395bc4b313370b38ef355acdadcd122975b60208381019190915281019190915290565b60006108cb82600001518360200151612122565b600080611ff8612454565b8e8152602081018e9052604081018d9052606081018c9052608081018b905260a081018a905260c0810189905260e081018890526101008101879052610120810186905261014081018590526101608101849052612054612473565b602081610180846008600019fa9250826120805760405162461bcd60e51b81526004016104ed90613046565b5115159f9e505050505050505050505050505050565b60008082116120b75760405162461bcd60e51b81526004016104ed90612d99565b8183816120c057fe5b049392505050565b6000828211156120ea5760405162461bcd60e51b81526004016104ed90612d0a565b50900390565b60008082116121115760405162461bcd60e51b81526004016104ed90612ecf565b81838161211a57fe5b069392505050565b600061212e83836121a1565b1561213b575060016108cb565b612143612491565b61214c836121d4565b9050612156612491565b612184612161612259565b61217e612177886121718a6121d4565b906122b7565b859061237b565b9061237b565b805190915015801561219857506020810151155b95945050505050565b81516000901580156121b557506020830151155b80156121c2575081516001145b80156109ab5750506020015115919050565b6121dc612491565b60008051602061344e833981519152600081602085015185510990506000828061220257fe5b838061220a57fe5b848061221257fe5b87602001516001870309875108848061222757fe5b60208801518851080990506040518060400160405280828152602001848061224b57fe5b848508905295945050505050565b612261612491565b50604080518082019091527f2b149d40ceb8aaae81be18991be06ac3b5b4c5e559dbefa33267e6dc24a138e581527e9713b03af0fed4cd2cafadeed8fdf4a74fa084e52d1852e4a2bd0685c315d2602082015290565b6122bf612491565b60008051602061344e8339815191526122d6612491565b604051806040016040528083806122e957fe5b8651885109815260200183806122fb57fe5b866020015188602001510990529050818061231257fe5b828061231a57fe5b826020015160018503098251088352818061233157fe5b828061233957fe5b60208301518351088303838061234b57fe5b848061235357fe5b6020880151885108858061236357fe5b60208a01518a51080908602084015250909392505050565b612383612491565b8151835160008051602061344e83398151915291116123b45780806123a457fe5b83518551908303900882526123d4565b6123d18182806123c057fe5b8651865190850390088303906120f0565b82525b82602001518460200151106124025780806123eb57fe5b8360200151820385602001510860208301526119ab565b61242381828061240e57fe5b866020015184038660200151088303906120f0565b60208301525092915050565b6040518060400160405280612442612491565b815260200161244f612491565b905290565b604051806101800160405280600c906020820280368337509192915050565b60405180602001604052806001906020820280368337509192915050565b604051806040016040528060008152602001600081525090565b60008083601f8401126124bc578182fd5b50813567ffffffffffffffff8111156124d3578182fd5b6020830191508360208285010111156124eb57600080fd5b9250929050565b600082601f830112612502578081fd5b813567ffffffffffffffff811115612518578182fd5b61252b601f8201601f191660200161331a565b915080825283602082850101111561254257600080fd5b8060208401602084013760009082016020015292915050565b60006040828403121561256c578081fd5b612576604061331a565b9050815181526020820151602082015292915050565b600060a0828403121561096d578081fd5b6000602082840312156125ae578081fd5b81356109ab81613418565b6000602082840312156125ca578081fd5b81516109ab81613418565b6000602082840312156125e6578081fd5b5035919050565b600080604083850312156125ff578081fd5b82359150602083013561261181613418565b809150509250929050565b60008060008060608587031215612631578182fd5b84359350602085013561264381613418565b9250604085013567ffffffffffffffff81111561265e578283fd5b61266a878288016124ab565b95989497509550505050565b60008060408385031215612688578182fd5b50508035926020909101359150565b600080604083850312156126a9578182fd5b82356126b481613418565b9150602083013567ffffffffffffffff8111156126cf578182fd5b6126db858286016124f2565b9150509250929050565b600080602083850312156126f7578182fd5b823567ffffffffffffffff81111561270d578283fd5b612719858286016124ab565b90969095509350505050565b600080600060408486031215612739578283fd5b833567ffffffffffffffff81111561274f578384fd5b61275b868287016124ab565b909450925050602084013561276f81613418565b809150509250925092565b6000806000806000806000610120888a031215612795578485fd5b873567ffffffffffffffff808211156127ac578687fd5b6127b88b838c016124ab565b909950975060208a0135965060408a01359150808211156127d7578485fd5b818a0191508a601f8301126127ea578485fd5b8135818111156127f8578586fd5b8b6020808302850101111561280b578586fd5b6020830196508095505050506128248960608a0161258c565b9150610100880135905092959891949750929550565b60006080828403121561284b578081fd5b612855604061331a565b61285f848461255b565b815261286e846040850161255b565b60208201529392505050565b60006020828403121561288b578081fd5b813567ffffffffffffffff808211156128a2578283fd5b9083019060a082860312156128b5578283fd5b6128bf60a061331a565b823581526020830135602082015260408301356128db81613418565b604082015260608301356128ee81613418565b6060820152608083013582811115612904578485fd5b612910878286016124f2565b60808301525095945050505050565b60008151808452612937816020860160208601613341565b601f01601f19169290920160200192915050565b60008682528560208301528460408301528360608301528251612975816080850160208701613341565b919091016080019695505050505050565b60008651612998818460208b01613341565b8201868152602081018690528385604083013790920160400191825250949350505050565b6000828483379101908152919050565b600082516129df818460208701613341565b9190910192915050565b6613585a5b9b995d60ca1b815260070190565b6001600160a01b0391909116815260200190565b6001600160a01b0383168152604060208201819052600090611ebd9083018461291f565b901515815260200190565b90815260200190565b8481526001600160a01b03841660208201526060604082018190528101829052600082846080840137818301608090810191909152601f909201601f191601019392505050565b6000602082526109ab602083018461291f565b60208082526022908201527f456e756d657261626c655365743a20696e646578206f7574206f6620626f756e604082015261647360f01b606082015260800190565b6020808252602f908201527f4e6f7420656e6f756768207065726d697373696f6e7320746f2072656d6f766560408201526e08195e1d1c984818dbdb9d1c9858dd608a1b606082015260800190565b6020808252601c908201527f53636861696e2063616e6e6f7420636f6e6e65637420697473656c6600000000604082015260600190565b6020808252602f908201527f416363657373436f6e74726f6c3a2073656e646572206d75737420626520616e60408201526e0818591b5a5b881d1bc819dc985b9d608a1b606082015260800190565b602080825260409082018190527f4e6f7420656e6f756768207065726d697373696f6e7320746f20726567697374908201527f657220657874726120636f6e747261637420666f7220616c6c20636861696e73606082015260800190565b6020808252601b908201527f536166654d6174683a206164646974696f6e206f766572666c6f770000000000604082015260600190565b60208082526021908201527f53656e64657220636f6e7472616374206973206e6f74207265676973746572656040820152601960fa1b606082015260800190565b60208082526026908201527f4e6f7420656e6f756768207065726d697373696f6e7320746f2073657420636f6040820152651b9cdd185b9d60d21b606082015260800190565b6020808252818101527f434841494e5f434f4e4e4543544f525f524f4c45206973207265717569726564604082015260600190565b6020808252601e908201527f536166654d6174683a207375627472616374696f6e206f766572666c6f770000604082015260600190565b60208082526016908201527514da59db985d1d5c99481a5cc81b9bdd081d985b1a5960521b604082015260600190565b6020808252600e908201526d48617368206e6f7420696e20473160901b604082015260600190565b6020808252601a908201527f536166654d6174683a206469766973696f6e206279207a65726f000000000000604082015260600190565b60208082526030908201527f416363657373436f6e74726f6c3a2073656e646572206d75737420626520616e60408201526f2061646d696e20746f207265766f6b6560801b606082015260800190565b60208082526019908201527f5369676e6174757265206973206e6f7420766572696669656400000000000000604082015260600190565b6020808252601a908201527f436861696e20697320616c726561647920636f6e6e6563746564000000000000604082015260600190565b60208082526021908201527f457874726120636f6e747261637420697320616c72656164792072656d6f76656040820152601960fa1b606082015260800190565b60208082526018908201527f536166654d6174683a206d6f64756c6f206279207a65726f0000000000000000604082015260600190565b60208082526038908201527f5374617274696e6720636f756e746572206973206e6f74207175616c20746f2060408201527f696e636f6d696e67206d65737361676520636f756e7465720000000000000000606082015260800190565b60208082526031908201527f4e6f7420656e6f756768207065726d697373696f6e7320746f20726567697374604082015270195c88195e1d1c984818dbdb9d1c9858dd607a1b606082015260800190565b6020808252602e908201527f496e697469616c697a61626c653a20636f6e747261637420697320616c72656160408201526d191e481a5b9a5d1a585b1a5e995960921b606082015260800190565b60208082526024908201527f44657374696e6174696f6e20636861696e206973206e6f7420696e697469616c6040820152631a5e995960e21b606082015260800190565b60208082526014908201527314185a5c9a5b99c818da1958dac819985a5b195960621b604082015260600190565b602080825260149082015273283ab13634b19025b2bc903737ba1034b710239960611b604082015260600190565b60208082526018908201527f436861696e206973206e6f7420696e697469616c697a65640000000000000000604082015260600190565b6020808252600e908201526d5369676e206e6f7420696e20473160901b604082015260600190565b60208082526019908201527f44454255474745525f524f4c4520697320726571756972656400000000000000604082015260600190565b6020808252601f908201527f476976656e2061646472657373206973206e6f74206120636f6e747261637400604082015260600190565b6020808252603e908201527f4e6f7420656e6f756768207065726d697373696f6e7320746f2072656d6f766560408201527f20657874726120636f6e747261637420666f7220616c6c20636861696e730000606082015260800190565b60208082526024908201527f457874726120636f6e747261637420697320616c726561647920726567697374604082015263195c995960e21b606082015260800190565b60208082526029908201527f4e657720636861696e20686173682063616e6e6f7420626520657175616c20746040820152681bc813585a5b9b995d60ba1b606082015260800190565b6020808252602f908201527f416363657373436f6e74726f6c3a2063616e206f6e6c792072656e6f756e636560408201526e103937b632b9903337b91039b2b63360891b606082015260800190565b92835260208301919091521515604082015260600190565b6000808335601e198436030181126132d6578283fd5b83018035915067ffffffffffffffff8211156132f0578283fd5b6020019150368190038213156124eb57600080fd5b60008235605e198336030181126129df578182fd5b60405181810167ffffffffffffffff8111828210171561333957600080fd5b604052919050565b60005b8381101561335c578181015183820152602001613344565b83811115610aff5750506000910152565b60e01c90565b600060443d1015613383576113dc565b600481823e6308c379a0613397825161336d565b146133a1576113dc565b6040513d600319016004823e80513d67ffffffffffffffff81602484011181841117156133d157505050506113dc565b828401925082519150808211156133eb57505050506113dc565b503d83016020828401011115613403575050506113dc565b601f01601f1916810160200160405291505090565b6001600160a01b0381168114611a5e57600080fdfe6155b5aac15ce9aa193c0527a6f43be0a36a7e2e7496c2b615c0e5f92284277330644e72e131a029b85045b68181585d97816a916871ca8d3c208c16d87cfd47c8cc8bda7ad4886bea3ebbdafa02e79d37c39bf4011696b26a31a0802fd9458ba264697066735822122077472433c4d6665de3b7351fb5b7b5e17df317f932bc6437c0dafa5ce3cc07db64736f6c634300060c0033",
  "linkReferences": {},
  "deployedLinkReferences": {}
}