{
  "_format": "hh-sol-artifact-1",
  "contractName": "MessageProxyForSchain",
  "sourceName": "contracts/schain/MessageProxyForSchain.sol",
  "abi": [
    {
      "anonymous": false,
      "inputs": [
        {
          "indexed": true,
          "internalType": "bytes32",
          "name": "dstChainHash",
          "type": "bytes32"
        },
        {
          "indexed": true,
          "internalType": "uint256",
          "name": "msgCounter",
          "type": "uint256"
        },
        {
          "indexed": true,
          "internalType": "address",
          "name": "srcContract",
          "type": "address"
        },
        {
          "indexed": false,
          "internalType": "address",
          "name": "dstContract",
          "type": "address"
        },
        {
          "indexed": false,
          "internalType": "bytes",
          "name": "data",
          "type": "bytes"
        }
      ],
      "name": "OutgoingMessage",
      "type": "event"
    },
    {
      "anonymous": false,
      "inputs": [
        {
          "indexed": true,
          "internalType": "uint256",
          "name": "msgCounter",
          "type": "uint256"
        },
        {
          "indexed": false,
          "internalType": "bytes",
          "name": "message",
          "type": "bytes"
        }
      ],
      "name": "PostMessageError",
      "type": "event"
    },
    {
      "anonymous": false,
      "inputs": [
        {
          "indexed": true,
          "internalType": "bytes32",
          "name": "role",
          "type": "bytes32"
        },
        {
          "indexed": true,
          "internalType": "bytes32",
          "name": "previousAdminRole",
          "type": "bytes32"
        },
        {
          "indexed": true,
          "internalType": "bytes32",
          "name": "newAdminRole",
          "type": "bytes32"
        }
      ],
      "name": "RoleAdminChanged",
      "type": "event"
    },
    {
      "anonymous": false,
      "inputs": [
        {
          "indexed": true,
          "internalType": "bytes32",
          "name": "role",
          "type": "bytes32"
        },
        {
          "indexed": true,
          "internalType": "address",
          "name": "account",
          "type": "address"
        },
        {
          "indexed": true,
          "internalType": "address",
          "name": "sender",
          "type": "address"
        }
      ],
      "name": "RoleGranted",
      "type": "event"
    },
    {
      "anonymous": false,
      "inputs": [
        {
          "indexed": true,
          "internalType": "bytes32",
          "name": "role",
          "type": "bytes32"
        },
        {
          "indexed": true,
          "internalType": "address",
          "name": "account",
          "type": "address"
        },
        {
          "indexed": true,
          "internalType": "address",
          "name": "sender",
          "type": "address"
        }
      ],
      "name": "RoleRevoked",
      "type": "event"
    },
    {
      "inputs": [],
      "name": "CHAIN_CONNECTOR_ROLE",
      "outputs": [
        {
          "internalType": "bytes32",
          "name": "",
          "type": "bytes32"
        }
      ],
      "stateMutability": "view",
      "type": "function"
    },
    {
      "inputs": [],
      "name": "CONSTANT_SETTER_ROLE",
      "outputs": [
        {
          "internalType": "bytes32",
          "name": "",
          "type": "bytes32"
        }
      ],
      "stateMutability": "view",
      "type": "function"
    },
    {
      "inputs": [],
      "name": "DEFAULT_ADMIN_ROLE",
      "outputs": [
        {
          "internalType": "bytes32",
          "name": "",
          "type": "bytes32"
        }
      ],
      "stateMutability": "view",
      "type": "function"
    },
    {
      "inputs": [],
      "name": "EXTRA_CONTRACT_REGISTRAR_ROLE",
      "outputs": [
        {
          "internalType": "bytes32",
          "name": "",
          "type": "bytes32"
        }
      ],
      "stateMutability": "view",
      "type": "function"
    },
    {
      "inputs": [
        {
          "internalType": "string",
          "name": "chainName",
          "type": "string"
        }
      ],
      "name": "addConnectedChain",
      "outputs": [],
      "stateMutability": "nonpayable",
      "type": "function"
    },
    {
      "inputs": [
        {
          "internalType": "bytes32",
          "name": "",
          "type": "bytes32"
        }
      ],
      "name": "connectedChains",
      "outputs": [
        {
          "internalType": "uint256",
          "name": "incomingMessageCounter",
          "type": "uint256"
        },
        {
          "internalType": "uint256",
          "name": "outgoingMessageCounter",
          "type": "uint256"
        },
        {
          "internalType": "bool",
          "name": "inited",
          "type": "bool"
        }
      ],
      "stateMutability": "view",
      "type": "function"
    },
    {
      "inputs": [],
      "name": "gasLimit",
      "outputs": [
        {
          "internalType": "uint256",
          "name": "",
          "type": "uint256"
        }
      ],
      "stateMutability": "view",
      "type": "function"
    },
    {
      "inputs": [
        {
          "internalType": "string",
          "name": "fromSchainName",
          "type": "string"
        }
      ],
      "name": "getIncomingMessagesCounter",
      "outputs": [
        {
          "internalType": "uint256",
          "name": "",
          "type": "uint256"
        }
      ],
      "stateMutability": "view",
      "type": "function"
    },
    {
      "inputs": [
        {
          "internalType": "string",
          "name": "targetSchainName",
          "type": "string"
        }
      ],
      "name": "getOutgoingMessagesCounter",
      "outputs": [
        {
          "internalType": "uint256",
          "name": "",
          "type": "uint256"
        }
      ],
      "stateMutability": "view",
      "type": "function"
    },
    {
      "inputs": [
        {
          "internalType": "bytes32",
          "name": "role",
          "type": "bytes32"
        }
      ],
      "name": "getRoleAdmin",
      "outputs": [
        {
          "internalType": "bytes32",
          "name": "",
          "type": "bytes32"
        }
      ],
      "stateMutability": "view",
      "type": "function"
    },
    {
      "inputs": [
        {
          "internalType": "bytes32",
          "name": "role",
          "type": "bytes32"
        },
        {
          "internalType": "uint256",
          "name": "index",
          "type": "uint256"
        }
      ],
      "name": "getRoleMember",
      "outputs": [
        {
          "internalType": "address",
          "name": "",
          "type": "address"
        }
      ],
      "stateMutability": "view",
      "type": "function"
    },
    {
      "inputs": [
        {
          "internalType": "bytes32",
          "name": "role",
          "type": "bytes32"
        }
      ],
      "name": "getRoleMemberCount",
      "outputs": [
        {
          "internalType": "uint256",
          "name": "",
          "type": "uint256"
        }
      ],
      "stateMutability": "view",
      "type": "function"
    },
    {
      "inputs": [
        {
          "internalType": "bytes32",
          "name": "role",
          "type": "bytes32"
        },
        {
          "internalType": "address",
          "name": "account",
          "type": "address"
        }
      ],
      "name": "grantRole",
      "outputs": [],
      "stateMutability": "nonpayable",
      "type": "function"
    },
    {
      "inputs": [
        {
          "internalType": "bytes32",
          "name": "role",
          "type": "bytes32"
        },
        {
          "internalType": "address",
          "name": "account",
          "type": "address"
        }
      ],
      "name": "hasRole",
      "outputs": [
        {
          "internalType": "bool",
          "name": "",
          "type": "bool"
        }
      ],
      "stateMutability": "view",
      "type": "function"
    },
    {
      "inputs": [
        {
          "internalType": "contract KeyStorage",
          "name": "blsKeyStorage",
          "type": "address"
        },
        {
          "internalType": "string",
          "name": "schainName",
          "type": "string"
        }
      ],
      "name": "initialize",
      "outputs": [],
      "stateMutability": "nonpayable",
      "type": "function"
    },
    {
      "inputs": [
        {
          "internalType": "string",
          "name": "schainName",
          "type": "string"
        }
      ],
      "name": "isConnectedChain",
      "outputs": [
        {
          "internalType": "bool",
          "name": "",
          "type": "bool"
        }
      ],
      "stateMutability": "view",
      "type": "function"
    },
    {
      "inputs": [
        {
          "internalType": "string",
          "name": "schainName",
          "type": "string"
        },
        {
          "internalType": "address",
          "name": "contractAddress",
          "type": "address"
        }
      ],
      "name": "isContractRegistered",
      "outputs": [
        {
          "internalType": "bool",
          "name": "",
          "type": "bool"
        }
      ],
      "stateMutability": "view",
      "type": "function"
    },
    {
      "inputs": [],
      "name": "keyStorage",
      "outputs": [
        {
          "internalType": "contract KeyStorage",
          "name": "",
          "type": "address"
        }
      ],
      "stateMutability": "view",
      "type": "function"
    },
    {
      "inputs": [
        {
          "internalType": "string",
          "name": "fromChainName",
          "type": "string"
        },
        {
          "internalType": "uint256",
          "name": "startingCounter",
          "type": "uint256"
        },
        {
          "components": [
            {
              "internalType": "address",
              "name": "sender",
              "type": "address"
            },
            {
              "internalType": "address",
              "name": "destinationContract",
              "type": "address"
            },
            {
              "internalType": "bytes",
              "name": "data",
              "type": "bytes"
            }
          ],
          "internalType": "struct MessageProxyForSchain.Message[]",
          "name": "messages",
          "type": "tuple[]"
        },
        {
          "components": [
            {
              "internalType": "uint256[2]",
              "name": "blsSignature",
              "type": "uint256[2]"
            },
            {
              "internalType": "uint256",
              "name": "hashA",
              "type": "uint256"
            },
            {
              "internalType": "uint256",
              "name": "hashB",
              "type": "uint256"
            },
            {
              "internalType": "uint256",
              "name": "counter",
              "type": "uint256"
            }
          ],
          "internalType": "struct MessageProxyForSchain.Signature",
          "name": "signature",
          "type": "tuple"
        },
        {
          "internalType": "uint256",
          "name": "idxLastToPopNotIncluding",
          "type": "uint256"
        }
      ],
      "name": "postIncomingMessages",
      "outputs": [],
      "stateMutability": "nonpayable",
      "type": "function"
    },
    {
      "inputs": [
        {
          "internalType": "bytes32",
          "name": "targetChainHash",
          "type": "bytes32"
        },
        {
          "internalType": "address",
          "name": "dstContract",
          "type": "address"
        },
        {
          "internalType": "bytes",
          "name": "data",
          "type": "bytes"
        }
      ],
      "name": "postOutgoingMessage",
      "outputs": [],
      "stateMutability": "nonpayable",
      "type": "function"
    },
    {
      "inputs": [
        {
          "internalType": "string",
          "name": "schainName",
          "type": "string"
        },
        {
          "internalType": "address",
          "name": "contractOnSchain",
          "type": "address"
        }
      ],
      "name": "registerExtraContract",
      "outputs": [],
      "stateMutability": "nonpayable",
      "type": "function"
    },
    {
      "inputs": [
        {
          "internalType": "address",
          "name": "contractOnSchain",
          "type": "address"
        }
      ],
      "name": "registerExtraContractForAll",
      "outputs": [],
      "stateMutability": "nonpayable",
      "type": "function"
    },
    {
      "inputs": [
        {
          "internalType": "bytes32",
          "name": "",
          "type": "bytes32"
        },
        {
          "internalType": "address",
          "name": "",
          "type": "address"
        }
      ],
      "name": "registryContracts",
      "outputs": [
        {
          "internalType": "bool",
          "name": "",
          "type": "bool"
        }
      ],
      "stateMutability": "view",
      "type": "function"
    },
    {
      "inputs": [
        {
          "internalType": "string",
          "name": "schainName",
          "type": "string"
        }
      ],
      "name": "removeConnectedChain",
      "outputs": [],
      "stateMutability": "nonpayable",
      "type": "function"
    },
    {
      "inputs": [
        {
          "internalType": "string",
          "name": "schainName",
          "type": "string"
        },
        {
          "internalType": "address",
          "name": "contractOnSchain",
          "type": "address"
        }
      ],
      "name": "removeExtraContract",
      "outputs": [],
      "stateMutability": "nonpayable",
      "type": "function"
    },
    {
      "inputs": [
        {
          "internalType": "address",
          "name": "contractOnSchain",
          "type": "address"
        }
      ],
      "name": "removeExtraContractForAll",
      "outputs": [],
      "stateMutability": "nonpayable",
      "type": "function"
    },
    {
      "inputs": [
        {
          "internalType": "bytes32",
          "name": "role",
          "type": "bytes32"
        },
        {
          "internalType": "address",
          "name": "account",
          "type": "address"
        }
      ],
      "name": "renounceRole",
      "outputs": [],
      "stateMutability": "nonpayable",
      "type": "function"
    },
    {
      "inputs": [
        {
          "internalType": "bytes32",
          "name": "role",
          "type": "bytes32"
        },
        {
          "internalType": "address",
          "name": "account",
          "type": "address"
        }
      ],
      "name": "revokeRole",
      "outputs": [],
      "stateMutability": "nonpayable",
      "type": "function"
    },
    {
      "inputs": [],
      "name": "schainHash",
      "outputs": [
        {
          "internalType": "bytes32",
          "name": "",
          "type": "bytes32"
        }
      ],
      "stateMutability": "view",
      "type": "function"
    },
    {
      "inputs": [
        {
          "internalType": "uint256",
          "name": "newGasLimit",
          "type": "uint256"
        }
      ],
      "name": "setNewGasLimit",
      "outputs": [],
      "stateMutability": "nonpayable",
      "type": "function"
    },
    {
      "inputs": [
        {
          "components": [
            {
              "internalType": "bytes32",
              "name": "dstChain",
              "type": "bytes32"
            },
            {
              "internalType": "uint256",
              "name": "msgCounter",
              "type": "uint256"
            },
            {
              "internalType": "address",
              "name": "srcContract",
              "type": "address"
            },
            {
              "internalType": "address",
              "name": "dstContract",
              "type": "address"
            },
            {
              "internalType": "bytes",
              "name": "data",
              "type": "bytes"
            }
          ],
          "internalType": "struct MessageProxyForSchain.OutgoingMessageData",
          "name": "message",
          "type": "tuple"
        }
      ],
      "name": "verifyOutgoingMessageData",
      "outputs": [
        {
          "internalType": "bool",
          "name": "isValidMessage",
          "type": "bool"
        }
      ],
      "stateMutability": "view",
      "type": "function"
    }
  ],
  "bytecode": "0x608060405234801561001057600080fd5b50613281806100206000396000f3fe608060405234801561001057600080fd5b50600436106101e55760003560e01c8063944892021161010f578063d547741f116100a2578063f399e22e11610071578063f399e22e146103f5578063f68016b714610408578063f79f795414610410578063f8c88a1614610418576101e5565b8063d547741f1461039a578063e356a6f9146103ad578063e6ab8403146103c0578063f2f63605146103e2576101e5565b8063a8bb1b7d116100de578063a8bb1b7d14610359578063bbc4e8c21461036c578063ca15c87314610374578063cab010c914610387576101e5565b80639448920214610318578063999ab9aa1461032b578063a217fddf1461033e578063a78868c814610346576101e5565b80634d203859116101875780637aa38a7c116101565780637aa38a7c146102b25780637c5ad80c146102d25780639010d07c146102e557806391d1485414610305576101e5565b80634d20385914610271578063523c8ab61461028457806367ec60201461028c57806377fe0f311461029f576101e5565b806336568abe116101c357806336568abe146102305780633b597ffe146102435780633b690b6b146102565780633cdd2cc31461025e576101e5565b806313c52260146101ea578063248a9ca3146102085780632f2ff15d1461021b575b600080fd5b6101f261042b565b6040516101ff9190612834565b60405180910390f35b6101f26102163660046123cc565b61044f565b61022e6102293660046123e4565b610464565b005b61022e61023e3660046123e4565b6104b5565b61022e6102513660046123cc565b6104f7565b6101f2610542565b61022e61026c3660046124dc565b610548565b61022e61027f366004612394565b610658565b6101f2610731565b6101f261029a3660046124dc565b610743565b6101f26102ad3660046124dc565b6107b0565b6102c56102c0366004612671565b610818565b6040516101ff9190612829565b6102c56102e03660046123e4565b610852565b6102f86102f336600461246d565b610872565b6040516101ff91906127f1565b6102c56103133660046123e4565b610891565b61022e610326366004612413565b6108a9565b6102c56103393660046124dc565b6109e4565b6101f2610a30565b61022e610354366004612571565b610a35565b61022e610367366004612394565b610b6c565b6101f2610c41565b6101f26103823660046123cc565b610c65565b61022e61039536600461251c565b610c7c565b61022e6103a83660046123e4565b610d7f565b6102c56103bb36600461251c565b610db9565b6103d36103ce3660046123cc565b610e18565b6040516101ff93929190613066565b61022e6103f03660046124dc565b610e3c565b61022e61040336600461248e565b610f55565b6101f26110b2565b6102f86110b8565b61022e61042636600461251c565b6110c7565b7f2785f35fe7d8743aa971942d8474737bb31895d396eff2cc688a481e0221e19181565b60009081526033602052604090206002015490565b600082815260336020526040902060020154610482906103136111c6565b6104a75760405162461bcd60e51b815260040161049e9061295f565b60405180910390fd5b6104b182826111cb565b5050565b6104bd6111c6565b6001600160a01b0316816001600160a01b0316146104ed5760405162461bcd60e51b815260040161049e90613017565b6104b18282611234565b6105217f96e3fc3be15159903e053027cff8a23f39a990e0194abcd8ac1cf1b355b8b93c33610891565b61053d5760405162461bcd60e51b815260040161049e90612a84565b606c55565b60665481565b6105727f2785f35fe7d8743aa971942d8474737bb31895d396eff2cc688a481e0221e19133610891565b61058e5760405162461bcd60e51b815260040161049e90612aca565b600082826040516020016105a39291906127b2565b6040516020818303038152906040528051906020012090506040516020016105ca906127de565b604051602081830303815290604052805190602001208114156105ff5760405162461bcd60e51b815260040161049e90612fce565b60008181526067602052604090206002015460ff166106305760405162461bcd60e51b815260040161049e90612e97565b60009081526067602052604081208181556001810191909155600201805460ff191690555050565b6106706000805160206131ec83398151915233610891565b61068c5760405162461bcd60e51b815260040161049e906129ae565b61069e816001600160a01b031661129d565b6106ba5760405162461bcd60e51b815260040161049e90612ef6565b6001600160a01b038116600090815260008051602061322c833981519152602052604090205460ff16156107005760405162461bcd60e51b815260040161049e90612f8a565b6001600160a01b0316600090815260008051602061322c83398151915260205260409020805460ff19166001179055565b6000805160206131ec83398151915281565b60008083836040516020016107599291906127b2565b60408051601f1981840301815291815281516020928301206000818152606790935291206002015490915060ff166107955760009150506107aa565b60009081526067602052604090206001015490505b92915050565b60008083836040516020016107c69291906127b2565b60408051601f1981840301815291815281516020928301206000818152606790935291206002015490915060ff166108025760009150506107aa565b6000908152606760205260409020549392505050565b80516000908152606860209081526040808320828501518452909152812054610840836112a3565b81141561084c57600191505b50919050565b606b60209081526000928352604080842090915290825290205460ff1681565b600082815260336020526040812061088a9083611310565b9392505050565b600082815260336020526040812061088a908361131c565b60008481526067602052604090206002015460ff166108da5760405162461bcd60e51b815260040161049e90612df7565b33600090815260008051602061322c833981519152602052604090205460ff168061091e57506000848152606b6020908152604080832033845290915290205460ff165b61093a5760405162461bcd60e51b815260040161049e90612a43565b600084815260676020526040902060019081015461095791611331565b6000858152606760208181526040808420600101859055805160a081018252898152938990529181526000199093018284015233828201526001600160a01b03861660608301528051601f85018490048402810184019091528381526109de9260808301919086908690819084018382808284376000920191909152505050915250611356565b50505050565b60006067600084846040516020016109fd9291906127b2565b60408051808303601f190181529181528151602092830120835290820192909252016000206002015460ff169392505050565b600081565b60008787604051602001610a4a9291906127b2565b604051602081830303815290604052805190602001209050610a75610a6f8686611408565b846114f7565b610a915760405162461bcd60e51b815260040161049e90612c15565b60008181526067602052604090206002015460ff16610ac25760405162461bcd60e51b815260040161049e90612e97565b6000818152606760205260409020548614610aef5760405162461bcd60e51b815260040161049e90612cfb565b60005b84811015610b2e57610b2582878784818110610b0a57fe5b9050602002810190610b1c91906130c3565b896001016115a4565b50600101610af2565b50600081815260676020526040902054610b489085611331565b600082815260676020526040902055610b618183611712565b505050505050505050565b610b846000805160206131ec83398151915233610891565b610ba05760405162461bcd60e51b815260040161049e90612f2d565b610bb2816001600160a01b031661129d565b610bce5760405162461bcd60e51b815260040161049e90612ef6565b6001600160a01b038116600090815260008051602061322c833981519152602052604090205460ff16610c135760405162461bcd60e51b815260040161049e90612c83565b6001600160a01b0316600090815260008051602061322c83398151915260205260409020805460ff19169055565b7f96e3fc3be15159903e053027cff8a23f39a990e0194abcd8ac1cf1b355b8b93c81565b60008181526033602052604081206107aa9061179e565b60008383604051602001610c919291906127b2565b604051602081830303815290604052805190602001209050610cc16000805160206131ec83398151915233610891565b610cdd5760405162461bcd60e51b815260040161049e90612d58565b610cef826001600160a01b031661129d565b610d0b5760405162461bcd60e51b815260040161049e90612ef6565b6000818152606b602090815260408083206001600160a01b038616845290915290205460ff1615610d4e5760405162461bcd60e51b815260040161049e90612f8a565b6000908152606b602090815260408083206001600160a01b03909416835292905220805460ff191660011790555050565b600082815260336020526040902060020154610d9d906103136111c6565b6104ed5760405162461bcd60e51b815260040161049e90612bc5565b6000606b60008585604051602001610dd29291906127b2565b60408051601f19818403018152918152815160209283012083528282019390935290820160009081206001600160a01b0386168252909152205460ff1690509392505050565b60676020526000908152604090208054600182015460029092015490919060ff1683565b610e667f2785f35fe7d8743aa971942d8474737bb31895d396eff2cc688a481e0221e19133610891565b610e825760405162461bcd60e51b815260040161049e90612aca565b60008282604051602001610e979291906127b2565b604051602081830303815290604052805190602001209050606654811415610ed15760405162461bcd60e51b815260040161049e90612928565b60008181526067602052604090206002015460ff1615610f035760405162461bcd60e51b815260040161049e90612c4c565b604080516060810182526000808252602080830182815260018486018181529684526067909252939091209151825591519181019190915590516002909101805460ff19169115159190911790555050565b600054610100900460ff1680610f6e5750610f6e6117a9565b80610f7c575060005460ff16155b610f985760405162461bcd60e51b815260040161049e90612da9565b600054610100900460ff16158015610fc3576000805460ff1961ff0019909116610100171660011790555b610fcb6117ba565b610fd66000336104a7565b606580546001600160a01b0319166001600160a01b03851617905560408051606081018252600080825260208083018290526001838501529251919260679261101f91016127de565b60408051808303601f19018152918152815160209283012083528282019390935290820160002083518155838201516001820155928201516002909301805460ff19169315159390931790925551611079918491016127c2565b60408051601f198184030181529190528051602090910120606655622dc6c0606c5580156110ad576000805461ff00191690555b505050565b606c5481565b6065546001600160a01b031681565b600083836040516020016110dc9291906127b2565b60405160208183030381529060405280519060200120905061110c6000805160206131ec83398151915233610891565b6111285760405162461bcd60e51b815260040161049e906128d9565b61113a826001600160a01b031661129d565b6111565760405162461bcd60e51b815260040161049e90612ef6565b6000818152606b602090815260408083206001600160a01b038616845290915290205460ff166111985760405162461bcd60e51b815260040161049e90612c83565b6000908152606b602090815260408083206001600160a01b03909416835292905220805460ff191690555050565b335b90565b60008281526033602052604090206111e3908261184d565b156104b1576111f06111c6565b6001600160a01b0316816001600160a01b0316837f2f8788117e7eff1d82e926ec794901d17c78024a50270940304540a733656f0d60405160405180910390a45050565b600082815260336020526040902061124c9082611862565b156104b1576112596111c6565b6001600160a01b0316816001600160a01b0316837ff6391f5c32d9c69d2a47ea670b442974b53935d1edc7fd64eb21e047a839171b60405160405180910390a45050565b3b151590565b600060608260000151836020015160001b846040015160601b6001600160601b031916856060015160601b6001600160601b03191686608001516040516020016112f1959493929190612740565b60408051808303601f1901815291905280516020909101209392505050565b600061088a8383611877565b600061088a836001600160a01b0384166118bc565b60008282018381101561088a5760405162461bcd60e51b815260040161049e90612a0c565b60008160000151905081604001516001600160a01b03168260200151827f803d7f3ca0e5f93fcce39fa29812ed57a95a151594966e17125220132741c6b0856060015186608001516040516113ac929190612805565b60405180910390a46113bd826112a3565b6000828152606860209081526040808320606a80845282852080548652918452918420949094559184905252546113f5906001611331565b6000918252606a60205260409091205550565b6000606060005b838110156114e7578185858381811061142457fe5b905060200281019061143691906130c3565b611444906020810190612394565b60601b6001600160601b03191686868481811061145d57fe5b905060200281019061146f91906130c3565b611480906040810190602001612394565b60601b6001600160601b03191687878581811061149957fe5b90506020028101906114ab91906130c3565b6114b990604081019061307e565b6040516020016114cd95949392919061277b565b60408051601f19818403018152919052915060010161140f565b5080516020909101209392505050565b60408051808201825282358152602080840135908201526065548251632aa77bd360e11b8152835160009461088a949388936080808a013594938a01359360608b0135936001600160a01b03169263554ef7a6926004808301939192829003018186803b15801561156757600080fd5b505afa15801561157b573d6000803e3d6000fd5b505050506040513d601f19601f8201168201806040525081019061159f9190612631565b6118d4565b60006115b66040840160208501612394565b6001600160a01b031663884cee5a606c54868660000160208101906115db9190612394565b6115e8604089018961307e565b6040518663ffffffff1660e01b8152600401611607949392919061283d565b602060405180830381600088803b15801561162157600080fd5b5087f193505050508015611652575060408051601f3d908101601f1916820190925261164f918101906123b0565b60015b61170b5761165e613131565b8061166957506116ab565b827f4b7d3908626050c0d998d657e4e6f31cb43ed736bf2b9a1a0192494537ca0e59826040516116999190612884565b60405180910390a2600091505061088a565b3d8080156116d5576040519150601f19603f3d011682016040523d82523d6000602084013e6116da565b606091505b50827f4b7d3908626050c0d998d657e4e6f31cb43ed736bf2b9a1a0192494537ca0e59826040516116999190612884565b905061088a565b6000828152606a602090815260408083205460699092528220545b838110156117675781811061174157611767565b60008581526068602090815260408083208484529091528120556001928301920161172d565b508115611797576000848152606960205260409020546117879083611331565b6000858152606960205260409020555b5092915050565b60006107aa82611a12565b60006117b43061129d565b15905090565b600054610100900460ff16806117d357506117d36117a9565b806117e1575060005460ff16155b6117fd5760405162461bcd60e51b815260040161049e90612da9565b600054610100900460ff16158015611828576000805460ff1961ff0019909116610100171660011790555b611830611a16565b611838611a16565b801561184a576000805461ff00191690555b50565b600061088a836001600160a01b038416611a97565b600061088a836001600160a01b038416611ae1565b8154600090821061189a5760405162461bcd60e51b815260040161049e90612897565b8260000182815481106118a957fe5b9060005260206000200154905092915050565b60009081526001919091016020526040902054151590565b60006118df87611ba7565b6118fb5760405162461bcd60e51b815260040161049e90612b36565b61190786868686611bdd565b61191357506000611a08565b60006119228860200151611cb1565b9050611932886000015182611cd5565b61194e5760405162461bcd60e51b815260040161049e90612ece565b6119588585611cd5565b6119745760405162461bcd60e51b815260040161049e90612b66565b61197c61221b565b611984611d05565b905061198f84611dc5565b6119ab5760405162461bcd60e51b815260040161049e90612e69565b611a038960000151838360000151602001518460000151600001518560200151602001518660200151600001518c8c8c60000151602001518d60000151600001518e60200151602001518f6020015160000151611dd9565b925050505b9695505050505050565b5490565b600054610100900460ff1680611a2f5750611a2f6117a9565b80611a3d575060005460ff16155b611a595760405162461bcd60e51b815260040161049e90612da9565b600054610100900460ff16158015611838576000805460ff1961ff001990911661010017166001179055801561184a576000805461ff001916905550565b6000611aa383836118bc565b611ad9575081546001818101845560008481526020808220909301849055845484825282860190935260409020919091556107aa565b5060006107aa565b60008181526001830160205260408120548015611b9d5783546000198083019190810190600090879083908110611b1457fe5b9060005260206000200154905080876000018481548110611b3157fe5b600091825260208083209091019290925582815260018981019092526040902090840190558654879080611b6157fe5b600190038181906000526020600020016000905590558660010160008781526020019081526020016000206000905560019450505050506107aa565b60009150506107aa565b600060008051602061320c83398151915282600001511080156107aa5750506020015160008051602061320c8339815191521190565b60006064841115611bf057506000611ca9565b60008051602061320c83398151915280860690611c0d8287611331565b81611c1457fe5b069050600060008051602061320c833981519152600360008051602061320c8339815191528460008051602061320c83398151915286870909089050611c6960008051602061320c8339815191526002611e82565b841080611c8757508060008051602061320c83398151915285860914155b80611c925750848214155b15611ca257600092505050611ca9565b6001925050505b949350505050565b60006107aa60008051602061320c833981519152611ccf8185611eb4565b90611edc565b600060008051602061320c83398151915280600381868188890909088180611cf957fe5b84850914949350505050565b611d0d61221b565b50604080516080810182527f1800deef121f1e76426a00665e5c4479674322d4f75edadd46debd5cd992f6ed8183019081527f198e9393920d483a7260bfb731fb5d25f1aa493335a9e71297e485b7aef312c26060830152815281518083019092527f12c85ea5db8c6deb4aab71808dcb408fe3d1e7690c43d37b4ce6cc0166fa7daa82527f090689d0585ff075ec9e99ad690c3395bc4b313370b38ef355acdadcd122975b60208381019190915281019190915290565b60006107aa82600001518360200151611f0e565b600080611de4612240565b8e8152602081018e9052604081018d9052606081018c9052608081018b905260a081018a905260c0810189905260e081018890526101008101879052610120810186905261014081018590526101608101849052611e4061225f565b602081610180846008600019fa925082611e6c5760405162461bcd60e51b815260040161049e90612e3b565b5115159f9e505050505050505050505050505050565b6000808211611ea35760405162461bcd60e51b815260040161049e90612b8e565b818381611eac57fe5b049392505050565b600082821115611ed65760405162461bcd60e51b815260040161049e90612aff565b50900390565b6000808211611efd5760405162461bcd60e51b815260040161049e90612cc4565b818381611f0657fe5b069392505050565b6000611f1a8383611f8d565b15611f27575060016107aa565b611f2f61227d565b611f3883611fc0565b9050611f4261227d565b611f70611f4d612045565b611f6a611f6388611f5d8a611fc0565b906120a3565b8590612167565b90612167565b8051909150158015611f8457506020810151155b95945050505050565b8151600090158015611fa157506020830151155b8015611fae575081516001145b801561088a5750506020015115919050565b611fc861227d565b60008051602061320c8339815191526000816020850151855109905060008280611fee57fe5b8380611ff657fe5b8480611ffe57fe5b87602001516001870309875108848061201357fe5b60208801518851080990506040518060400160405280828152602001848061203757fe5b848508905295945050505050565b61204d61227d565b50604080518082019091527f2b149d40ceb8aaae81be18991be06ac3b5b4c5e559dbefa33267e6dc24a138e581527e9713b03af0fed4cd2cafadeed8fdf4a74fa084e52d1852e4a2bd0685c315d2602082015290565b6120ab61227d565b60008051602061320c8339815191526120c261227d565b604051806040016040528083806120d557fe5b8651885109815260200183806120e757fe5b86602001518860200151099052905081806120fe57fe5b828061210657fe5b826020015160018503098251088352818061211d57fe5b828061212557fe5b60208301518351088303838061213757fe5b848061213f57fe5b6020880151885108858061214f57fe5b60208a01518a51080908602084015250909392505050565b61216f61227d565b8151835160008051602061320c83398151915291116121a057808061219057fe5b83518551908303900882526121c0565b6121bd8182806121ac57fe5b865186519085039008830390611edc565b82525b82602001518460200151106121ee5780806121d757fe5b836020015182038560200151086020830152611797565b61220f8182806121fa57fe5b86602001518403866020015108830390611edc565b60208301525092915050565b604051806040016040528061222e61227d565b815260200161223b61227d565b905290565b604051806101800160405280600c906020820280368337509192915050565b60405180602001604052806001906020820280368337509192915050565b604051806040016040528060008152602001600081525090565b80356107aa816131d6565b60008083601f8401126122b3578182fd5b50813567ffffffffffffffff8111156122ca578182fd5b6020830191508360208285010111156122e257600080fd5b9250929050565b600082601f8301126122f9578081fd5b813567ffffffffffffffff81111561230f578182fd5b612322601f8201601f19166020016130d8565b915080825283602082850101111561233957600080fd5b8060208401602084013760009082016020015292915050565b600060408284031215612363578081fd5b61236d60406130d8565b9050815181526020820151602082015292915050565b600060a0828403121561084c578081fd5b6000602082840312156123a5578081fd5b813561088a816131d6565b6000602082840312156123c1578081fd5b815161088a816131d6565b6000602082840312156123dd578081fd5b5035919050565b600080604083850312156123f6578081fd5b823591506020830135612408816131d6565b809150509250929050565b60008060008060608587031215612428578182fd5b84359350602085013561243a816131d6565b9250604085013567ffffffffffffffff811115612455578283fd5b612461878288016122a2565b95989497509550505050565b6000806040838503121561247f578182fd5b50508035926020909101359150565b600080604083850312156124a0578182fd5b82356124ab816131d6565b9150602083013567ffffffffffffffff8111156124c6578182fd5b6124d2858286016122e9565b9150509250929050565b600080602083850312156124ee578182fd5b823567ffffffffffffffff811115612504578283fd5b612510858286016122a2565b90969095509350505050565b600080600060408486031215612530578283fd5b833567ffffffffffffffff811115612546578384fd5b612552868287016122a2565b9094509250506020840135612566816131d6565b809150509250925092565b6000806000806000806000610120888a03121561258c578485fd5b873567ffffffffffffffff808211156125a3578687fd5b6125af8b838c016122a2565b909950975060208a0135965060408a01359150808211156125ce578485fd5b818a0191508a601f8301126125e1578485fd5b8135818111156125ef578586fd5b8b60208083028501011115612602578586fd5b60208301965080955050505061261b8960608a01612383565b9150610100880135905092959891949750929550565b600060808284031215612642578081fd5b61264c60406130d8565b6126568484612352565b81526126658460408501612352565b60208201529392505050565b600060208284031215612682578081fd5b813567ffffffffffffffff80821115612699578283fd5b9083019060a082860312156126ac578283fd5b6126b660a06130d8565b82358152602083013560208201526126d18660408501612297565b60408201526126e38660608501612297565b60608201526080830135828111156126f9578485fd5b612705878286016122e9565b60808301525095945050505050565b6000815180845261272c8160208601602086016130ff565b601f01601f19169290920160200192915050565b6000868252856020830152846040830152836060830152825161276a8160808501602087016130ff565b919091016080019695505050505050565b6000865161278d818460208b016130ff565b8201868152602081018690528385604083013790920160400191825250949350505050565b6000828483379101908152919050565b600082516127d48184602087016130ff565b9190910192915050565b6613585a5b9b995d60ca1b815260070190565b6001600160a01b0391909116815260200190565b6001600160a01b0383168152604060208201819052600090611ca990830184612714565b901515815260200190565b90815260200190565b8481526001600160a01b03841660208201526060604082018190528101829052600082846080840137818301608090810191909152601f909201601f191601019392505050565b60006020825261088a6020830184612714565b60208082526022908201527f456e756d657261626c655365743a20696e646578206f7574206f6620626f756e604082015261647360f01b606082015260800190565b6020808252602f908201527f4e6f7420656e6f756768207065726d697373696f6e7320746f2072656d6f766560408201526e08195e1d1c984818dbdb9d1c9858dd608a1b606082015260800190565b6020808252601c908201527f53636861696e2063616e6e6f7420636f6e6e65637420697473656c6600000000604082015260600190565b6020808252602f908201527f416363657373436f6e74726f6c3a2073656e646572206d75737420626520616e60408201526e0818591b5a5b881d1bc819dc985b9d608a1b606082015260800190565b602080825260409082018190527f4e6f7420656e6f756768207065726d697373696f6e7320746f20726567697374908201527f657220657874726120636f6e747261637420666f7220616c6c20636861696e73606082015260800190565b6020808252601b908201527f536166654d6174683a206164646974696f6e206f766572666c6f770000000000604082015260600190565b60208082526021908201527f53656e64657220636f6e7472616374206973206e6f74207265676973746572656040820152601960fa1b606082015260800190565b60208082526026908201527f4e6f7420656e6f756768207065726d697373696f6e7320746f2073657420636f6040820152651b9cdd185b9d60d21b606082015260800190565b6020808252818101527f434841494e5f434f4e4e4543544f525f524f4c45206973207265717569726564604082015260600190565b6020808252601e908201527f536166654d6174683a207375627472616374696f6e206f766572666c6f770000604082015260600190565b60208082526016908201527514da59db985d1d5c99481a5cc81b9bdd081d985b1a5960521b604082015260600190565b6020808252600e908201526d48617368206e6f7420696e20473160901b604082015260600190565b6020808252601a908201527f536166654d6174683a206469766973696f6e206279207a65726f000000000000604082015260600190565b60208082526030908201527f416363657373436f6e74726f6c3a2073656e646572206d75737420626520616e60408201526f2061646d696e20746f207265766f6b6560801b606082015260800190565b60208082526019908201527f5369676e6174757265206973206e6f7420766572696669656400000000000000604082015260600190565b6020808252601a908201527f436861696e20697320616c726561647920636f6e6e6563746564000000000000604082015260600190565b60208082526021908201527f457874726120636f6e747261637420697320616c72656164792072656d6f76656040820152601960fa1b606082015260800190565b60208082526018908201527f536166654d6174683a206d6f64756c6f206279207a65726f0000000000000000604082015260600190565b60208082526038908201527f5374617274696e6720636f756e746572206973206e6f74207175616c20746f2060408201527f696e636f6d696e67206d65737361676520636f756e7465720000000000000000606082015260800190565b60208082526031908201527f4e6f7420656e6f756768207065726d697373696f6e7320746f20726567697374604082015270195c88195e1d1c984818dbdb9d1c9858dd607a1b606082015260800190565b6020808252602e908201527f496e697469616c697a61626c653a20636f6e747261637420697320616c72656160408201526d191e481a5b9a5d1a585b1a5e995960921b606082015260800190565b60208082526024908201527f44657374696e6174696f6e20636861696e206973206e6f7420696e697469616c6040820152631a5e995960e21b606082015260800190565b60208082526014908201527314185a5c9a5b99c818da1958dac819985a5b195960621b604082015260600190565b602080825260149082015273283ab13634b19025b2bc903737ba1034b710239960611b604082015260600190565b60208082526018908201527f436861696e206973206e6f7420696e697469616c697a65640000000000000000604082015260600190565b6020808252600e908201526d5369676e206e6f7420696e20473160901b604082015260600190565b6020808252601f908201527f476976656e2061646472657373206973206e6f74206120636f6e747261637400604082015260600190565b6020808252603e908201527f4e6f7420656e6f756768207065726d697373696f6e7320746f2072656d6f766560408201527f20657874726120636f6e747261637420666f7220616c6c20636861696e730000606082015260800190565b60208082526024908201527f457874726120636f6e747261637420697320616c726561647920726567697374604082015263195c995960e21b606082015260800190565b60208082526029908201527f4e657720636861696e20686173682063616e6e6f7420626520657175616c20746040820152681bc813585a5b9b995d60ba1b606082015260800190565b6020808252602f908201527f416363657373436f6e74726f6c3a2063616e206f6e6c792072656e6f756e636560408201526e103937b632b9903337b91039b2b63360891b606082015260800190565b92835260208301919091521515604082015260600190565b6000808335601e19843603018112613094578283fd5b83018035915067ffffffffffffffff8211156130ae578283fd5b6020019150368190038213156122e257600080fd5b60008235605e198336030181126127d4578182fd5b60405181810167ffffffffffffffff811182821017156130f757600080fd5b604052919050565b60005b8381101561311a578181015183820152602001613102565b838111156109de5750506000910152565b60e01c90565b600060443d1015613141576111c8565b600481823e6308c379a0613155825161312b565b1461315f576111c8565b6040513d600319016004823e80513d67ffffffffffffffff816024840111818411171561318f57505050506111c8565b828401925082519150808211156131a957505050506111c8565b503d830160208284010111156131c1575050506111c8565b601f01601f1916810160200160405291505090565b6001600160a01b038116811461184a57600080fdfe6155b5aac15ce9aa193c0527a6f43be0a36a7e2e7496c2b615c0e5f92284277330644e72e131a029b85045b68181585d97816a916871ca8d3c208c16d87cfd47c8cc8bda7ad4886bea3ebbdafa02e79d37c39bf4011696b26a31a0802fd9458ba264697066735822122024199027eb2b3d6d8a46bd99f7ee4e2a78cfc0f142136f173b9b570456cbd0c764736f6c634300060c0033",
  "linkReferences": {},
  "deployedLinkReferences": {}
}