{
  "_format": "hh-sol-artifact-1",
  "contractName": "TokenManagerERC20",
  "sourceName": "contracts/schain/TokenManagers/TokenManagerERC20.sol",
  "abi": [
    {
      "anonymous": false,
      "inputs": [
        {
          "indexed": true,
          "internalType": "address",
          "name": "erc20OnMainnet",
          "type": "address"
        },
        {
          "indexed": true,
          "internalType": "address",
          "name": "erc20OnSchain",
          "type": "address"
        }
      ],
      "name": "ERC20TokenAdded",
      "type": "event"
    },
    {
      "anonymous": false,
      "inputs": [
        {
          "indexed": true,
          "internalType": "address",
          "name": "erc20OnMainnet",
          "type": "address"
        },
        {
          "indexed": true,
          "internalType": "address",
          "name": "erc20OnSchain",
          "type": "address"
        }
      ],
      "name": "ERC20TokenCreated",
      "type": "event"
    },
    {
      "anonymous": false,
      "inputs": [
        {
          "indexed": true,
          "internalType": "address",
          "name": "erc20OnMainnet",
          "type": "address"
        },
        {
          "indexed": true,
          "internalType": "address",
          "name": "erc20OnSchain",
          "type": "address"
        },
        {
          "indexed": false,
          "internalType": "uint256",
          "name": "amount",
          "type": "uint256"
        }
      ],
      "name": "ERC20TokenReceived",
      "type": "event"
    },
    {
      "anonymous": false,
      "inputs": [
        {
          "indexed": true,
          "internalType": "bytes32",
          "name": "role",
          "type": "bytes32"
        },
        {
          "indexed": true,
          "internalType": "bytes32",
          "name": "previousAdminRole",
          "type": "bytes32"
        },
        {
          "indexed": true,
          "internalType": "bytes32",
          "name": "newAdminRole",
          "type": "bytes32"
        }
      ],
      "name": "RoleAdminChanged",
      "type": "event"
    },
    {
      "anonymous": false,
      "inputs": [
        {
          "indexed": true,
          "internalType": "bytes32",
          "name": "role",
          "type": "bytes32"
        },
        {
          "indexed": true,
          "internalType": "address",
          "name": "account",
          "type": "address"
        },
        {
          "indexed": true,
          "internalType": "address",
          "name": "sender",
          "type": "address"
        }
      ],
      "name": "RoleGranted",
      "type": "event"
    },
    {
      "anonymous": false,
      "inputs": [
        {
          "indexed": true,
          "internalType": "bytes32",
          "name": "role",
          "type": "bytes32"
        },
        {
          "indexed": true,
          "internalType": "address",
          "name": "account",
          "type": "address"
        },
        {
          "indexed": true,
          "internalType": "address",
          "name": "sender",
          "type": "address"
        }
      ],
      "name": "RoleRevoked",
      "type": "event"
    },
    {
      "inputs": [],
      "name": "AUTOMATIC_DEPLOY_ROLE",
      "outputs": [
        {
          "internalType": "bytes32",
          "name": "",
          "type": "bytes32"
        }
      ],
      "stateMutability": "view",
      "type": "function"
    },
    {
      "inputs": [],
      "name": "DEFAULT_ADMIN_ROLE",
      "outputs": [
        {
          "internalType": "bytes32",
          "name": "",
          "type": "bytes32"
        }
      ],
      "stateMutability": "view",
      "type": "function"
    },
    {
      "inputs": [],
      "name": "MAINNET_HASH",
      "outputs": [
        {
          "internalType": "bytes32",
          "name": "",
          "type": "bytes32"
        }
      ],
      "stateMutability": "view",
      "type": "function"
    },
    {
      "inputs": [],
      "name": "MAINNET_NAME",
      "outputs": [
        {
          "internalType": "string",
          "name": "",
          "type": "string"
        }
      ],
      "stateMutability": "view",
      "type": "function"
    },
    {
      "inputs": [],
      "name": "TOKEN_REGISTRAR_ROLE",
      "outputs": [
        {
          "internalType": "bytes32",
          "name": "",
          "type": "bytes32"
        }
      ],
      "stateMutability": "view",
      "type": "function"
    },
    {
      "inputs": [
        {
          "internalType": "address",
          "name": "erc20OnMainnet",
          "type": "address"
        },
        {
          "internalType": "contract ERC20OnChain",
          "name": "erc20OnSchain",
          "type": "address"
        }
      ],
      "name": "addERC20TokenByOwner",
      "outputs": [],
      "stateMutability": "nonpayable",
      "type": "function"
    },
    {
      "inputs": [
        {
          "internalType": "string",
          "name": "schainName",
          "type": "string"
        },
        {
          "internalType": "address",
          "name": "newTokenManager",
          "type": "address"
        }
      ],
      "name": "addTokenManager",
      "outputs": [],
      "stateMutability": "nonpayable",
      "type": "function"
    },
    {
      "inputs": [],
      "name": "automaticDeploy",
      "outputs": [
        {
          "internalType": "bool",
          "name": "",
          "type": "bool"
        }
      ],
      "stateMutability": "view",
      "type": "function"
    },
    {
      "inputs": [
        {
          "internalType": "address",
          "name": "newDepositBox",
          "type": "address"
        }
      ],
      "name": "changeDepositBoxAddress",
      "outputs": [],
      "stateMutability": "nonpayable",
      "type": "function"
    },
    {
      "inputs": [
        {
          "internalType": "address",
          "name": "",
          "type": "address"
        }
      ],
      "name": "clonesErc20",
      "outputs": [
        {
          "internalType": "contract ERC20OnChain",
          "name": "",
          "type": "address"
        }
      ],
      "stateMutability": "view",
      "type": "function"
    },
    {
      "inputs": [],
      "name": "communityLocker",
      "outputs": [
        {
          "internalType": "contract CommunityLocker",
          "name": "",
          "type": "address"
        }
      ],
      "stateMutability": "view",
      "type": "function"
    },
    {
      "inputs": [],
      "name": "depositBox",
      "outputs": [
        {
          "internalType": "address",
          "name": "",
          "type": "address"
        }
      ],
      "stateMutability": "view",
      "type": "function"
    },
    {
      "inputs": [],
      "name": "disableAutomaticDeploy",
      "outputs": [],
      "stateMutability": "nonpayable",
      "type": "function"
    },
    {
      "inputs": [],
      "name": "enableAutomaticDeploy",
      "outputs": [],
      "stateMutability": "nonpayable",
      "type": "function"
    },
    {
      "inputs": [
        {
          "internalType": "address",
          "name": "contractOnMainnet",
          "type": "address"
        },
        {
          "internalType": "address",
          "name": "to",
          "type": "address"
        },
        {
          "internalType": "uint256",
          "name": "amount",
          "type": "uint256"
        }
      ],
      "name": "exitToMainERC20",
      "outputs": [],
      "stateMutability": "nonpayable",
      "type": "function"
    },
    {
      "inputs": [
        {
          "internalType": "bytes32",
          "name": "role",
          "type": "bytes32"
        }
      ],
      "name": "getRoleAdmin",
      "outputs": [
        {
          "internalType": "bytes32",
          "name": "",
          "type": "bytes32"
        }
      ],
      "stateMutability": "view",
      "type": "function"
    },
    {
      "inputs": [
        {
          "internalType": "bytes32",
          "name": "role",
          "type": "bytes32"
        },
        {
          "internalType": "uint256",
          "name": "index",
          "type": "uint256"
        }
      ],
      "name": "getRoleMember",
      "outputs": [
        {
          "internalType": "address",
          "name": "",
          "type": "address"
        }
      ],
      "stateMutability": "view",
      "type": "function"
    },
    {
      "inputs": [
        {
          "internalType": "bytes32",
          "name": "role",
          "type": "bytes32"
        }
      ],
      "name": "getRoleMemberCount",
      "outputs": [
        {
          "internalType": "uint256",
          "name": "",
          "type": "uint256"
        }
      ],
      "stateMutability": "view",
      "type": "function"
    },
    {
      "inputs": [
        {
          "internalType": "bytes32",
          "name": "role",
          "type": "bytes32"
        },
        {
          "internalType": "address",
          "name": "account",
          "type": "address"
        }
      ],
      "name": "grantRole",
      "outputs": [],
      "stateMutability": "nonpayable",
      "type": "function"
    },
    {
      "inputs": [
        {
          "internalType": "bytes32",
          "name": "role",
          "type": "bytes32"
        },
        {
          "internalType": "address",
          "name": "account",
          "type": "address"
        }
      ],
      "name": "hasRole",
      "outputs": [
        {
          "internalType": "bool",
          "name": "",
          "type": "bool"
        }
      ],
      "stateMutability": "view",
      "type": "function"
    },
    {
      "inputs": [
        {
          "internalType": "string",
          "name": "schainName",
          "type": "string"
        }
      ],
      "name": "hasTokenManager",
      "outputs": [
        {
          "internalType": "bool",
          "name": "",
          "type": "bool"
        }
      ],
      "stateMutability": "view",
      "type": "function"
    },
    {
      "inputs": [
        {
          "internalType": "string",
          "name": "newChainName",
          "type": "string"
        },
        {
          "internalType": "contract MessageProxyForSchain",
          "name": "newMessageProxy",
          "type": "address"
        },
        {
          "internalType": "contract TokenManagerLinker",
          "name": "newIMALinker",
          "type": "address"
        },
        {
          "internalType": "contract CommunityLocker",
          "name": "newCommunityLocker",
          "type": "address"
        },
        {
          "internalType": "address",
          "name": "newDepositBox",
          "type": "address"
        }
      ],
      "name": "initialize",
      "outputs": [],
      "stateMutability": "nonpayable",
      "type": "function"
    },
    {
      "inputs": [
        {
          "internalType": "string",
          "name": "newSchainName",
          "type": "string"
        },
        {
          "internalType": "contract MessageProxyForSchain",
          "name": "newMessageProxy",
          "type": "address"
        },
        {
          "internalType": "contract TokenManagerLinker",
          "name": "newIMALinker",
          "type": "address"
        },
        {
          "internalType": "contract CommunityLocker",
          "name": "newCommunityLocker",
          "type": "address"
        },
        {
          "internalType": "address",
          "name": "newDepositBox",
          "type": "address"
        }
      ],
      "name": "initializeTokenManager",
      "outputs": [],
      "stateMutability": "nonpayable",
      "type": "function"
    },
    {
      "inputs": [],
      "name": "messageProxy",
      "outputs": [
        {
          "internalType": "contract MessageProxyForSchain",
          "name": "",
          "type": "address"
        }
      ],
      "stateMutability": "view",
      "type": "function"
    },
    {
      "inputs": [
        {
          "internalType": "bytes32",
          "name": "fromChainHash",
          "type": "bytes32"
        },
        {
          "internalType": "address",
          "name": "sender",
          "type": "address"
        },
        {
          "internalType": "bytes",
          "name": "data",
          "type": "bytes"
        }
      ],
      "name": "postMessage",
      "outputs": [
        {
          "internalType": "bool",
          "name": "",
          "type": "bool"
        }
      ],
      "stateMutability": "nonpayable",
      "type": "function"
    },
    {
      "inputs": [
        {
          "internalType": "string",
          "name": "schainName",
          "type": "string"
        }
      ],
      "name": "removeTokenManager",
      "outputs": [],
      "stateMutability": "nonpayable",
      "type": "function"
    },
    {
      "inputs": [
        {
          "internalType": "bytes32",
          "name": "role",
          "type": "bytes32"
        },
        {
          "internalType": "address",
          "name": "account",
          "type": "address"
        }
      ],
      "name": "renounceRole",
      "outputs": [],
      "stateMutability": "nonpayable",
      "type": "function"
    },
    {
      "inputs": [
        {
          "internalType": "bytes32",
          "name": "role",
          "type": "bytes32"
        },
        {
          "internalType": "address",
          "name": "account",
          "type": "address"
        }
      ],
      "name": "revokeRole",
      "outputs": [],
      "stateMutability": "nonpayable",
      "type": "function"
    },
    {
      "inputs": [],
      "name": "schainHash",
      "outputs": [
        {
          "internalType": "bytes32",
          "name": "",
          "type": "bytes32"
        }
      ],
      "stateMutability": "view",
      "type": "function"
    },
    {
      "inputs": [],
      "name": "tokenManagerLinker",
      "outputs": [
        {
          "internalType": "contract TokenManagerLinker",
          "name": "",
          "type": "address"
        }
      ],
      "stateMutability": "view",
      "type": "function"
    },
    {
      "inputs": [
        {
          "internalType": "bytes32",
          "name": "",
          "type": "bytes32"
        }
      ],
      "name": "tokenManagers",
      "outputs": [
        {
          "internalType": "address",
          "name": "",
          "type": "address"
        }
      ],
      "stateMutability": "view",
      "type": "function"
    },
    {
      "inputs": [
        {
          "internalType": "contract IERC20Upgradeable",
          "name": "",
          "type": "address"
        }
      ],
      "name": "totalSupplyOnMainnet",
      "outputs": [
        {
          "internalType": "uint256",
          "name": "",
          "type": "uint256"
        }
      ],
      "stateMutability": "view",
      "type": "function"
    },
    {
      "inputs": [
        {
          "internalType": "string",
          "name": "targetSchainName",
          "type": "string"
        },
        {
          "internalType": "address",
          "name": "contractOnMainnet",
          "type": "address"
        },
        {
          "internalType": "address",
          "name": "to",
          "type": "address"
        },
        {
          "internalType": "uint256",
          "name": "amount",
          "type": "uint256"
        }
      ],
      "name": "transferToSchainERC20",
      "outputs": [],
      "stateMutability": "nonpayable",
      "type": "function"
    }
  ],
  "bytecode": "0x608060405234801561001057600080fd5b50614d66806100206000396000f3fe60806040523480156200001157600080fd5b50600436106200022c5760003560e01c80635573b8b61162000135578063b9581c5011620000bd578063cc5b715b1162000087578063cc5b715b146200046d578063d547741f1462000477578063dec2deb6146200048e578063edcc12b51462000498578063f429e38314620004af576200022c565b8063b9581c50146200041e578063c0e312dc1462000428578063ca15c873146200043f578063cb703bff1462000456576200022c565b8063884cee5a11620000ff578063884cee5a14620003cf5780639010d07c14620003e657806391d1485414620003fd578063a217fddf1462000414576200022c565b80635573b8b6146200039a5780636ce681d214620003a45780636d61128614620003bb5780636d6c68e614620003c5576200022c565b80632dc151de11620001b95780633b690b6b11620001835780633b690b6b14620003565780633fa194ce14620003605780634d58c889146200036a57806350f442801462000381576200022c565b80632dc151de14620002f85780632f2ff15d146200030257806336568abe146200031957806339927cf91462000330576200022c565b8063248a9ca311620001fb578063248a9ca3146200029a57806328c5e18214620002c05780632baaf64314620002ca5780632d6eea0614620002e1576200022c565b8063029996b814620002315780630472e00a146200023d5780630b885ac314620002545780630f1a8f74146200026b575b600080fd5b6200023b620004c6565b005b6200023b6200024e36600462002152565b6200051e565b6200023b62000265366004620021c8565b62000649565b620002826200027c36600462001fd3565b6200065f565b60405162000291919062002411565b60405180910390f35b620002b1620002ab36600462001fd3565b6200067a565b60405162000291919062002487565b620002b16200068f565b6200023b620002db36600462001f2f565b620006da565b62000282620002f236600462001f10565b6200077f565b620002826200079a565b6200023b6200031336600462001fec565b620007a9565b6200023b6200032a36600462001fec565b620007f9565b6200034762000341366004620020b3565b62000842565b6040516200029191906200247c565b620002b1620008a1565b620002b1620008a7565b6200023b6200037b36600462001f74565b620008ba565b6200038b62000a24565b60405162000291919062002490565b6200028262000a47565b6200023b620003b5366004620021c8565b62000a56565b6200028262000bbc565b6200028262000bcb565b62000347620003e036600462002013565b62000bda565b62000282620003f736600462002073565b62000d50565b620003476200040e36600462001fec565b62000d71565b620002b162000d8b565b6200023b62000d90565b6200023b62000439366004620020b3565b62000dd9565b620002b16200045036600462001fd3565b62000ea1565b6200023b62000467366004620020f7565b62000eba565b620002b162000fbc565b6200023b6200048836600462001fec565b62000fe0565b6200034762001020565b6200023b620004a936600462001f10565b62001030565b620002b1620004c036600462001f10565b6200107e565b620004e160008051602062004d118339815191523362000d71565b620005095760405162461bcd60e51b8152600401620005009062002733565b60405180910390fd5b6069805460ff60a01b1916600160a01b179055565b6000858560405160200162000535929190620023e3565b60408051601f1981840301815282825280516020918201208383018352600784526613585a5b9b995d60ca1b84830152915191935062000577929101620023f3565b60405160208183030381529060405280519060200120811415620005af5760405162461bcd60e51b815260040162000500906200267e565b6000818152606a60205260409020546001600160a01b0316620005e65760405162461bcd60e51b8152600401620005009062002519565b6200064186868080601f0160208091040260200160405190810160405280939291908181526020018383808284376000920182905250868152606a60205260409020546001600160a01b031692508891508790508662001090565b505050505050565b62000658858585858562000a56565b5050505050565b606a602052600090815260409020546001600160a01b031681565b60009081526033602052604090206002015490565b6040518060400160405280600781526020016613585a5b9b995d60ca1b815250604051602001620006c19190620023f3565b6040516020818303038152906040528051906020012081565b6067546040516311be333d60e11b81526001600160a01b039091169063237c667a906200070c90859060040162002411565b600060405180830381600087803b1580156200072757600080fd5b505af11580156200073c573d6000803e3d6000fd5b505060408051808201909152600781526613585a5b9b995d60ca1b60208201526069546200077a93509091506001600160a01b031685858562001090565b505050565b606b602052600090815260409020546001600160a01b031681565b6066546001600160a01b031681565b600082815260336020526040902060020154620007ca906200040e620013d1565b620007e95760405162461bcd60e51b81526004016200050090620025c1565b620007f58282620013d5565b5050565b62000803620013d1565b6001600160a01b0316816001600160a01b031614620008365760405162461bcd60e51b8152600401620005009062002b47565b620007f5828262001443565b6000806001600160a01b0316606a6000858560405160200162000867929190620023e3565b60408051601f19818403018152918152815160209283012083529082019290925201600020546001600160a01b0316141590505b92915050565b60685481565b60008051602062004d1183398151915281565b620008e67ffda70c2cc66a36c14884ee85424961f51b1d92b4494751699b6d105b3bcbcba83362000d71565b620009055760405162461bcd60e51b81526004016200050090620027f0565b62000919816001600160a01b0316620014b1565b620009385760405162461bcd60e51b81526004016200050090620029b3565b806001600160a01b03166318160ddd6040518163ffffffff1660e01b815260040160206040518083038186803b1580156200097257600080fd5b505afa15801562000987573d6000803e3d6000fd5b505050506040513d601f19601f82011682018060405250810190620009ad91906200239c565b15620009cd5760405162461bcd60e51b8152600401620005009062002873565b6001600160a01b038281166000818152606b602052604080822080546001600160a01b0319169486169485179055517fc6e93524baaa4770b94da082aa0caeac9ba78c87f7edc7c3d2820f2e9fdf400a9190a35050565b6040518060400160405280600781526020016613585a5b9b995d60ca1b81525081565b6065546001600160a01b031681565b600054610100900460ff168062000a72575062000a72620014b7565b8062000a81575060005460ff16155b62000aa05760405162461bcd60e51b8152600401620005009062002825565b600054610100900460ff1615801562000acc576000805460ff1961ff0019909116610100171660011790555b62000ad6620014ca565b62000ae3600033620007e9565b62000afe60008051602062004d1183398151915233620007e9565b62000b2a7ffda70c2cc66a36c14884ee85424961f51b1d92b4494751699b6d105b3bcbcba833620007e9565b8560405160200162000b3d9190620023f3565b60408051601f198184030181529190528051602090910120606855606580546001600160a01b038088166001600160a01b03199283161790925560668054878416908316179055606780548684169083161790556069805492851692909116919091179055801562000641576000805461ff0019169055505050505050565b6069546001600160a01b031681565b6067546001600160a01b031681565b6065546000906001600160a01b0316331462000c0a5760405162461bcd60e51b8152600401620005009062002610565b606854851415801562000c9c57506040518060400160405280600781526020016613585a5b9b995d60ca1b81525060405160200162000c4a9190620023f3565b60405160208183030381529060405280519060200120851462000c8a576000858152606a60205260409020546001600160a01b0385811691161462000c9c565b6069546001600160a01b038581169116145b62000cbb5760405162461bcd60e51b81526004016200050090620029ea565b600062000cc984846200156a565b9050600481600c81111562000cda57fe5b148062000cf35750600381600c81111562000cf157fe5b145b1562000d2a5762000d058484620015b5565b62000d245760405162461bcd60e51b8152600401620005009062002705565b62000d44565b60405162461bcd60e51b8152600401620005009062002b96565b50600195945050505050565b600082815260336020526040812062000d6a908362001960565b9392505050565b600082815260336020526040812062000d6a90836200196e565b600081565b62000dab60008051602062004d118339815191523362000d71565b62000dca5760405162461bcd60e51b8152600401620005009062002733565b6069805460ff60a01b19169055565b6066546001600160a01b031633148062000dfb575062000dfb60003362000d71565b62000e1a5760405162461bcd60e51b8152600401620005009062002ae1565b6000828260405160200162000e31929190620023e3565b60408051601f1981840301815291815281516020928301206000818152606a9093529120549091506001600160a01b031662000e815760405162461bcd60e51b81526004016200050090620026ce565b6000908152606a6020526040902080546001600160a01b03191690555050565b60008181526033602052604081206200089b9062001985565b6066546001600160a01b031633148062000edc575062000edc60003362000d71565b62000efb5760405162461bcd60e51b8152600401620005009062002ae1565b6000838360405160200162000f12929190620023e3565b60408051601f1981840301815291815281516020928301206000818152606a9093529120549091506001600160a01b03161562000f635760405162461bcd60e51b8152600401620005009062002aaa565b6001600160a01b03821662000f8c5760405162461bcd60e51b8152600401620005009062002519565b6000908152606a6020526040902080546001600160a01b0319166001600160a01b03929092169190911790555050565b7ffda70c2cc66a36c14884ee85424961f51b1d92b4494751699b6d105b3bcbcba881565b60008281526033602052604090206002015462001001906200040e620013d1565b620008365760405162461bcd60e51b81526004016200050090620027a0565b606954600160a01b900460ff1681565b6200103d60003362000d71565b6200105c5760405162461bcd60e51b8152600401620005009062002647565b606980546001600160a01b0319166001600160a01b0392909216919091179055565b606c6020526000908152604090205481565b6001600160a01b038216620010b95760405162461bcd60e51b815260040162000500906200297c565b6001600160a01b038084166000908152606b602052604090205416620010df81620014b1565b620010fe5760405162461bcd60e51b8152600401620005009062002b10565b6040516370a0823160e01b815282906001600160a01b038316906370a08231906200112e90339060040162002411565b60206040518083038186803b1580156200114757600080fd5b505afa1580156200115c573d6000803e3d6000fd5b505050506040513d601f19601f820116820180604052508101906200118291906200239c565b1015620011a35760405162461bcd60e51b8152600401620005009062002774565b604051636eb1769f60e11b815282906001600160a01b0383169063dd62ed3e90620011d5903390309060040162002425565b60206040518083038186803b158015620011ee57600080fd5b505afa15801562001203573d6000803e3d6000fd5b505050506040513d601f19601f820116820180604052508101906200122991906200239c565b10156200124a5760405162461bcd60e51b81526004016200050090620028aa565b6040516323b872dd60e01b81526001600160a01b038216906323b872dd906200127c903390309087906004016200243f565b602060405180830381600087803b1580156200129757600080fd5b505af1158015620012ac573d6000803e3d6000fd5b505050506040513d601f19601f82011682018060405250810190620012d2919062001fb1565b620012f15760405162461bcd60e51b8152600401620005009062002a73565b604051630852cd8d60e31b81526001600160a01b038216906342966c68906200131f90859060040162002487565b600060405180830381600087803b1580156200133a57600080fd5b505af11580156200134f573d6000803e3d6000fd5b50506065546001600160a01b031691506365e3781f905087876200137588888862001992565b6040518463ffffffff1660e01b81526004016200139593929190620024a5565b600060405180830381600087803b158015620013b057600080fd5b505af1158015620013c5573d6000803e3d6000fd5b50505050505050505050565b3390565b6000828152603360205260409020620013ef908262001a09565b15620007f557620013ff620013d1565b6001600160a01b0316816001600160a01b0316837f2f8788117e7eff1d82e926ec794901d17c78024a50270940304540a733656f0d60405160405180910390a45050565b60008281526033602052604090206200145d908262001a20565b15620007f5576200146d620013d1565b6001600160a01b0316816001600160a01b0316837ff6391f5c32d9c69d2a47ea670b442974b53935d1edc7fd64eb21e047a839171b60405160405180910390a45050565b3b151590565b6000620014c430620014b1565b15905090565b600054610100900460ff1680620014e65750620014e6620014b7565b80620014f5575060005460ff16155b620015145760405162461bcd60e51b8152600401620005009062002825565b600054610100900460ff1615801562001540576000805460ff1961ff0019909116610100171660011790555b6200154a62001a37565b6200155462001a37565b801562001567576000805461ff00191690555b50565b6000806200157b8385018562001fd3565b905060208106620015a7576200159e620015988483818862002c37565b6200156a565b9150506200089b565b6200159e8385018562002095565b600080620015c484846200156a565b9050600080808080600386600c811115620015db57fe5b14156200164157620015ec62001ce5565b620015f88a8a62001ac1565b8051604080820151602080840151606090940151948101516001600160a01b038086166000908152606b9093529390912054919a50929850929650909450169150620017739050565b6200164b62001d07565b620016578a8a62001b13565b8051604080820151602080840151606090940151818601516001600160a01b038087166000908152606b9094529490922054929b509399509297509195501692509050816200177157606954600160a01b900460ff16620016cc5760405162461bcd60e51b8152600401620005009062002945565b806040015160000151816040015160400151604051620016ec9062001d37565b620016f9929190620024e7565b604051809103906000f08015801562001716573d6000803e3d6000fd5b506001600160a01b038681166000818152606b602052604080822080546001600160a01b031916948616948517905551939550919290917fcdae5f6ddbda7847ad809fcd087e35946ef42729ff7ecdbcc81a03eb3a52ab2891a35b505b62001787816001600160a01b0316620014b1565b620017a65760405162461bcd60e51b81526004016200050090620029b3565b6001600160a01b0381166000908152606c60205260409020548214620017e2576001600160a01b0381166000908152606c602052604090208290555b606c6000826001600160a01b03166001600160a01b031681526020019081526020016000205483826001600160a01b03166318160ddd6040518163ffffffff1660e01b815260040160206040518083038186803b1580156200184357600080fd5b505afa15801562001858573d6000803e3d6000fd5b505050506040513d601f19601f820116820180604052508101906200187e91906200239c565b011115620018a05760405162461bcd60e51b8152600401620005009062002592565b6040516340c10f1960e01b81526001600160a01b038216906340c10f1990620018d0908890879060040162002463565b600060405180830381600087803b158015620018eb57600080fd5b505af115801562001900573d6000803e3d6000fd5b50505050806001600160a01b0316846001600160a01b03167f3799680c99183658e109873f9f352e8f136e8ef04c1963b80064ff525c2d4d898560405162001949919062002487565b60405180910390a350600198975050505050505050565b600062000d6a838362001b65565b600062000d6a836001600160a01b03841662001bae565b60006200089b8262001bc6565b60606200199e62001d45565b6040805160a0810190915280608081018060028152508152602001866001600160a01b03168152602001856001600160a01b0316815260200184815250905080604051602001620019f0919062002bc6565b6040516020818303038152906040529150509392505050565b600062000d6a836001600160a01b03841662001bca565b600062000d6a836001600160a01b03841662001c19565b600054610100900460ff168062001a53575062001a53620014b7565b8062001a62575060005460ff16155b62001a815760405162461bcd60e51b8152600401620005009062002825565b600054610100900460ff1615801562001554576000805460ff1961ff001990911661010017166001179055801562001567576000805461ff001916905550565b62001acb62001ce5565b600362001ad984846200156a565b600c81111562001ae557fe5b1462001b055760405162461bcd60e51b81526004016200050090620028f2565b62000d6a828401846200235e565b62001b1d62001d07565b600462001b2b84846200156a565b600c81111562001b3757fe5b1462001b575760405162461bcd60e51b8152600401620005009062002a21565b62000d6a828401846200225c565b8154600090821062001b8b5760405162461bcd60e51b8152600401620005009062002550565b82600001828154811062001b9b57fe5b9060005260206000200154905092915050565b60009081526001919091016020526040902054151590565b5490565b600062001bd8838362001bae565b62001c10575081546001818101845560008481526020808220909301849055845484825282860190935260409020919091556200089b565b5060006200089b565b6000818152600183016020526040812054801562001cda578354600019808301919081019060009087908390811062001c4e57fe5b906000526020600020015490508087600001848154811062001c6c57fe5b60009182526020808320909101929092558281526001898101909252604090209084019055865487908062001c9d57fe5b600190038181906000526020600020016000905590558660010160008781526020019081526020016000206000905560019450505050506200089b565b60009150506200089b565b604051806040016040528062001cfa62001d45565b8152602001600081525090565b604051806060016040528062001d1c62001d45565b81526020016000815260200162001d3262001d75565b905290565b6120668062002cab83390190565b604051806080016040528062001d5a62001d99565b81526000602082018190526040820181905260609091015290565b604051806060016040528060608152602001600060ff168152602001606081525090565b604080516020810190915280600062001d32565b60008083601f84011262001dbf578182fd5b50813567ffffffffffffffff81111562001dd7578182fd5b60208301915083602082850101111562001df057600080fd5b9250929050565b8035600d81106200089b57600080fd5b600082601f83011262001e18578081fd5b813567ffffffffffffffff81111562001e2f578182fd5b62001e44601f8201601f191660200162002c0f565b915080825283602082850101111562001e5c57600080fd5b8060208401602084013760009082016020015292915050565b6000818303608081121562001e88578182fd5b62001e94608062002c0f565b9150602081121562001ea557600080fd5b5062001eb2602062002c0f565b62001ebe848462001df7565b81528152602082013562001ed28162002c94565b6020820152604082013562001ee78162002c94565b806040830152506060820135606082015292915050565b803560ff811681146200089b57600080fd5b60006020828403121562001f22578081fd5b813562000d6a8162002c94565b60008060006060848603121562001f44578182fd5b833562001f518162002c94565b9250602084013562001f638162002c94565b929592945050506040919091013590565b6000806040838503121562001f87578182fd5b823562001f948162002c94565b9150602083013562001fa68162002c94565b809150509250929050565b60006020828403121562001fc3578081fd5b8151801515811462000d6a578182fd5b60006020828403121562001fe5578081fd5b5035919050565b6000806040838503121562001fff578182fd5b82359150602083013562001fa68162002c94565b6000806000806060858703121562002029578182fd5b8435935060208501356200203d8162002c94565b9250604085013567ffffffffffffffff81111562002059578283fd5b620020678782880162001dad565b95989497509550505050565b6000806040838503121562002086578182fd5b50508035926020909101359150565b600060208284031215620020a7578081fd5b62000d6a838362001df7565b60008060208385031215620020c6578182fd5b823567ffffffffffffffff811115620020dd578283fd5b620020eb8582860162001dad565b90969095509350505050565b6000806000604084860312156200210c578081fd5b833567ffffffffffffffff81111562002123578182fd5b620021318682870162001dad565b9094509250506020840135620021478162002c94565b809150509250925092565b6000806000806000608086880312156200216a578283fd5b853567ffffffffffffffff81111562002181578384fd5b6200218f8882890162001dad565b9096509450506020860135620021a58162002c94565b92506040860135620021b78162002c94565b949793965091946060013592915050565b600080600080600060a08688031215620021e0578283fd5b853567ffffffffffffffff811115620021f7578384fd5b620022058882890162001e07565b9550506020860135620022188162002c94565b935060408601356200222a8162002c94565b925060608601356200223c8162002c94565b915060808601356200224e8162002c94565b809150509295509295909350565b6000602082840312156200226e578081fd5b813567ffffffffffffffff8082111562002286578283fd5b9083019060c082860312156200229a578283fd5b620022a6606062002c0f565b620022b2868462001e75565b81526080830135602082015260a083013582811115620022d0578485fd5b929092019160608387031215620022e5578384fd5b620022f1606062002c0f565b83358381111562002300578586fd5b6200230e8882870162001e07565b82525062002320876020860162001efe565b602082015260408401358381111562002337578586fd5b620023458882870162001e07565b6040830152508060408301525080935050505092915050565b600060a0828403121562002370578081fd5b6200237c604062002c0f565b62002388848462001e75565b815260809290920135602083015250919050565b600060208284031215620023ae578081fd5b5051919050565b60008151808452620023cf81602086016020860162002c61565b601f01601f19169290920160200192915050565b6000828483379101908152919050565b600082516200240781846020870162002c61565b9190910192915050565b6001600160a01b0391909116815260200190565b6001600160a01b0392831681529116602082015260400190565b6001600160a01b039384168152919092166020820152604081019190915260600190565b6001600160a01b03929092168252602082015260400190565b901515815260200190565b90815260200190565b60006020825262000d6a6020830184620023b5565b600060608252620024ba6060830186620023b5565b6001600160a01b03851660208401528281036040840152620024dd8185620023b5565b9695505050505050565b600060408252620024fc6040830185620023b5565b8281036020840152620025108185620023b5565b95945050505050565b6020808252601f908201527f496e636f727265637420546f6b656e204d616e61676572206164647265737300604082015260600190565b60208082526022908201527f456e756d657261626c655365743a20696e646578206f7574206f6620626f756e604082015261647360f01b606082015260800190565b602080825260159082015274151bdd185b081cdd5c1c1b1e48195e18d959591959605a1b604082015260600190565b6020808252602f908201527f416363657373436f6e74726f6c3a2073656e646572206d75737420626520616e60408201526e0818591b5a5b881d1bc819dc985b9d608a1b606082015260800190565b6020808252601c908201527f53656e646572206973206e6f742061204d65737361676550726f787900000000604082015260600190565b6020808252601e908201527f44454641554c545f41444d494e5f524f4c452069732072657175697265640000604082015260600190565b60208082526030908201527f546869732066756e6374696f6e206973206e6f7420666f72207472616e73666560408201526f1c9c9a5b99c81d1bc813585a5b9b995d60821b606082015260800190565b60208082526018908201527f546f6b656e204d616e61676572206973206e6f74207365740000000000000000604082015260600190565b60208082526014908201527304661696c656420746f2073656e642045524332360641b604082015260600190565b60208082526021908201527f4155544f4d415449435f4445504c4f595f524f4c4520697320726571756972656040820152601960fa1b606082015260800190565b602080825260129082015271496e73756666696369656e742066756e647360701b604082015260600190565b60208082526030908201527f416363657373436f6e74726f6c3a2073656e646572206d75737420626520616e60408201526f2061646d696e20746f207265766f6b6560801b606082015260800190565b6020808252818101527f544f4b454e5f5245474953545241525f524f4c45206973207265717569726564604082015260600190565b6020808252602e908201527f496e697469616c697a61626c653a20636f6e747261637420697320616c72656160408201526d191e481a5b9a5d1a585b1a5e995960921b606082015260800190565b60208082526017908201527f546f74616c537570706c79206973206e6f74207a65726f000000000000000000604082015260600190565b60208082526028908201527f5472616e73666572206973206e6f7420617070726f76656420627920746f6b6560408201526737103437b63232b960c11b606082015260800190565b60208082526033908201527f4d6573736167652074797065206973206e6f74204552433230207472616e7366604082015272657220616e6420746f74616c20737570706c7960681b606082015260800190565b6020808252601c908201527f4175746f6d61746963206465706c6f792069732064697361626c656400000000604082015260600190565b6020808252601a908201527f496e636f72726563742072656365697665722061646472657373000000000000604082015260600190565b6020808252601f908201527f476976656e2061646472657373206973206e6f74206120636f6e747261637400604082015260600190565b6020808252601b908201527f526563656976657220636861696e20697320696e636f72726563740000000000604082015260600190565b60208082526032908201527f4d6573736167652074797065206973206e6f74204552433230207472616e73666040820152716572207769746820746f6b656e20696e666f60701b606082015260800190565b6020808252601e908201527f436f756c64206e6f74207472616e7366657220455243323020546f6b656e0000604082015260600190565b6020808252601c908201527f546f6b656e204d616e6167657220697320616c72656164792073657400000000604082015260600190565b6020808252601590820152742737ba1030baba3437b934bd32b21031b0b63632b960591b604082015260600190565b60208082526018908201527f4e6f20746f6b656e20636c6f6e65206f6e2073636861696e0000000000000000604082015260600190565b6020808252602f908201527f416363657373436f6e74726f6c3a2063616e206f6e6c792072656e6f756e636560408201526e103937b632b9903337b91039b2b63360891b606082015260800190565b60208082526016908201527526b2b9b9b0b3b2aa3cb8329034b9903ab735b737bbb760511b604082015260600190565b8151516080820190600d811062002bd957fe5b80835250602083015160018060a01b03808216602085015280604086015116604085015250506060830151606083015292915050565b60405181810167ffffffffffffffff8111828210171562002c2f57600080fd5b604052919050565b6000808585111562002c47578182fd5b8386111562002c54578182fd5b5050820193919092039150565b60005b8381101562002c7e57818101518382015260200162002c64565b8381111562002c8e576000848401525b50505050565b6001600160a01b03811681146200156757600080fdfe60806040523480156200001157600080fd5b506040516200206638038062002066833981810160405260408110156200003757600080fd5b81019080805160405193929190846401000000008211156200005857600080fd5b9083019060208201858111156200006e57600080fd5b82516401000000008111828201881017156200008957600080fd5b82525081516020918201929091019080838360005b83811015620000b85781810151838201526020016200009e565b50505050905090810190601f168015620000e65780820380516001836020036101000a031916815260200191505b50604052602001805160405193929190846401000000008211156200010a57600080fd5b9083019060208201858111156200012057600080fd5b82516401000000008111828201881017156200013b57600080fd5b82525081516020918201929091019080838360005b838110156200016a57818101518382015260200162000150565b50505050905090810190601f168015620001985780820380516001836020036101000a031916815260200191505b50604052505050620001b46200022760201b62000a681760201c565b620001cb8282620002e560201b62000b191760201c565b620001e06200022760201b62000a681760201c565b620001fb6000805160206200204683398151915280620003a7565b6200021f6000805160206200204683398151915262000219620003f9565b620003fd565b50506200075b565b600054610100900460ff1680620002435750620002436200040d565b8062000252575060005460ff16155b6200028f5760405162461bcd60e51b815260040180806020018281038252602e81526020018062002018602e913960400191505060405180910390fd5b600054610100900460ff16158015620002bb576000805460ff1961ff0019909116610100171660011790555b620002c56200042b565b620002cf6200042b565b8015620002e2576000805461ff00191690555b50565b600054610100900460ff1680620003015750620003016200040d565b8062000310575060005460ff16155b6200034d5760405162461bcd60e51b815260040180806020018281038252602e81526020018062002018602e913960400191505060405180910390fd5b600054610100900460ff1615801562000379576000805460ff1961ff0019909116610100171660011790555b620003836200042b565b6200038f8383620004d3565b8015620003a2576000805461ff00191690555b505050565b600082815260336020526040808220600201549051839285917fbd79b86ffe0ab8e8776151514217cd7cacd52c909f66475c3af44e129f0b00ff9190a460009182526033602052604090912060020155565b3390565b620004098282620005b7565b5050565b600062000425306200063260201b62000bce1760201c565b15905090565b600054610100900460ff1680620004475750620004476200040d565b8062000456575060005460ff16155b620004935760405162461bcd60e51b815260040180806020018281038252602e81526020018062002018602e913960400191505060405180910390fd5b600054610100900460ff16158015620002cf576000805460ff1961ff0019909116610100171660011790558015620002e2576000805461ff001916905550565b600054610100900460ff1680620004ef5750620004ef6200040d565b80620004fe575060005460ff16155b6200053b5760405162461bcd60e51b815260040180806020018281038252602e81526020018062002018602e913960400191505060405180910390fd5b600054610100900460ff1615801562000567576000805460ff1961ff0019909116610100171660011790555b82516200057c906068906020860190620006bf565b50815162000592906069906020850190620006bf565b50606a805460ff191660121790558015620003a2576000805461ff0019169055505050565b6000828152603360209081526040909120620005de91839062000bd462000638821b17901c565b156200040957620005ee620003f9565b6001600160a01b0316816001600160a01b0316837f2f8788117e7eff1d82e926ec794901d17c78024a50270940304540a733656f0d60405160405180910390a45050565b3b151590565b60006200064f836001600160a01b03841662000658565b90505b92915050565b6000620006668383620006a7565b6200069e5750815460018181018455600084815260208082209093018490558454848252828601909352604090209190915562000652565b50600062000652565b60009081526001919091016020526040902054151590565b828054600181600116156101000203166002900490600052602060002090601f016020900481019282601f106200070257805160ff191683800117855562000732565b8280016001018555821562000732579182015b828111156200073257825182559160200191906001019062000715565b506200074092915062000744565b5090565b5b8082111562000740576000815560010162000745565b6118ad806200076b6000396000f3fe608060405234801561001057600080fd5b506004361061014d5760003560e01c806370a08231116100c3578063a457c2d71161007c578063a457c2d714610436578063a9059cbb14610462578063ca15c8731461048e578063d5391393146104ab578063d547741f146104b3578063dd62ed3e146104df5761014d565b806370a082311461036957806379cc67901461038f5780639010d07c146103bb57806391d14854146103fa57806395d89b4114610426578063a217fddf1461042e5761014d565b80632f2ff15d116101155780632f2ff15d1461027c578063313ce567146102aa57806336568abe146102c857806339509351146102f457806340c10f191461032057806342966c681461034c5761014d565b806306fdde0314610152578063095ea7b3146101cf57806318160ddd1461020f57806323b872dd14610229578063248a9ca31461025f575b600080fd5b61015a61050d565b6040805160208082528351818301528351919283929083019185019080838360005b8381101561019457818101518382015260200161017c565b50505050905090810190601f1680156101c15780820380516001836020036101000a031916815260200191505b509250505060405180910390f35b6101fb600480360360408110156101e557600080fd5b506001600160a01b0381351690602001356105a3565b604080519115158252519081900360200190f35b6102176105c1565b60408051918252519081900360200190f35b6101fb6004803603606081101561023f57600080fd5b506001600160a01b038135811691602081013590911690604001356105c7565b6102176004803603602081101561027557600080fd5b503561064e565b6102a86004803603604081101561029257600080fd5b50803590602001356001600160a01b0316610663565b005b6102b26106cf565b6040805160ff9092168252519081900360200190f35b6102a8600480360360408110156102de57600080fd5b50803590602001356001600160a01b03166106d8565b6101fb6004803603604081101561030a57600080fd5b506001600160a01b038135169060200135610739565b6102a86004803603604081101561033657600080fd5b506001600160a01b038135169060200135610787565b6102a86004803603602081101561036257600080fd5b5035610807565b6102176004803603602081101561037f57600080fd5b50356001600160a01b031661081b565b6102a8600480360360408110156103a557600080fd5b506001600160a01b038135169060200135610836565b6103de600480360360408110156103d157600080fd5b5080359060200135610890565b604080516001600160a01b039092168252519081900360200190f35b6101fb6004803603604081101561041057600080fd5b50803590602001356001600160a01b03166108af565b61015a6108c7565b610217610928565b6101fb6004803603604081101561044c57600080fd5b506001600160a01b03813516906020013561092d565b6101fb6004803603604081101561047857600080fd5b506001600160a01b038135169060200135610995565b610217600480360360208110156104a457600080fd5b50356109a9565b6102176109c0565b6102a8600480360360408110156104c957600080fd5b50803590602001356001600160a01b03166109e4565b610217600480360360408110156104f557600080fd5b506001600160a01b0381358116916020013516610a3d565b60688054604080516020601f60026000196101006001881615020190951694909404938401819004810282018101909252828152606093909290918301828280156105995780601f1061056e57610100808354040283529160200191610599565b820191906000526020600020905b81548152906001019060200180831161057c57829003601f168201915b5050505050905090565b60006105b76105b0610be9565b8484610bed565b5060015b92915050565b60675490565b60006105d4848484610cd9565b610644846105e0610be9565b61063f8560405180606001604052806028815260200161176e602891396001600160a01b038a1660009081526066602052604081209061061e610be9565b6001600160a01b031681526020810191909152604001600020549190610e36565b610bed565b5060019392505050565b60009081526033602052604090206002015490565b60008281526033602052604090206002015461068690610681610be9565b6108af565b6106c15760405162461bcd60e51b815260040180806020018281038252602f815260200180611677602f913960400191505060405180910390fd5b6106cb8282610ecd565b5050565b606a5460ff1690565b6106e0610be9565b6001600160a01b0316816001600160a01b03161461072f5760405162461bcd60e51b815260040180806020018281038252602f815260200180611849602f913960400191505060405180910390fd5b6106cb8282610f36565b60006105b7610746610be9565b8461063f8560666000610757610be9565b6001600160a01b03908116825260208083019390935260409182016000908120918c168152925290205490610f9f565b6107b37f9f2df0fed2c77648de5860a4cc508cd0818c85b8b8a1ab4ceeef8d981c8956a6610681610be9565b6107fd576040805162461bcd60e51b815260206004820152601660248201527529b2b73232b91034b9903737ba10309026b4b73a32b960511b604482015290519081900360640190fd5b6106cb8282610ff9565b610818610812610be9565b826110eb565b50565b6001600160a01b031660009081526065602052604090205490565b600061086d826040518060600160405280602481526020016117966024913961086686610861610be9565b610a3d565b9190610e36565b90506108818361087b610be9565b83610bed565b61088b83836110eb565b505050565b60008281526033602052604081206108a890836111e7565b9392505050565b60008281526033602052604081206108a890836111f3565b60698054604080516020601f60026000196101006001881615020190951694909404938401819004810282018101909252828152606093909290918301828280156105995780601f1061056e57610100808354040283529160200191610599565b600081565b60006105b761093a610be9565b8461063f856040518060600160405280602581526020016118246025913960666000610964610be9565b6001600160a01b03908116825260208083019390935260409182016000908120918d16815292529020549190610e36565b60006105b76109a2610be9565b8484610cd9565b60008181526033602052604081206105bb90611208565b7f9f2df0fed2c77648de5860a4cc508cd0818c85b8b8a1ab4ceeef8d981c8956a681565b600082815260336020526040902060020154610a0290610681610be9565b61072f5760405162461bcd60e51b81526004018080602001828103825260308152602001806117106030913960400191505060405180910390fd5b6001600160a01b03918216600090815260666020908152604080832093909416825291909152205490565b600054610100900460ff1680610a815750610a81611213565b80610a8f575060005460ff16155b610aca5760405162461bcd60e51b815260040180806020018281038252602e815260200180611740602e913960400191505060405180910390fd5b600054610100900460ff16158015610af5576000805460ff1961ff0019909116610100171660011790555b610afd611224565b610b05611224565b8015610818576000805461ff001916905550565b600054610100900460ff1680610b325750610b32611213565b80610b40575060005460ff16155b610b7b5760405162461bcd60e51b815260040180806020018281038252602e815260200180611740602e913960400191505060405180910390fd5b600054610100900460ff16158015610ba6576000805460ff1961ff0019909116610100171660011790555b610bae611224565b610bb883836112c4565b801561088b576000805461ff0019169055505050565b3b151590565b60006108a8836001600160a01b03841661139c565b3390565b6001600160a01b038316610c325760405162461bcd60e51b81526004018080602001828103825260248152602001806118006024913960400191505060405180910390fd5b6001600160a01b038216610c775760405162461bcd60e51b81526004018080602001828103825260228152602001806116c86022913960400191505060405180910390fd5b6001600160a01b03808416600081815260666020908152604080832094871680845294825291829020859055815185815291517f8c5be1e5ebec7d5bd14f71427d1e84f3dd0314c0f7b2291e5b200ac8c7c3b9259281900390910190a3505050565b6001600160a01b038316610d1e5760405162461bcd60e51b81526004018080602001828103825260258152602001806117db6025913960400191505060405180910390fd5b6001600160a01b038216610d635760405162461bcd60e51b81526004018080602001828103825260238152602001806116546023913960400191505060405180910390fd5b610d6e83838361088b565b610dab816040518060600160405280602681526020016116ea602691396001600160a01b0386166000908152606560205260409020549190610e36565b6001600160a01b038085166000908152606560205260408082209390935590841681522054610dda9082610f9f565b6001600160a01b0380841660008181526065602090815260409182902094909455805185815290519193928716927fddf252ad1be2c89b69c2b068fc378daa952ba7f163c4a11628f55a4df523b3ef92918290030190a3505050565b60008184841115610ec55760405162461bcd60e51b81526004018080602001828103825283818151815260200191508051906020019080838360005b83811015610e8a578181015183820152602001610e72565b50505050905090810190601f168015610eb75780820380516001836020036101000a031916815260200191505b509250505060405180910390fd5b505050900390565b6000828152603360205260409020610ee59082610bd4565b156106cb57610ef2610be9565b6001600160a01b0316816001600160a01b0316837f2f8788117e7eff1d82e926ec794901d17c78024a50270940304540a733656f0d60405160405180910390a45050565b6000828152603360205260409020610f4e90826113e6565b156106cb57610f5b610be9565b6001600160a01b0316816001600160a01b0316837ff6391f5c32d9c69d2a47ea670b442974b53935d1edc7fd64eb21e047a839171b60405160405180910390a45050565b6000828201838110156108a8576040805162461bcd60e51b815260206004820152601b60248201527f536166654d6174683a206164646974696f6e206f766572666c6f770000000000604482015290519081900360640190fd5b6001600160a01b038216611054576040805162461bcd60e51b815260206004820152601f60248201527f45524332303a206d696e7420746f20746865207a65726f206164647265737300604482015290519081900360640190fd5b6110606000838361088b565b60675461106d9082610f9f565b6067556001600160a01b0382166000908152606560205260409020546110939082610f9f565b6001600160a01b03831660008181526065602090815260408083209490945583518581529351929391927fddf252ad1be2c89b69c2b068fc378daa952ba7f163c4a11628f55a4df523b3ef9281900390910190a35050565b6001600160a01b0382166111305760405162461bcd60e51b81526004018080602001828103825260218152602001806117ba6021913960400191505060405180910390fd5b61113c8260008361088b565b611179816040518060600160405280602281526020016116a6602291396001600160a01b0385166000908152606560205260409020549190610e36565b6001600160a01b03831660009081526065602052604090205560675461119f90826113fb565b6067556040805182815290516000916001600160a01b038516917fddf252ad1be2c89b69c2b068fc378daa952ba7f163c4a11628f55a4df523b3ef9181900360200190a35050565b60006108a88383611458565b60006108a8836001600160a01b0384166114bc565b60006105bb826114d4565b600061121e30610bce565b15905090565b600054610100900460ff168061123d575061123d611213565b8061124b575060005460ff16155b6112865760405162461bcd60e51b815260040180806020018281038252602e815260200180611740602e913960400191505060405180910390fd5b600054610100900460ff16158015610b05576000805460ff1961ff0019909116610100171660011790558015610818576000805461ff001916905550565b600054610100900460ff16806112dd57506112dd611213565b806112eb575060005460ff16155b6113265760405162461bcd60e51b815260040180806020018281038252602e815260200180611740602e913960400191505060405180910390fd5b600054610100900460ff16158015611351576000805460ff1961ff0019909116610100171660011790555b825161136490606890602086019061159e565b50815161137890606990602085019061159e565b50606a805460ff19166012179055801561088b576000805461ff0019169055505050565b60006113a883836114bc565b6113de575081546001818101845560008481526020808220909301849055845484825282860190935260409020919091556105bb565b5060006105bb565b60006108a8836001600160a01b0384166114d8565b600082821115611452576040805162461bcd60e51b815260206004820152601e60248201527f536166654d6174683a207375627472616374696f6e206f766572666c6f770000604482015290519081900360640190fd5b50900390565b8154600090821061149a5760405162461bcd60e51b81526004018080602001828103825260228152602001806116326022913960400191505060405180910390fd5b8260000182815481106114a957fe5b9060005260206000200154905092915050565b60009081526001919091016020526040902054151590565b5490565b60008181526001830160205260408120548015611594578354600019808301919081019060009087908390811061150b57fe5b906000526020600020015490508087600001848154811061152857fe5b60009182526020808320909101929092558281526001898101909252604090209084019055865487908061155857fe5b600190038181906000526020600020016000905590558660010160008781526020019081526020016000206000905560019450505050506105bb565b60009150506105bb565b828054600181600116156101000203166002900490600052602060002090601f016020900481019282601f106115df57805160ff191683800117855561160c565b8280016001018555821561160c579182015b8281111561160c5782518255916020019190600101906115f1565b5061161892915061161c565b5090565b5b80821115611618576000815560010161161d56fe456e756d657261626c655365743a20696e646578206f7574206f6620626f756e647345524332303a207472616e7366657220746f20746865207a65726f2061646472657373416363657373436f6e74726f6c3a2073656e646572206d75737420626520616e2061646d696e20746f206772616e7445524332303a206275726e20616d6f756e7420657863656564732062616c616e636545524332303a20617070726f766520746f20746865207a65726f206164647265737345524332303a207472616e7366657220616d6f756e7420657863656564732062616c616e6365416363657373436f6e74726f6c3a2073656e646572206d75737420626520616e2061646d696e20746f207265766f6b65496e697469616c697a61626c653a20636f6e747261637420697320616c726561647920696e697469616c697a656445524332303a207472616e7366657220616d6f756e74206578636565647320616c6c6f77616e636545524332303a206275726e20616d6f756e74206578636565647320616c6c6f77616e636545524332303a206275726e2066726f6d20746865207a65726f206164647265737345524332303a207472616e736665722066726f6d20746865207a65726f206164647265737345524332303a20617070726f76652066726f6d20746865207a65726f206164647265737345524332303a2064656372656173656420616c6c6f77616e63652062656c6f77207a65726f416363657373436f6e74726f6c3a2063616e206f6e6c792072656e6f756e636520726f6c657320666f722073656c66a2646970667358221220f5fd5b9f427fa0188f9574676da4de58e3fd195487cc5f2ba14cd5cbd4d68d2464736f6c634300060c0033496e697469616c697a61626c653a20636f6e747261637420697320616c726561647920696e697469616c697a65649f2df0fed2c77648de5860a4cc508cd0818c85b8b8a1ab4ceeef8d981c8956a67164765a3c8bd2513bdfa0c90f1bee9606e920fbf2c9071f310263fbd818684ba26469706673582212207c9743aba1d08462e030c87607f527136d4a590163f8296a0cfddedc3e9e452664736f6c634300060c0033",
  "linkReferences": {},
  "deployedLinkReferences": {}
}