{
  "_format": "hh-sol-artifact-1",
  "contractName": "MessageProxyForSchain",
  "sourceName": "contracts/schain/MessageProxyForSchain.sol",
  "abi": [
    {
      "anonymous": false,
      "inputs": [
        {
          "indexed": true,
          "internalType": "bytes32",
          "name": "dstChainHash",
          "type": "bytes32"
        },
        {
          "indexed": true,
          "internalType": "uint256",
          "name": "msgCounter",
          "type": "uint256"
        },
        {
          "indexed": true,
          "internalType": "address",
          "name": "srcContract",
          "type": "address"
        },
        {
          "indexed": false,
          "internalType": "address",
          "name": "dstContract",
          "type": "address"
        },
        {
          "indexed": false,
          "internalType": "bytes",
          "name": "data",
          "type": "bytes"
        }
      ],
      "name": "OutgoingMessage",
      "type": "event"
    },
    {
      "anonymous": false,
      "inputs": [
        {
          "indexed": true,
          "internalType": "uint256",
          "name": "msgCounter",
          "type": "uint256"
        },
        {
          "indexed": false,
          "internalType": "bytes",
          "name": "message",
          "type": "bytes"
        }
      ],
      "name": "PostMessageError",
      "type": "event"
    },
    {
      "anonymous": false,
      "inputs": [
        {
          "indexed": true,
          "internalType": "bytes32",
          "name": "role",
          "type": "bytes32"
        },
        {
          "indexed": true,
          "internalType": "bytes32",
          "name": "previousAdminRole",
          "type": "bytes32"
        },
        {
          "indexed": true,
          "internalType": "bytes32",
          "name": "newAdminRole",
          "type": "bytes32"
        }
      ],
      "name": "RoleAdminChanged",
      "type": "event"
    },
    {
      "anonymous": false,
      "inputs": [
        {
          "indexed": true,
          "internalType": "bytes32",
          "name": "role",
          "type": "bytes32"
        },
        {
          "indexed": true,
          "internalType": "address",
          "name": "account",
          "type": "address"
        },
        {
          "indexed": true,
          "internalType": "address",
          "name": "sender",
          "type": "address"
        }
      ],
      "name": "RoleGranted",
      "type": "event"
    },
    {
      "anonymous": false,
      "inputs": [
        {
          "indexed": true,
          "internalType": "bytes32",
          "name": "role",
          "type": "bytes32"
        },
        {
          "indexed": true,
          "internalType": "address",
          "name": "account",
          "type": "address"
        },
        {
          "indexed": true,
          "internalType": "address",
          "name": "sender",
          "type": "address"
        }
      ],
      "name": "RoleRevoked",
      "type": "event"
    },
    {
      "inputs": [],
      "name": "CHAIN_CONNECTOR_ROLE",
      "outputs": [
        {
          "internalType": "bytes32",
          "name": "",
          "type": "bytes32"
        }
      ],
      "stateMutability": "view",
      "type": "function"
    },
    {
      "inputs": [],
      "name": "CONSTANT_SETTER_ROLE",
      "outputs": [
        {
          "internalType": "bytes32",
          "name": "",
          "type": "bytes32"
        }
      ],
      "stateMutability": "view",
      "type": "function"
    },
    {
      "inputs": [],
      "name": "DEBUGGER_ROLE",
      "outputs": [
        {
          "internalType": "bytes32",
          "name": "",
          "type": "bytes32"
        }
      ],
      "stateMutability": "view",
      "type": "function"
    },
    {
      "inputs": [],
      "name": "DEFAULT_ADMIN_ROLE",
      "outputs": [
        {
          "internalType": "bytes32",
          "name": "",
          "type": "bytes32"
        }
      ],
      "stateMutability": "view",
      "type": "function"
    },
    {
      "inputs": [],
      "name": "EXTRA_CONTRACT_REGISTRAR_ROLE",
      "outputs": [
        {
          "internalType": "bytes32",
          "name": "",
          "type": "bytes32"
        }
      ],
      "stateMutability": "view",
      "type": "function"
    },
    {
      "inputs": [
        {
          "internalType": "string",
          "name": "chainName",
          "type": "string"
        }
      ],
      "name": "addConnectedChain",
      "outputs": [],
      "stateMutability": "nonpayable",
      "type": "function"
    },
    {
      "inputs": [
        {
          "internalType": "bytes32",
          "name": "",
          "type": "bytes32"
        }
      ],
      "name": "connectedChains",
      "outputs": [
        {
          "internalType": "uint256",
          "name": "incomingMessageCounter",
          "type": "uint256"
        },
        {
          "internalType": "uint256",
          "name": "outgoingMessageCounter",
          "type": "uint256"
        },
        {
          "internalType": "bool",
          "name": "inited",
          "type": "bool"
        }
      ],
      "stateMutability": "view",
      "type": "function"
    },
    {
      "inputs": [],
      "name": "gasLimit",
      "outputs": [
        {
          "internalType": "uint256",
          "name": "",
          "type": "uint256"
        }
      ],
      "stateMutability": "view",
      "type": "function"
    },
    {
      "inputs": [
        {
          "internalType": "string",
          "name": "fromSchainName",
          "type": "string"
        }
      ],
      "name": "getIncomingMessagesCounter",
      "outputs": [
        {
          "internalType": "uint256",
          "name": "",
          "type": "uint256"
        }
      ],
      "stateMutability": "view",
      "type": "function"
    },
    {
      "inputs": [
        {
          "internalType": "string",
          "name": "targetSchainName",
          "type": "string"
        }
      ],
      "name": "getOutgoingMessagesCounter",
      "outputs": [
        {
          "internalType": "uint256",
          "name": "",
          "type": "uint256"
        }
      ],
      "stateMutability": "view",
      "type": "function"
    },
    {
      "inputs": [
        {
          "internalType": "bytes32",
          "name": "role",
          "type": "bytes32"
        }
      ],
      "name": "getRoleAdmin",
      "outputs": [
        {
          "internalType": "bytes32",
          "name": "",
          "type": "bytes32"
        }
      ],
      "stateMutability": "view",
      "type": "function"
    },
    {
      "inputs": [
        {
          "internalType": "bytes32",
          "name": "role",
          "type": "bytes32"
        },
        {
          "internalType": "uint256",
          "name": "index",
          "type": "uint256"
        }
      ],
      "name": "getRoleMember",
      "outputs": [
        {
          "internalType": "address",
          "name": "",
          "type": "address"
        }
      ],
      "stateMutability": "view",
      "type": "function"
    },
    {
      "inputs": [
        {
          "internalType": "bytes32",
          "name": "role",
          "type": "bytes32"
        }
      ],
      "name": "getRoleMemberCount",
      "outputs": [
        {
          "internalType": "uint256",
          "name": "",
          "type": "uint256"
        }
      ],
      "stateMutability": "view",
      "type": "function"
    },
    {
      "inputs": [
        {
          "internalType": "bytes32",
          "name": "role",
          "type": "bytes32"
        },
        {
          "internalType": "address",
          "name": "account",
          "type": "address"
        }
      ],
      "name": "grantRole",
      "outputs": [],
      "stateMutability": "nonpayable",
      "type": "function"
    },
    {
      "inputs": [
        {
          "internalType": "bytes32",
          "name": "role",
          "type": "bytes32"
        },
        {
          "internalType": "address",
          "name": "account",
          "type": "address"
        }
      ],
      "name": "hasRole",
      "outputs": [
        {
          "internalType": "bool",
          "name": "",
          "type": "bool"
        }
      ],
      "stateMutability": "view",
      "type": "function"
    },
    {
      "inputs": [
        {
          "internalType": "contract KeyStorage",
          "name": "blsKeyStorage",
          "type": "address"
        },
        {
          "internalType": "string",
          "name": "schainName",
          "type": "string"
        }
      ],
      "name": "initialize",
      "outputs": [],
      "stateMutability": "nonpayable",
      "type": "function"
    },
    {
      "inputs": [
        {
          "internalType": "string",
          "name": "schainName",
          "type": "string"
        }
      ],
      "name": "isConnectedChain",
      "outputs": [
        {
          "internalType": "bool",
          "name": "",
          "type": "bool"
        }
      ],
      "stateMutability": "view",
      "type": "function"
    },
    {
      "inputs": [],
      "name": "keyStorage",
      "outputs": [
        {
          "internalType": "contract KeyStorage",
          "name": "",
          "type": "address"
        }
      ],
      "stateMutability": "view",
      "type": "function"
    },
    {
      "inputs": [
        {
          "internalType": "string",
          "name": "schainName",
          "type": "string"
        }
      ],
      "name": "moveIncomingCounter",
      "outputs": [],
      "stateMutability": "nonpayable",
      "type": "function"
    },
    {
      "inputs": [
        {
          "internalType": "string",
          "name": "fromChainName",
          "type": "string"
        },
        {
          "internalType": "uint256",
          "name": "startingCounter",
          "type": "uint256"
        },
        {
          "components": [
            {
              "internalType": "address",
              "name": "sender",
              "type": "address"
            },
            {
              "internalType": "address",
              "name": "destinationContract",
              "type": "address"
            },
            {
              "internalType": "bytes",
              "name": "data",
              "type": "bytes"
            }
          ],
          "internalType": "struct MessageProxyForSchain.Message[]",
          "name": "messages",
          "type": "tuple[]"
        },
        {
          "components": [
            {
              "internalType": "uint256[2]",
              "name": "blsSignature",
              "type": "uint256[2]"
            },
            {
              "internalType": "uint256",
              "name": "hashA",
              "type": "uint256"
            },
            {
              "internalType": "uint256",
              "name": "hashB",
              "type": "uint256"
            },
            {
              "internalType": "uint256",
              "name": "counter",
              "type": "uint256"
            }
          ],
          "internalType": "struct MessageProxyForSchain.Signature",
          "name": "signature",
          "type": "tuple"
        },
        {
          "internalType": "uint256",
          "name": "idxLastToPopNotIncluding",
          "type": "uint256"
        }
      ],
      "name": "postIncomingMessages",
      "outputs": [],
      "stateMutability": "nonpayable",
      "type": "function"
    },
    {
      "inputs": [
        {
          "internalType": "string",
          "name": "targetChainName",
          "type": "string"
        },
        {
          "internalType": "address",
          "name": "dstContract",
          "type": "address"
        },
        {
          "internalType": "bytes",
          "name": "data",
          "type": "bytes"
        }
      ],
      "name": "postOutgoingMessage",
      "outputs": [],
      "stateMutability": "nonpayable",
      "type": "function"
    },
    {
      "inputs": [
        {
          "internalType": "string",
          "name": "schainName",
          "type": "string"
        },
        {
          "internalType": "address",
          "name": "contractOnSchain",
          "type": "address"
        }
      ],
      "name": "registerExtraContract",
      "outputs": [],
      "stateMutability": "nonpayable",
      "type": "function"
    },
    {
      "inputs": [
        {
          "internalType": "address",
          "name": "contractOnSchain",
          "type": "address"
        }
      ],
      "name": "registerExtraContractForAll",
      "outputs": [],
      "stateMutability": "nonpayable",
      "type": "function"
    },
    {
      "inputs": [
        {
          "internalType": "bytes32",
          "name": "",
          "type": "bytes32"
        },
        {
          "internalType": "address",
          "name": "",
          "type": "address"
        }
      ],
      "name": "registryContracts",
      "outputs": [
        {
          "internalType": "bool",
          "name": "",
          "type": "bool"
        }
      ],
      "stateMutability": "view",
      "type": "function"
    },
    {
      "inputs": [
        {
          "internalType": "string",
          "name": "schainName",
          "type": "string"
        }
      ],
      "name": "removeConnectedChain",
      "outputs": [],
      "stateMutability": "nonpayable",
      "type": "function"
    },
    {
      "inputs": [
        {
          "internalType": "string",
          "name": "schainName",
          "type": "string"
        },
        {
          "internalType": "address",
          "name": "contractOnSchain",
          "type": "address"
        }
      ],
      "name": "removeExtraContract",
      "outputs": [],
      "stateMutability": "nonpayable",
      "type": "function"
    },
    {
      "inputs": [
        {
          "internalType": "address",
          "name": "contractOnSchain",
          "type": "address"
        }
      ],
      "name": "removeExtraContractForAll",
      "outputs": [],
      "stateMutability": "nonpayable",
      "type": "function"
    },
    {
      "inputs": [
        {
          "internalType": "bytes32",
          "name": "role",
          "type": "bytes32"
        },
        {
          "internalType": "address",
          "name": "account",
          "type": "address"
        }
      ],
      "name": "renounceRole",
      "outputs": [],
      "stateMutability": "nonpayable",
      "type": "function"
    },
    {
      "inputs": [
        {
          "internalType": "bytes32",
          "name": "role",
          "type": "bytes32"
        },
        {
          "internalType": "address",
          "name": "account",
          "type": "address"
        }
      ],
      "name": "revokeRole",
      "outputs": [],
      "stateMutability": "nonpayable",
      "type": "function"
    },
    {
      "inputs": [],
      "name": "schainHash",
      "outputs": [
        {
          "internalType": "bytes32",
          "name": "",
          "type": "bytes32"
        }
      ],
      "stateMutability": "view",
      "type": "function"
    },
    {
      "inputs": [
        {
          "internalType": "string",
          "name": "schainName",
          "type": "string"
        }
      ],
      "name": "setCountersToZero",
      "outputs": [],
      "stateMutability": "nonpayable",
      "type": "function"
    },
    {
      "inputs": [
        {
          "internalType": "uint256",
          "name": "newGasLimit",
          "type": "uint256"
        }
      ],
      "name": "setNewGasLimit",
      "outputs": [],
      "stateMutability": "nonpayable",
      "type": "function"
    },
    {
      "inputs": [
        {
          "components": [
            {
              "internalType": "string",
              "name": "dstChain",
              "type": "string"
            },
            {
              "internalType": "uint256",
              "name": "msgCounter",
              "type": "uint256"
            },
            {
              "internalType": "address",
              "name": "srcContract",
              "type": "address"
            },
            {
              "internalType": "address",
              "name": "dstContract",
              "type": "address"
            },
            {
              "internalType": "bytes",
              "name": "data",
              "type": "bytes"
            }
          ],
          "internalType": "struct MessageProxyForSchain.OutgoingMessageData",
          "name": "message",
          "type": "tuple"
        }
      ],
      "name": "verifyOutgoingMessageData",
      "outputs": [
        {
          "internalType": "bool",
          "name": "isValidMessage",
          "type": "bool"
        }
      ],
      "stateMutability": "view",
      "type": "function"
    }
  ],
  "bytecode": "0x608060405234801561001057600080fd5b50613580806100206000396000f3fe608060405234801561001057600080fd5b50600436106101fb5760003560e01c8063999ab9aa1161011a578063cab010c9116100ad578063f2f636051161007c578063f2f6360514610413578063f399e22e14610426578063f68016b714610439578063f79f795414610441578063f8c88a1614610449576101fb565b8063cab010c9146103b8578063d547741f146103cb578063e45b045f146103de578063e6ab8403146103f1576101fb565b8063ac2f861e116100e9578063ac2f861e14610382578063b51cc14d1461038a578063bbc4e8c21461039d578063ca15c873146103a5576101fb565b8063999ab9aa14610341578063a217fddf14610354578063a78868c81461035c578063a8bb1b7d1461036f576101fb565b80634da84ce51161019257806377fe0f311161016157806377fe0f31146102db5780637c5ad80c146102ee5780639010d07c1461030e57806391d148541461032e576101fb565b80634da84ce51461029a578063523c8ab6146102ad57806365e3781f146102b557806367ec6020146102c8576101fb565b80633b597ffe116101ce5780633b597ffe146102595780633b690b6b1461026c5780633cdd2cc3146102745780634d20385914610287576101fb565b806313c5226014610200578063248a9ca31461021e5780632f2ff15d1461023157806336568abe14610246575b600080fd5b61020861045c565b6040516102159190612af8565b60405180910390f35b61020861022c36600461264f565b610480565b61024461023f366004612667565b610495565b005b610244610254366004612667565b6104e6565b61024461026736600461264f565b610528565b610208610573565b610244610282366004612705565b610579565b610244610295366004612613565b610689565b6102446102a8366004612705565b610762565b610208610834565b6102446102c336600461279a565b610846565b6102086102d6366004612705565b6109ee565b6102086102e9366004612705565b610a5b565b6103016102fc366004612667565b610ac3565b6040516102159190612aed565b61032161031c366004612696565b610ae3565b6040516102159190612ab5565b61030161033c366004612667565b610b02565b61030161034f366004612705565b610b1a565b610208610b66565b61024461036a36600461281c565b610b6b565b61024461037d366004612613565b610ca2565b610208610d77565b61030161039836600461291c565b610d9b565b610208610e02565b6102086103b336600461264f565b610e26565b6102446103c6366004612745565b610e3d565b6102446103d9366004612667565b610f40565b6102446103ec366004612705565b610f7a565b6104046103ff36600461264f565b611049565b60405161021593929190613361565b610244610421366004612705565b61106d565b6102446104343660046126b7565b611186565b6102086112e3565b6103216112e9565b610244610457366004612745565b6112f8565b7f2785f35fe7d8743aa971942d8474737bb31895d396eff2cc688a481e0221e19181565b60009081526033602052604090206002015490565b6000828152603360205260409020600201546104b39061033c6113f7565b6104d85760405162461bcd60e51b81526004016104cf90612c23565b60405180910390fd5b6104e282826113fc565b5050565b6104ee6113f7565b6001600160a01b0316816001600160a01b03161461051e5760405162461bcd60e51b81526004016104cf90613312565b6104e28282611465565b6105527f96e3fc3be15159903e053027cff8a23f39a990e0194abcd8ac1cf1b355b8b93c33610b02565b61056e5760405162461bcd60e51b81526004016104cf90612d48565b606c55565b60665481565b6105a37f2785f35fe7d8743aa971942d8474737bb31895d396eff2cc688a481e0221e19133610b02565b6105bf5760405162461bcd60e51b81526004016104cf90612d8e565b600082826040516020016105d4929190612a76565b6040516020818303038152906040528051906020012090506040516020016105fb90612aa2565b604051602081830303815290604052805190602001208114156106305760405162461bcd60e51b81526004016104cf906132c9565b60008181526067602052604090206002015460ff166106615760405162461bcd60e51b81526004016104cf9061315b565b60009081526067602052604081208181556001810191909155600201805460ff191690555050565b6106a16000805160206134eb83398151915233610b02565b6106bd5760405162461bcd60e51b81526004016104cf90612c72565b6106cf816001600160a01b03166114ce565b6106eb5760405162461bcd60e51b81526004016104cf906131f1565b6001600160a01b038116600090815260008051602061352b833981519152602052604090205460ff16156107315760405162461bcd60e51b81526004016104cf90613285565b6001600160a01b0316600090815260008051602061352b83398151915260205260409020805460ff19166001179055565b61078c7f621a88c2734d2b469650b9ed1f143b5eea096e7e7bb5c68a326ac7aee5e7f94633610b02565b6107a85760405162461bcd60e51b81526004016104cf906131ba565b60006067600084846040516020016107c1929190612a76565b604051602081830303815290604052805190602001208152602001908152602001600020600001819055506000606760008484604051602001610805929190612a76565b604051602081830303815290604052805190602001208152602001908152602001600020600101819055505050565b6000805160206134eb83398151915281565b6000858560405160200161085b929190612a76565b60408051601f1981840301815291815281516020928301206000818152606790935291206002015490915060ff166108a55760405162461bcd60e51b81526004016104cf906130bb565b33600090815260008051602061352b833981519152602052604090205460ff16806108e957506000818152606b6020908152604080832033845290915290205460ff165b6109055760405162461bcd60e51b81526004016104cf90612d07565b6000818152606760205260409020600190810154610922916114d4565b60008281526067602090815260409182902060010192909255805160c0601f89018490049093028101830190915260a081018781526109e6928291908a908a908190850183828082843760009201829052509385525050508481526067602090815260409182902060010154600019018184015233828401526001600160a01b03891660608401528151601f8801829004820281018201909252868252608090920191879087908190840183828082843760009201919091525050509152506114f9565b505050505050565b6000808383604051602001610a04929190612a76565b60408051601f1981840301815291815281516020928301206000818152606790935291206002015490915060ff16610a40576000915050610a55565b60009081526067602052604090206001015490505b92915050565b6000808383604051602001610a71929190612a76565b60408051601f1981840301815291815281516020928301206000818152606790935291206002015490915060ff16610aad576000915050610a55565b6000908152606760205260409020549392505050565b606b60209081526000928352604080842090915290825290205460ff1681565b6000828152603360205260408120610afb90836115ce565b9392505050565b6000828152603360205260408120610afb90836115da565b6000606760008484604051602001610b33929190612a76565b60408051808303601f190181529181528151602092830120835290820192909252016000206002015460ff169392505050565b600081565b60008787604051602001610b80929190612a76565b604051602081830303815290604052805190602001209050610bab610ba586866115ef565b846116de565b610bc75760405162461bcd60e51b81526004016104cf90612ed9565b60008181526067602052604090206002015460ff16610bf85760405162461bcd60e51b81526004016104cf9061315b565b6000818152606760205260409020548614610c255760405162461bcd60e51b81526004016104cf90612fbf565b60005b84811015610c6457610c5b82878784818110610c4057fe5b9050602002810190610c5291906133be565b8960010161178b565b50600101610c28565b50600081815260676020526040902054610c7e90856114d4565b600082815260676020526040902055610c9781836118fa565b505050505050505050565b610cba6000805160206134eb83398151915233610b02565b610cd65760405162461bcd60e51b81526004016104cf90613228565b610ce8816001600160a01b03166114ce565b610d045760405162461bcd60e51b81526004016104cf906131f1565b6001600160a01b038116600090815260008051602061352b833981519152602052604090205460ff16610d495760405162461bcd60e51b81526004016104cf90612f47565b6001600160a01b0316600090815260008051602061352b83398151915260205260409020805460ff19169055565b7f621a88c2734d2b469650b9ed1f143b5eea096e7e7bb5c68a326ac7aee5e7f94681565b6000808260000151604051602001610db39190612a86565b60408051601f198184030181529181528151602092830120600081815260688452828120878501518252909352912054909150610def84611986565b811415610dfb57600192505b5050919050565b7f96e3fc3be15159903e053027cff8a23f39a990e0194abcd8ac1cf1b355b8b93c81565b6000818152603360205260408120610a5590611a19565b60008383604051602001610e52929190612a76565b604051602081830303815290604052805190602001209050610e826000805160206134eb83398151915233610b02565b610e9e5760405162461bcd60e51b81526004016104cf9061301c565b610eb0826001600160a01b03166114ce565b610ecc5760405162461bcd60e51b81526004016104cf906131f1565b6000818152606b602090815260408083206001600160a01b038616845290915290205460ff1615610f0f5760405162461bcd60e51b81526004016104cf90613285565b6000908152606b602090815260408083206001600160a01b03909416835292905220805460ff191660011790555050565b600082815260336020526040902060020154610f5e9061033c6113f7565b61051e5760405162461bcd60e51b81526004016104cf90612e89565b610fa47f621a88c2734d2b469650b9ed1f143b5eea096e7e7bb5c68a326ac7aee5e7f94633610b02565b610fc05760405162461bcd60e51b81526004016104cf906131ba565b6110086001606760008585604051602001610fdc929190612a76565b60408051601f1981840301815291815281516020928301208352908201929092520160002054906114d4565b60676000848460405160200161101f929190612a76565b60408051601f19818403018152918152815160209283012083529082019290925201600020555050565b60676020526000908152604090208054600182015460029092015490919060ff1683565b6110977f2785f35fe7d8743aa971942d8474737bb31895d396eff2cc688a481e0221e19133610b02565b6110b35760405162461bcd60e51b81526004016104cf90612d8e565b600082826040516020016110c8929190612a76565b6040516020818303038152906040528051906020012090506066548114156111025760405162461bcd60e51b81526004016104cf90612bec565b60008181526067602052604090206002015460ff16156111345760405162461bcd60e51b81526004016104cf90612f10565b604080516060810182526000808252602080830182815260018486018181529684526067909252939091209151825591519181019190915590516002909101805460ff19169115159190911790555050565b600054610100900460ff168061119f575061119f611a24565b806111ad575060005460ff16155b6111c95760405162461bcd60e51b81526004016104cf9061306d565b600054610100900460ff161580156111f4576000805460ff1961ff0019909116610100171660011790555b6111fc611a35565b6112076000336104d8565b606580546001600160a01b0319166001600160a01b0385161790556040805160608101825260008082526020808301829052600183850152925191926067926112509101612aa2565b60408051808303601f19018152918152815160209283012083528282019390935290820160002083518155838201516001820155928201516002909301805460ff191693151593909317909255516112aa91849101612a86565b60408051601f198184030181529190528051602090910120606655622dc6c0606c5580156112de576000805461ff00191690555b505050565b606c5481565b6065546001600160a01b031681565b6000838360405160200161130d929190612a76565b60405160208183030381529060405280519060200120905061133d6000805160206134eb83398151915233610b02565b6113595760405162461bcd60e51b81526004016104cf90612b9d565b61136b826001600160a01b03166114ce565b6113875760405162461bcd60e51b81526004016104cf906131f1565b6000818152606b602090815260408083206001600160a01b038616845290915290205460ff166113c95760405162461bcd60e51b81526004016104cf90612f47565b6000908152606b602090815260408083206001600160a01b03909416835292905220805460ff191690555050565b335b90565b60008281526033602052604090206114149082611ac8565b156104e2576114216113f7565b6001600160a01b0316816001600160a01b0316837f2f8788117e7eff1d82e926ec794901d17c78024a50270940304540a733656f0d60405160405180910390a45050565b600082815260336020526040902061147d9082611add565b156104e25761148a6113f7565b6001600160a01b0316816001600160a01b0316837ff6391f5c32d9c69d2a47ea670b442974b53935d1edc7fd64eb21e047a839171b60405160405180910390a45050565b3b151590565b600082820183811015610afb5760405162461bcd60e51b81526004016104cf90612cd0565b805160405160009161150d91602001612a86565b60405160208183030381529060405280519060200120905081604001516001600160a01b03168260200151827f803d7f3ca0e5f93fcce39fa29812ed57a95a151594966e17125220132741c6b085606001518660800151604051611572929190612ac9565b60405180910390a461158382611986565b6000828152606860209081526040808320606a80845282852080548652918452918420949094559184905252546115bb9060016114d4565b6000918252606a60205260409091205550565b6000610afb8383611af2565b6000610afb836001600160a01b038416611b37565b6000606060005b838110156116ce578185858381811061160b57fe5b905060200281019061161d91906133be565b61162b906020810190612613565b60601b6001600160601b03191686868481811061164457fe5b905060200281019061165691906133be565b611667906040810190602001612613565b60601b6001600160601b03191687878581811061168057fe5b905060200281019061169291906133be565b6116a0906040810190613379565b6040516020016116b4959493929190612a3f565b60408051601f1981840301815291905291506001016115f6565b5080516020909101209392505050565b60408051808201825282358152602080840135908201526065548251632aa77bd360e11b81528351600094610afb949388936080808a013594938a01359360608b0135936001600160a01b03169263554ef7a6926004808301939192829003018186803b15801561174e57600080fd5b505afa158015611762573d6000803e3d6000fd5b505050506040513d601f19601f8201168201806040525081019061178691906128dc565b611b4f565b600061179d6040840160208501612613565b6001600160a01b031663884cee5a606c54868660000160208101906117c29190612613565b6117cf6040890189613379565b6040518663ffffffff1660e01b81526004016117ee9493929190612b01565b602060405180830381600088803b15801561180857600080fd5b5087f193505050508015611839575060408051601f3d908101601f191682019092526118369181019061262f565b60015b6118f257611845613430565b806118505750611892565b827f4b7d3908626050c0d998d657e4e6f31cb43ed736bf2b9a1a0192494537ca0e59826040516118809190612b48565b60405180910390a26000915050610afb565b3d8080156118bc576040519150601f19603f3d011682016040523d82523d6000602084013e6118c1565b606091505b50827f4b7d3908626050c0d998d657e4e6f31cb43ed736bf2b9a1a0192494537ca0e59826040516118809190612b48565b949350505050565b6000828152606a602090815260408083205460699092528220545b8381101561194f578181106119295761194f565b600085815260686020908152604080832084845290915281205560019283019201611915565b50811561197f5760008481526069602052604090205461196f90836114d4565b6000858152606960205260409020555b5092915050565b60006060826000015160405160200161199f9190612a86565b60405160208183030381529060405280519060200120836020015160001b846040015160601b6001600160601b031916856060015160601b6001600160601b03191686608001516040516020016119fa959493929190612a04565b60408051808303601f1901815291905280516020909101209392505050565b6000610a5582611c8d565b6000611a2f306114ce565b15905090565b600054610100900460ff1680611a4e5750611a4e611a24565b80611a5c575060005460ff16155b611a785760405162461bcd60e51b81526004016104cf9061306d565b600054610100900460ff16158015611aa3576000805460ff1961ff0019909116610100171660011790555b611aab611c91565b611ab3611c91565b8015611ac5576000805461ff00191690555b50565b6000610afb836001600160a01b038416611d12565b6000610afb836001600160a01b038416611d5c565b81546000908210611b155760405162461bcd60e51b81526004016104cf90612b5b565b826000018281548110611b2457fe5b9060005260206000200154905092915050565b60009081526001919091016020526040902054151590565b6000611b5a87611e22565b611b765760405162461bcd60e51b81526004016104cf90612dfa565b611b8286868686611e58565b611b8e57506000611c83565b6000611b9d8860200151611f2a565b9050611bad886000015182611f4e565b611bc95760405162461bcd60e51b81526004016104cf90613192565b611bd38585611f4e565b611bef5760405162461bcd60e51b81526004016104cf90612e2a565b611bf7612494565b611bff611f7e565b9050611c0a8461203e565b611c265760405162461bcd60e51b81526004016104cf9061312d565b611c7e8960000151838360000151602001518460000151600001518560200151602001518660200151600001518c8c8c60000151602001518d60000151600001518e60200151602001518f6020015160000151612052565b925050505b9695505050505050565b5490565b600054610100900460ff1680611caa5750611caa611a24565b80611cb8575060005460ff16155b611cd45760405162461bcd60e51b81526004016104cf9061306d565b600054610100900460ff16158015611ab3576000805460ff1961ff0019909116610100171660011790558015611ac5576000805461ff001916905550565b6000611d1e8383611b37565b611d5457508154600181810184556000848152602080822090930184905584548482528286019093526040902091909155610a55565b506000610a55565b60008181526001830160205260408120548015611e185783546000198083019190810190600090879083908110611d8f57fe5b9060005260206000200154905080876000018481548110611dac57fe5b600091825260208083209091019290925582815260018981019092526040902090840190558654879080611ddc57fe5b60019003818190600052602060002001600090559055866001016000878152602001908152602001600020600090556001945050505050610a55565b6000915050610a55565b600060008051602061350b8339815191528260000151108015610a555750506020015160008051602061350b8339815191521190565b60006064841115611e6b575060006118f2565b60008051602061350b83398151915280860690611e8882876114d4565b81611e8f57fe5b069050600060008051602061350b833981519152600360008051602061350b8339815191528460008051602061350b83398151915286870909089050611ee460008051602061350b83398151915260026120fb565b841080611f0257508060008051602061350b83398151915285860914155b80611f0d5750848214155b15611f1d576000925050506118f2565b5060019695505050505050565b6000610a5560008051602061350b833981519152611f48818561212d565b90612155565b600060008051602061350b83398151915280600381868188890909088180611f7257fe5b84850914949350505050565b611f86612494565b50604080516080810182527f1800deef121f1e76426a00665e5c4479674322d4f75edadd46debd5cd992f6ed8183019081527f198e9393920d483a7260bfb731fb5d25f1aa493335a9e71297e485b7aef312c26060830152815281518083019092527f12c85ea5db8c6deb4aab71808dcb408fe3d1e7690c43d37b4ce6cc0166fa7daa82527f090689d0585ff075ec9e99ad690c3395bc4b313370b38ef355acdadcd122975b60208381019190915281019190915290565b6000610a5582600001518360200151612187565b60008061205d6124b9565b8e8152602081018e9052604081018d9052606081018c9052608081018b905260a081018a905260c0810189905260e0810188905261010081018790526101208101869052610140810185905261016081018490526120b96124d8565b602081610180846008600019fa9250826120e55760405162461bcd60e51b81526004016104cf906130ff565b5115159f9e505050505050505050505050505050565b600080821161211c5760405162461bcd60e51b81526004016104cf90612e52565b81838161212557fe5b049392505050565b60008282111561214f5760405162461bcd60e51b81526004016104cf90612dc3565b50900390565b60008082116121765760405162461bcd60e51b81526004016104cf90612f88565b81838161217f57fe5b069392505050565b60006121938383612206565b156121a057506001610a55565b6121a86124f6565b6121b183612239565b90506121bb6124f6565b6121e96121c66122be565b6121e36121dc886121d68a612239565b9061231c565b85906123e0565b906123e0565b80519091501580156121fd57506020810151155b95945050505050565b815160009015801561221a57506020830151155b8015612227575081516001145b8015610afb5750506020015115919050565b6122416124f6565b60008051602061350b833981519152600081602085015185510990506000828061226757fe5b838061226f57fe5b848061227757fe5b87602001516001870309875108848061228c57fe5b6020880151885108099050604051806040016040528082815260200184806122b057fe5b848508905295945050505050565b6122c66124f6565b50604080518082019091527f2b149d40ceb8aaae81be18991be06ac3b5b4c5e559dbefa33267e6dc24a138e581527e9713b03af0fed4cd2cafadeed8fdf4a74fa084e52d1852e4a2bd0685c315d2602082015290565b6123246124f6565b60008051602061350b83398151915261233b6124f6565b6040518060400160405280838061234e57fe5b86518851098152602001838061236057fe5b866020015188602001510990529050818061237757fe5b828061237f57fe5b826020015160018503098251088352818061239657fe5b828061239e57fe5b6020830151835108830383806123b057fe5b84806123b857fe5b602088015188510885806123c857fe5b60208a01518a51080908602084015250909392505050565b6123e86124f6565b8151835160008051602061350b833981519152911161241957808061240957fe5b8351855190830390088252612439565b61243681828061242557fe5b865186519085039008830390612155565b82525b826020015184602001511061246757808061245057fe5b83602001518203856020015108602083015261197f565b61248881828061247357fe5b86602001518403866020015108830390612155565b60208301525092915050565b60405180604001604052806124a76124f6565b81526020016124b46124f6565b905290565b604051806101800160405280600c906020820280368337509192915050565b60405180602001604052806001906020820280368337509192915050565b604051806040016040528060008152602001600081525090565b8035610a55816134d5565b60008083601f84011261252c578182fd5b50813567ffffffffffffffff811115612543578182fd5b60208301915083602082850101111561255b57600080fd5b9250929050565b600082601f830112612572578081fd5b813567ffffffffffffffff811115612588578182fd5b61259b601f8201601f19166020016133d3565b91508082528360208285010111156125b257600080fd5b8060208401602084013760009082016020015292915050565b6000604082840312156125dc578081fd5b6125e660406133d3565b9050815181526020820151602082015292915050565b600060a0828403121561260d578081fd5b50919050565b600060208284031215612624578081fd5b8135610afb816134d5565b600060208284031215612640578081fd5b81518015158114610afb578182fd5b600060208284031215612660578081fd5b5035919050565b60008060408385031215612679578081fd5b82359150602083013561268b816134d5565b809150509250929050565b600080604083850312156126a8578182fd5b50508035926020909101359150565b600080604083850312156126c9578182fd5b82356126d4816134d5565b9150602083013567ffffffffffffffff8111156126ef578182fd5b6126fb85828601612562565b9150509250929050565b60008060208385031215612717578182fd5b823567ffffffffffffffff81111561272d578283fd5b6127398582860161251b565b90969095509350505050565b600080600060408486031215612759578081fd5b833567ffffffffffffffff81111561276f578182fd5b61277b8682870161251b565b909450925050602084013561278f816134d5565b809150509250925092565b6000806000806000606086880312156127b1578081fd5b853567ffffffffffffffff808211156127c8578283fd5b6127d489838a0161251b565b9097509550602088013591506127e9826134d5565b909350604087013590808211156127fe578283fd5b5061280b8882890161251b565b969995985093965092949392505050565b6000806000806000806000610120888a031215612837578485fd5b873567ffffffffffffffff8082111561284e578687fd5b61285a8b838c0161251b565b909950975060208a0135965060408a0135915080821115612879578384fd5b818a0191508a601f83011261288c578384fd5b81358181111561289a578485fd5b8b602080830285010111156128ad578485fd5b6020830196508095505050506128c68960608a016125fc565b9150610100880135905092959891949750929550565b6000608082840312156128ed578081fd5b6128f760406133d3565b61290184846125cb565b815261291084604085016125cb565b60208201529392505050565b60006020828403121561292d578081fd5b813567ffffffffffffffff80821115612944578283fd5b9083019060a08286031215612957578283fd5b61296160a06133d3565b82358281111561296f578485fd5b61297b87828601612562565b825250602083013560208201526129958660408501612510565b60408201526129a78660608501612510565b60608201526080830135828111156129bd578485fd5b6129c987828601612562565b60808301525095945050505050565b600081518084526129f08160208601602086016133fa565b601f01601f19169290920160200192915050565b60008682528560208301528460408301528360608301528251612a2e8160808501602087016133fa565b919091016080019695505050505050565b60008651612a51818460208b016133fa565b8201868152602081018690528385604083013790920160400191825250949350505050565b6000828483379101908152919050565b60008251612a988184602087016133fa565b9190910192915050565b6613585a5b9b995d60ca1b815260070190565b6001600160a01b0391909116815260200190565b6001600160a01b03831681526040602082018190526000906118f2908301846129d8565b901515815260200190565b90815260200190565b8481526001600160a01b03841660208201526060604082018190528101829052600082846080840137818301608090810191909152601f909201601f191601019392505050565b600060208252610afb60208301846129d8565b60208082526022908201527f456e756d657261626c655365743a20696e646578206f7574206f6620626f756e604082015261647360f01b606082015260800190565b6020808252602f908201527f4e6f7420656e6f756768207065726d697373696f6e7320746f2072656d6f766560408201526e08195e1d1c984818dbdb9d1c9858dd608a1b606082015260800190565b6020808252601c908201527f53636861696e2063616e6e6f7420636f6e6e65637420697473656c6600000000604082015260600190565b6020808252602f908201527f416363657373436f6e74726f6c3a2073656e646572206d75737420626520616e60408201526e0818591b5a5b881d1bc819dc985b9d608a1b606082015260800190565b602080825260409082018190527f4e6f7420656e6f756768207065726d697373696f6e7320746f20726567697374908201527f657220657874726120636f6e747261637420666f7220616c6c20636861696e73606082015260800190565b6020808252601b908201527f536166654d6174683a206164646974696f6e206f766572666c6f770000000000604082015260600190565b60208082526021908201527f53656e64657220636f6e7472616374206973206e6f74207265676973746572656040820152601960fa1b606082015260800190565b60208082526026908201527f4e6f7420656e6f756768207065726d697373696f6e7320746f2073657420636f6040820152651b9cdd185b9d60d21b606082015260800190565b6020808252818101527f434841494e5f434f4e4e4543544f525f524f4c45206973207265717569726564604082015260600190565b6020808252601e908201527f536166654d6174683a207375627472616374696f6e206f766572666c6f770000604082015260600190565b60208082526016908201527514da59db985d1d5c99481a5cc81b9bdd081d985b1a5960521b604082015260600190565b6020808252600e908201526d48617368206e6f7420696e20473160901b604082015260600190565b6020808252601a908201527f536166654d6174683a206469766973696f6e206279207a65726f000000000000604082015260600190565b60208082526030908201527f416363657373436f6e74726f6c3a2073656e646572206d75737420626520616e60408201526f2061646d696e20746f207265766f6b6560801b606082015260800190565b60208082526019908201527f5369676e6174757265206973206e6f7420766572696669656400000000000000604082015260600190565b6020808252601a908201527f436861696e20697320616c726561647920636f6e6e6563746564000000000000604082015260600190565b60208082526021908201527f457874726120636f6e747261637420697320616c72656164792072656d6f76656040820152601960fa1b606082015260800190565b60208082526018908201527f536166654d6174683a206d6f64756c6f206279207a65726f0000000000000000604082015260600190565b60208082526038908201527f5374617274696e6720636f756e746572206973206e6f74207175616c20746f2060408201527f696e636f6d696e67206d65737361676520636f756e7465720000000000000000606082015260800190565b60208082526031908201527f4e6f7420656e6f756768207065726d697373696f6e7320746f20726567697374604082015270195c88195e1d1c984818dbdb9d1c9858dd607a1b606082015260800190565b6020808252602e908201527f496e697469616c697a61626c653a20636f6e747261637420697320616c72656160408201526d191e481a5b9a5d1a585b1a5e995960921b606082015260800190565b60208082526024908201527f44657374696e6174696f6e20636861696e206973206e6f7420696e697469616c6040820152631a5e995960e21b606082015260800190565b60208082526014908201527314185a5c9a5b99c818da1958dac819985a5b195960621b604082015260600190565b602080825260149082015273283ab13634b19025b2bc903737ba1034b710239960611b604082015260600190565b60208082526018908201527f436861696e206973206e6f7420696e697469616c697a65640000000000000000604082015260600190565b6020808252600e908201526d5369676e206e6f7420696e20473160901b604082015260600190565b60208082526019908201527f44454255474745525f524f4c4520697320726571756972656400000000000000604082015260600190565b6020808252601f908201527f476976656e2061646472657373206973206e6f74206120636f6e747261637400604082015260600190565b6020808252603e908201527f4e6f7420656e6f756768207065726d697373696f6e7320746f2072656d6f766560408201527f20657874726120636f6e747261637420666f7220616c6c20636861696e730000606082015260800190565b60208082526024908201527f457874726120636f6e747261637420697320616c726561647920726567697374604082015263195c995960e21b606082015260800190565b60208082526029908201527f4e657720636861696e20686173682063616e6e6f7420626520657175616c20746040820152681bc813585a5b9b995d60ba1b606082015260800190565b6020808252602f908201527f416363657373436f6e74726f6c3a2063616e206f6e6c792072656e6f756e636560408201526e103937b632b9903337b91039b2b63360891b606082015260800190565b92835260208301919091521515604082015260600190565b6000808335601e1984360301811261338f578283fd5b83018035915067ffffffffffffffff8211156133a9578283fd5b60200191503681900382131561255b57600080fd5b60008235605e19833603018112612a98578182fd5b60405181810167ffffffffffffffff811182821017156133f257600080fd5b604052919050565b60005b838110156134155781810151838201526020016133fd565b83811115613424576000848401525b50505050565b60e01c90565b600060443d1015613440576113f9565b600481823e6308c379a0613454825161342a565b1461345e576113f9565b6040513d600319016004823e80513d67ffffffffffffffff816024840111818411171561348e57505050506113f9565b828401925082519150808211156134a857505050506113f9565b503d830160208284010111156134c0575050506113f9565b601f01601f1916810160200160405291505090565b6001600160a01b0381168114611ac557600080fdfe6155b5aac15ce9aa193c0527a6f43be0a36a7e2e7496c2b615c0e5f92284277330644e72e131a029b85045b68181585d97816a916871ca8d3c208c16d87cfd47c8cc8bda7ad4886bea3ebbdafa02e79d37c39bf4011696b26a31a0802fd9458ba26469706673582212207ea632da9680e95c8cc5f2c928a243c330b7217fc00a1ac6a8b1735fe75eba2264736f6c634300060c0033",
  "linkReferences": {},
  "deployedLinkReferences": {}
}