{
  "_format": "hh-sol-artifact-1",
  "contractName": "TokenManagerEth",
  "sourceName": "contracts/schain/TokenManagers/TokenManagerEth.sol",
  "abi": [
    {
      "anonymous": false,
      "inputs": [
        {
          "indexed": true,
          "internalType": "bytes32",
          "name": "role",
          "type": "bytes32"
        },
        {
          "indexed": true,
          "internalType": "bytes32",
          "name": "previousAdminRole",
          "type": "bytes32"
        },
        {
          "indexed": true,
          "internalType": "bytes32",
          "name": "newAdminRole",
          "type": "bytes32"
        }
      ],
      "name": "RoleAdminChanged",
      "type": "event"
    },
    {
      "anonymous": false,
      "inputs": [
        {
          "indexed": true,
          "internalType": "bytes32",
          "name": "role",
          "type": "bytes32"
        },
        {
          "indexed": true,
          "internalType": "address",
          "name": "account",
          "type": "address"
        },
        {
          "indexed": true,
          "internalType": "address",
          "name": "sender",
          "type": "address"
        }
      ],
      "name": "RoleGranted",
      "type": "event"
    },
    {
      "anonymous": false,
      "inputs": [
        {
          "indexed": true,
          "internalType": "bytes32",
          "name": "role",
          "type": "bytes32"
        },
        {
          "indexed": true,
          "internalType": "address",
          "name": "account",
          "type": "address"
        },
        {
          "indexed": true,
          "internalType": "address",
          "name": "sender",
          "type": "address"
        }
      ],
      "name": "RoleRevoked",
      "type": "event"
    },
    {
      "inputs": [],
      "name": "AUTOMATIC_DEPLOY_ROLE",
      "outputs": [
        {
          "internalType": "bytes32",
          "name": "",
          "type": "bytes32"
        }
      ],
      "stateMutability": "view",
      "type": "function"
    },
    {
      "inputs": [],
      "name": "DEFAULT_ADMIN_ROLE",
      "outputs": [
        {
          "internalType": "bytes32",
          "name": "",
          "type": "bytes32"
        }
      ],
      "stateMutability": "view",
      "type": "function"
    },
    {
      "inputs": [],
      "name": "MAINNET_HASH",
      "outputs": [
        {
          "internalType": "bytes32",
          "name": "",
          "type": "bytes32"
        }
      ],
      "stateMutability": "view",
      "type": "function"
    },
    {
      "inputs": [],
      "name": "MAINNET_NAME",
      "outputs": [
        {
          "internalType": "string",
          "name": "",
          "type": "string"
        }
      ],
      "stateMutability": "view",
      "type": "function"
    },
    {
      "inputs": [],
      "name": "TOKEN_REGISTRAR_ROLE",
      "outputs": [
        {
          "internalType": "bytes32",
          "name": "",
          "type": "bytes32"
        }
      ],
      "stateMutability": "view",
      "type": "function"
    },
    {
      "inputs": [
        {
          "internalType": "string",
          "name": "schainName",
          "type": "string"
        },
        {
          "internalType": "address",
          "name": "newTokenManager",
          "type": "address"
        }
      ],
      "name": "addTokenManager",
      "outputs": [],
      "stateMutability": "nonpayable",
      "type": "function"
    },
    {
      "inputs": [],
      "name": "automaticDeploy",
      "outputs": [
        {
          "internalType": "bool",
          "name": "",
          "type": "bool"
        }
      ],
      "stateMutability": "view",
      "type": "function"
    },
    {
      "inputs": [
        {
          "internalType": "address",
          "name": "newDepositBox",
          "type": "address"
        }
      ],
      "name": "changeDepositBoxAddress",
      "outputs": [],
      "stateMutability": "nonpayable",
      "type": "function"
    },
    {
      "inputs": [],
      "name": "communityLocker",
      "outputs": [
        {
          "internalType": "contract CommunityLocker",
          "name": "",
          "type": "address"
        }
      ],
      "stateMutability": "view",
      "type": "function"
    },
    {
      "inputs": [],
      "name": "depositBox",
      "outputs": [
        {
          "internalType": "address",
          "name": "",
          "type": "address"
        }
      ],
      "stateMutability": "view",
      "type": "function"
    },
    {
      "inputs": [],
      "name": "disableAutomaticDeploy",
      "outputs": [],
      "stateMutability": "nonpayable",
      "type": "function"
    },
    {
      "inputs": [],
      "name": "enableAutomaticDeploy",
      "outputs": [],
      "stateMutability": "nonpayable",
      "type": "function"
    },
    {
      "inputs": [],
      "name": "ethErc20",
      "outputs": [
        {
          "internalType": "contract EthErc20",
          "name": "",
          "type": "address"
        }
      ],
      "stateMutability": "view",
      "type": "function"
    },
    {
      "inputs": [
        {
          "internalType": "address",
          "name": "to",
          "type": "address"
        },
        {
          "internalType": "uint256",
          "name": "amount",
          "type": "uint256"
        }
      ],
      "name": "exitToMain",
      "outputs": [],
      "stateMutability": "nonpayable",
      "type": "function"
    },
    {
      "inputs": [
        {
          "internalType": "bytes32",
          "name": "role",
          "type": "bytes32"
        }
      ],
      "name": "getRoleAdmin",
      "outputs": [
        {
          "internalType": "bytes32",
          "name": "",
          "type": "bytes32"
        }
      ],
      "stateMutability": "view",
      "type": "function"
    },
    {
      "inputs": [
        {
          "internalType": "bytes32",
          "name": "role",
          "type": "bytes32"
        },
        {
          "internalType": "uint256",
          "name": "index",
          "type": "uint256"
        }
      ],
      "name": "getRoleMember",
      "outputs": [
        {
          "internalType": "address",
          "name": "",
          "type": "address"
        }
      ],
      "stateMutability": "view",
      "type": "function"
    },
    {
      "inputs": [
        {
          "internalType": "bytes32",
          "name": "role",
          "type": "bytes32"
        }
      ],
      "name": "getRoleMemberCount",
      "outputs": [
        {
          "internalType": "uint256",
          "name": "",
          "type": "uint256"
        }
      ],
      "stateMutability": "view",
      "type": "function"
    },
    {
      "inputs": [
        {
          "internalType": "bytes32",
          "name": "role",
          "type": "bytes32"
        },
        {
          "internalType": "address",
          "name": "account",
          "type": "address"
        }
      ],
      "name": "grantRole",
      "outputs": [],
      "stateMutability": "nonpayable",
      "type": "function"
    },
    {
      "inputs": [
        {
          "internalType": "bytes32",
          "name": "role",
          "type": "bytes32"
        },
        {
          "internalType": "address",
          "name": "account",
          "type": "address"
        }
      ],
      "name": "hasRole",
      "outputs": [
        {
          "internalType": "bool",
          "name": "",
          "type": "bool"
        }
      ],
      "stateMutability": "view",
      "type": "function"
    },
    {
      "inputs": [
        {
          "internalType": "string",
          "name": "schainName",
          "type": "string"
        }
      ],
      "name": "hasTokenManager",
      "outputs": [
        {
          "internalType": "bool",
          "name": "",
          "type": "bool"
        }
      ],
      "stateMutability": "view",
      "type": "function"
    },
    {
      "inputs": [
        {
          "internalType": "string",
          "name": "newChainName",
          "type": "string"
        },
        {
          "internalType": "contract MessageProxyForSchain",
          "name": "newMessageProxy",
          "type": "address"
        },
        {
          "internalType": "contract TokenManagerLinker",
          "name": "newIMALinker",
          "type": "address"
        },
        {
          "internalType": "contract CommunityLocker",
          "name": "newCommunityLocker",
          "type": "address"
        },
        {
          "internalType": "address",
          "name": "newDepositBox",
          "type": "address"
        },
        {
          "internalType": "contract EthErc20",
          "name": "ethErc20Address",
          "type": "address"
        }
      ],
      "name": "initialize",
      "outputs": [],
      "stateMutability": "nonpayable",
      "type": "function"
    },
    {
      "inputs": [
        {
          "internalType": "string",
          "name": "newSchainName",
          "type": "string"
        },
        {
          "internalType": "contract MessageProxyForSchain",
          "name": "newMessageProxy",
          "type": "address"
        },
        {
          "internalType": "contract TokenManagerLinker",
          "name": "newIMALinker",
          "type": "address"
        },
        {
          "internalType": "contract CommunityLocker",
          "name": "newCommunityLocker",
          "type": "address"
        },
        {
          "internalType": "address",
          "name": "newDepositBox",
          "type": "address"
        }
      ],
      "name": "initializeTokenManager",
      "outputs": [],
      "stateMutability": "nonpayable",
      "type": "function"
    },
    {
      "inputs": [],
      "name": "messageProxy",
      "outputs": [
        {
          "internalType": "contract MessageProxyForSchain",
          "name": "",
          "type": "address"
        }
      ],
      "stateMutability": "view",
      "type": "function"
    },
    {
      "inputs": [
        {
          "internalType": "bytes32",
          "name": "fromChainHash",
          "type": "bytes32"
        },
        {
          "internalType": "address",
          "name": "sender",
          "type": "address"
        },
        {
          "internalType": "bytes",
          "name": "data",
          "type": "bytes"
        }
      ],
      "name": "postMessage",
      "outputs": [
        {
          "internalType": "address",
          "name": "",
          "type": "address"
        }
      ],
      "stateMutability": "nonpayable",
      "type": "function"
    },
    {
      "inputs": [
        {
          "internalType": "string",
          "name": "schainName",
          "type": "string"
        }
      ],
      "name": "removeTokenManager",
      "outputs": [],
      "stateMutability": "nonpayable",
      "type": "function"
    },
    {
      "inputs": [
        {
          "internalType": "bytes32",
          "name": "role",
          "type": "bytes32"
        },
        {
          "internalType": "address",
          "name": "account",
          "type": "address"
        }
      ],
      "name": "renounceRole",
      "outputs": [],
      "stateMutability": "nonpayable",
      "type": "function"
    },
    {
      "inputs": [
        {
          "internalType": "bytes32",
          "name": "role",
          "type": "bytes32"
        },
        {
          "internalType": "address",
          "name": "account",
          "type": "address"
        }
      ],
      "name": "revokeRole",
      "outputs": [],
      "stateMutability": "nonpayable",
      "type": "function"
    },
    {
      "inputs": [],
      "name": "schainHash",
      "outputs": [
        {
          "internalType": "bytes32",
          "name": "",
          "type": "bytes32"
        }
      ],
      "stateMutability": "view",
      "type": "function"
    },
    {
      "inputs": [
        {
          "internalType": "contract EthErc20",
          "name": "newEthErc20Address",
          "type": "address"
        }
      ],
      "name": "setEthErc20Address",
      "outputs": [],
      "stateMutability": "nonpayable",
      "type": "function"
    },
    {
      "inputs": [],
      "name": "tokenManagerLinker",
      "outputs": [
        {
          "internalType": "contract TokenManagerLinker",
          "name": "",
          "type": "address"
        }
      ],
      "stateMutability": "view",
      "type": "function"
    },
    {
      "inputs": [
        {
          "internalType": "bytes32",
          "name": "",
          "type": "bytes32"
        }
      ],
      "name": "tokenManagers",
      "outputs": [
        {
          "internalType": "address",
          "name": "",
          "type": "address"
        }
      ],
      "stateMutability": "view",
      "type": "function"
    },
    {
      "inputs": [
        {
          "internalType": "string",
          "name": "targetSchainName",
          "type": "string"
        },
        {
          "internalType": "address",
          "name": "to",
          "type": "address"
        },
        {
          "internalType": "uint256",
          "name": "amount",
          "type": "uint256"
        }
      ],
      "name": "transferToSchain",
      "outputs": [],
      "stateMutability": "nonpayable",
      "type": "function"
    }
  ],
  "bytecode": "0x608060405234801561001057600080fd5b50611fc8806100206000396000f3fe608060405234801561001057600080fd5b50600436106101f05760003560e01c80638182e7071161010f578063c0e312dc116100a2578063d547741f11610071578063d547741f146103b9578063dec2deb6146103cc578063e4a9eaaf146103d4578063edcc12b5146103e7576101f0565b8063c0e312dc14610378578063ca15c8731461038b578063cb703bff1461039e578063cc5b715b146103b1576101f0565b806391d14854116100de57806391d148541461034d57806392d7846a14610360578063a217fddf14610368578063b9581c5014610370576101f0565b80638182e70714610301578063884cee5a146103145780638b71b4b5146103275780639010d07c1461033a576101f0565b80633b690b6b116101875780636ce681d2116101565780636ce681d2146102cb5780636d611286146102de5780636d6c68e6146102e657806372838baa146102ee576101f0565b80633b690b6b1461029e5780633fa194ce146102a657806350f44280146102ae5780635573b8b6146102c3576101f0565b80632dc151de116101c35780632dc151de146102505780632f2ff15d1461025857806336568abe1461026b57806339927cf91461027e576101f0565b8063029996b8146101f55780630f1a8f74146101ff578063248a9ca31461022857806328c5e18214610248575b600080fd5b6101fd6103fa565b005b61021261020d3660046115d2565b61044c565b60405161021f9190611983565b60405180910390f35b61023b6102363660046115d2565b610467565b60405161021f91906119bb565b61023b61047c565b6102126104c5565b6101fd6102663660046115ea565b6104d4565b6101fd6102793660046115ea565b61051c565b61029161028c3660046116af565b61055e565b60405161021f91906119b0565b61023b6105bb565b61023b6105c1565b6102b66105d3565b60405161021f91906119c4565b6102126105f6565b6101fd6102d936600461179c565b610605565b610212610758565b610212610767565b6101fd6102fc366004611744565b610776565b6101fd61030f366004611824565b6108e9565b610212610322366004611619565b61099a565b6101fd61033536600461158b565b610b23565b610212610348366004611673565b610b9a565b61029161035b3660046115ea565b610bb9565b610212610bd1565b61023b610be0565b6101fd610be5565b6101fd6103863660046116af565b610c28565b61023b6103993660046115d2565b610ce5565b6101fd6103ac3660046116ef565b610cfc565b61023b610df0565b6101fd6103c73660046115ea565b610e14565b610291610e4e565b6101fd6103e23660046115a7565b610e5e565b6101fd6103f536600461158b565b610f5e565b610412600080516020611f7383398151915233610bb9565b6104375760405162461bcd60e51b815260040161042e90611bd2565b60405180910390fd5b6069805460ff60a01b1916600160a01b179055565b606a602052600090815260409020546001600160a01b031681565b60009081526033602052604090206002015490565b6040518060400160405280600781526020016613585a5b9b995d60ca1b8152506040516020016104ac9190611967565b6040516020818303038152906040528051906020012081565b6066546001600160a01b031681565b6000828152603360205260409020600201546104f29061035b610fa7565b61050e5760405162461bcd60e51b815260040161042e90611a8e565b6105188282610fab565b5050565b610524610fa7565b6001600160a01b0316816001600160a01b0316146105545760405162461bcd60e51b815260040161042e90611e57565b6105188282611014565b6000806001600160a01b0316606a60008585604051602001610581929190611957565b60408051601f19818403018152918152815160209283012083529082019290925201600020546001600160a01b0316141590505b92915050565b60685481565b600080516020611f7383398151915281565b6040518060400160405280600781526020016613585a5b9b995d60ca1b81525081565b6065546001600160a01b031681565b600054610100900460ff168061061e575061061e61107d565b8061062c575060005460ff16155b6106485760405162461bcd60e51b815260040161042e90611c98565b600054610100900460ff16158015610673576000805460ff1961ff0019909116610100171660011790555b61067b61108e565b61068660003361050e565b61069e600080516020611f738339815191523361050e565b6106c87ffda70c2cc66a36c14884ee85424961f51b1d92b4494751699b6d105b3bcbcba83361050e565b856040516020016106d99190611967565b60408051601f198184030181529190528051602090910120606855606580546001600160a01b038088166001600160a01b031992831617909255606680548784169083161790556067805486841690831617905560698054928516929091169190911790558015610750576000805461ff00191690555b505050505050565b6069546001600160a01b031681565b6067546001600160a01b031681565b6000836040516020016107899190611967565b60408051601f1981840301815282825280516020918201208383018352600784526613585a5b9b995d60ca1b8483015291519193506107c9929101611967565b604051602081830303815290604052805190602001208114156107fe5760405162461bcd60e51b815260040161042e90611b4b565b6000818152606a60205260409020546001600160a01b03166108325760405162461bcd60e51b815260040161042e90611a15565b6001600160a01b0383166108585760405162461bcd60e51b815260040161042e90611d2d565b6108623383611121565b6065546000828152606a60205260409020546001600160a01b03918216916365e3781f918791166108938787611159565b6040518463ffffffff1660e01b81526004016108b1939291906119d7565b600060405180830381600087803b1580156108cb57600080fd5b505af11580156108df573d6000803e3d6000fd5b5050505050505050565b600054610100900460ff1680610902575061090261107d565b80610910575060005460ff16155b61092c5760405162461bcd60e51b815260040161042e90611c98565b600054610100900460ff16158015610957576000805460ff1961ff0019909116610100171660011790555b6109648787878787610605565b606b80546001600160a01b0319166001600160a01b0384161790558015610991576000805461ff00191690555b50505050505050565b6065546000906001600160a01b031633146109c75760405162461bcd60e51b815260040161042e90611add565b6068548514158015610a5457506040518060400160405280600781526020016613585a5b9b995d60ca1b815250604051602001610a049190611967565b604051602081830303815290604052805190602001208514610a42576000858152606a60205260409020546001600160a01b03858116911614610a54565b6069546001600160a01b038581169116145b610a705760405162461bcd60e51b815260040161042e90611d8e565b610a78611493565b610a8284846111bc565b60208101519091506001600160a01b038116610ab05760405162461bcd60e51b815260040161042e90611dfc565b606b5460408084015190516340c10f1960e01b81526001600160a01b03909216916340c10f1991610ae691859190600401611997565b600060405180830381600087803b158015610b0057600080fd5b505af1158015610b14573d6000803e3d6000fd5b50929998505050505050505050565b610b2e600033610bb9565b610b4a5760405162461bcd60e51b815260040161042e90611e28565b606b546001600160a01b0382811691161415610b785760405162461bcd60e51b815260040161042e90611d64565b606b80546001600160a01b0319166001600160a01b0392909216919091179055565b6000828152603360205260408120610bb29083611204565b9392505050565b6000828152603360205260408120610bb29083611210565b606b546001600160a01b031681565b600081565b610bfd600080516020611f7383398151915233610bb9565b610c195760405162461bcd60e51b815260040161042e90611bd2565b6069805460ff60a01b19169055565b6066546001600160a01b0316331480610c475750610c47600033610bb9565b610c635760405162461bcd60e51b815260040161042e90611e28565b60008282604051602001610c78929190611957565b60408051601f1981840301815291815281516020928301206000818152606a9093529120549091506001600160a01b0316610cc55760405162461bcd60e51b815260040161042e90611b9b565b6000908152606a6020526040902080546001600160a01b03191690555050565b60008181526033602052604081206105b590611225565b6066546001600160a01b0316331480610d1b5750610d1b600033610bb9565b610d375760405162461bcd60e51b815260040161042e90611e28565b60008383604051602001610d4c929190611957565b60408051601f1981840301815291815281516020928301206000818152606a9093529120549091506001600160a01b031615610d9a5760405162461bcd60e51b815260040161042e90611dc5565b6001600160a01b038216610dc05760405162461bcd60e51b815260040161042e90611a15565b6000908152606a6020526040902080546001600160a01b0319166001600160a01b03929092169190911790555050565b7ffda70c2cc66a36c14884ee85424961f51b1d92b4494751699b6d105b3bcbcba881565b600082815260336020526040902060020154610e329061035b610fa7565b6105545760405162461bcd60e51b815260040161042e90611c13565b606954600160a01b900460ff1681565b6001600160a01b038216610e845760405162461bcd60e51b815260040161042e90611d2d565b610e8e3382611121565b6067546040516311be333d60e11b81526001600160a01b039091169063237c667a90610ebe908590600401611983565b600060405180830381600087803b158015610ed857600080fd5b505af1158015610eec573d6000803e3d6000fd5b50506065546069546001600160a01b0391821693506365e3781f925016610f138585611159565b6040518363ffffffff1660e01b8152600401610f30929190611ce6565b600060405180830381600087803b158015610f4a57600080fd5b505af1158015610750573d6000803e3d6000fd5b610f69600033610bb9565b610f855760405162461bcd60e51b815260040161042e90611b14565b606980546001600160a01b0319166001600160a01b0392909216919091179055565b3390565b6000828152603360205260409020610fc39082611230565b1561051857610fd0610fa7565b6001600160a01b0316816001600160a01b0316837f2f8788117e7eff1d82e926ec794901d17c78024a50270940304540a733656f0d60405160405180910390a45050565b600082815260336020526040902061102c9082611245565b1561051857611039610fa7565b6001600160a01b0316816001600160a01b0316837ff6391f5c32d9c69d2a47ea670b442974b53935d1edc7fd64eb21e047a839171b60405160405180910390a45050565b60006110883061125a565b15905090565b600054610100900460ff16806110a757506110a761107d565b806110b5575060005460ff16155b6110d15760405162461bcd60e51b815260040161042e90611c98565b600054610100900460ff161580156110fc576000805460ff1961ff0019909116610100171660011790555b611104611260565b61110c611260565b801561111e576000805461ff00191690555b50565b801561051857606b546040516338b5bd8d60e21b81526001600160a01b039091169063e2d6f63490610f309085908590600401611997565b6060611163611493565b604080516080810190915280606081018060018152508152602001856001600160a01b03168152602001848152509050806040516020016111a49190611ea6565b60405160208183030381529060405291505092915050565b6111c4611493565b60016111d084846112e1565b600c8111156111db57fe5b146111f85760405162461bcd60e51b815260040161042e90611c63565b610bb2828401846118bd565b6000610bb28383611322565b6000610bb2836001600160a01b038416611367565b60006105b58261137f565b6000610bb2836001600160a01b038416611383565b6000610bb2836001600160a01b0384166113cd565b3b151590565b600054610100900460ff1680611279575061127961107d565b80611287575060005460ff16155b6112a35760405162461bcd60e51b815260040161042e90611c98565b600054610100900460ff1615801561110c576000805460ff1961ff001990911661010017166001179055801561111e576000805461ff001916905550565b6000806112f0838501856115d2565b9050602081066113165761130e61130984838188611f05565b6112e1565b9150506105b5565b61130e83850185611694565b815460009082106113455760405162461bcd60e51b815260040161042e90611a4c565b82600001828154811061135457fe5b9060005260206000200154905092915050565b60009081526001919091016020526040902054151590565b5490565b600061138f8383611367565b6113c5575081546001818101845560008481526020808220909301849055845484825282860190935260409020919091556105b5565b5060006105b5565b60008181526001830160205260408120548015611489578354600019808301919081019060009087908390811061140057fe5b906000526020600020015490508087600001848154811061141d57fe5b60009182526020808320909101929092558281526001898101909252604090209084019055865487908061144d57fe5b600190038181906000526020600020016000905590558660010160008781526020019081526020016000206000905560019450505050506105b5565b60009150506105b5565b60405180606001604052806114a66114ba565b815260006020820181905260409091015290565b60408051602081019091526000815290565b60008083601f8401126114dd578182fd5b50813567ffffffffffffffff8111156114f4578182fd5b60208301915083602082850101111561150c57600080fd5b9250929050565b8035600d81106105b557600080fd5b600082601f830112611532578081fd5b813567ffffffffffffffff811115611548578182fd5b61155b601f8201601f1916602001611ede565b915080825283602082850101111561157257600080fd5b8060208401602084013760009082016020015292915050565b60006020828403121561159c578081fd5b8135610bb281611f5d565b600080604083850312156115b9578081fd5b82356115c481611f5d565b946020939093013593505050565b6000602082840312156115e3578081fd5b5035919050565b600080604083850312156115fc578182fd5b82359150602083013561160e81611f5d565b809150509250929050565b6000806000806060858703121561162e578182fd5b84359350602085013561164081611f5d565b9250604085013567ffffffffffffffff81111561165b578283fd5b611667878288016114cc565b95989497509550505050565b60008060408385031215611685578182fd5b50508035926020909101359150565b6000602082840312156116a5578081fd5b610bb28383611513565b600080602083850312156116c1578182fd5b823567ffffffffffffffff8111156116d7578283fd5b6116e3858286016114cc565b90969095509350505050565b600080600060408486031215611703578283fd5b833567ffffffffffffffff811115611719578384fd5b611725868287016114cc565b909450925050602084013561173981611f5d565b809150509250925092565b600080600060608486031215611758578283fd5b833567ffffffffffffffff81111561176e578384fd5b61177a86828701611522565b935050602084013561178b81611f5d565b929592945050506040919091013590565b600080600080600060a086880312156117b3578283fd5b853567ffffffffffffffff8111156117c9578384fd5b6117d588828901611522565b95505060208601356117e681611f5d565b935060408601356117f681611f5d565b9250606086013561180681611f5d565b9150608086013561181681611f5d565b809150509295509295909350565b60008060008060008060c0878903121561183c578384fd5b863567ffffffffffffffff811115611852578485fd5b61185e89828a01611522565b965050602087013561186f81611f5d565b9450604087013561187f81611f5d565b9350606087013561188f81611f5d565b9250608087013561189f81611f5d565b915060a08701356118af81611f5d565b809150509295509295509295565b600081830360608112156118cf578182fd5b6118d96060611ede565b60208212156118e6578283fd5b6118f06020611ede565b91506118fc8585611513565b825290815260208301359061191082611f5d565b81602082015260408401356040820152809250505092915050565b60008151808452611943816020860160208601611f2d565b601f01601f19169290920160200192915050565b6000828483379101908152919050565b60008251611979818460208701611f2d565b9190910192915050565b6001600160a01b0391909116815260200190565b6001600160a01b03929092168252602082015260400190565b901515815260200190565b90815260200190565b600060208252610bb2602083018461192b565b6000606082526119ea606083018661192b565b6001600160a01b03851660208401528281036040840152611a0b818561192b565b9695505050505050565b6020808252601f908201527f496e636f727265637420546f6b656e204d616e61676572206164647265737300604082015260600190565b60208082526022908201527f456e756d657261626c655365743a20696e646578206f7574206f6620626f756e604082015261647360f01b606082015260800190565b6020808252602f908201527f416363657373436f6e74726f6c3a2073656e646572206d75737420626520616e60408201526e0818591b5a5b881d1bc819dc985b9d608a1b606082015260800190565b6020808252601c908201527f53656e646572206973206e6f742061204d65737361676550726f787900000000604082015260600190565b6020808252601e908201527f44454641554c545f41444d494e5f524f4c452069732072657175697265640000604082015260600190565b60208082526030908201527f546869732066756e6374696f6e206973206e6f7420666f72207472616e73666560408201526f1c9c9a5b99c81d1bc813585a5b9b995d60821b606082015260800190565b60208082526018908201527f546f6b656e204d616e61676572206973206e6f74207365740000000000000000604082015260600190565b60208082526021908201527f4155544f4d415449435f4445504c4f595f524f4c4520697320726571756972656040820152601960fa1b606082015260800190565b60208082526030908201527f416363657373436f6e74726f6c3a2073656e646572206d75737420626520616e60408201526f2061646d696e20746f207265766f6b6560801b606082015260800190565b6020808252818101527f4d6573736167652074797065206973206e6f7420455448207472616e73666572604082015260600190565b6020808252602e908201527f496e697469616c697a61626c653a20636f6e747261637420697320616c72656160408201526d191e481a5b9a5d1a585b1a5e995960921b606082015260800190565b600060608252600760608301526613585a5b9b995d60ca1b608083015260018060a01b038416602083015260a06040830152611d2560a083018461192b565b949350505050565b6020808252601a908201527f496e636f72726563742072656365697665722061646472657373000000000000604082015260600190565b60208082526010908201526f5468652073616d65206164647265737360801b604082015260600190565b6020808252601b908201527f526563656976657220636861696e20697320696e636f72726563740000000000604082015260600190565b6020808252601c908201527f546f6b656e204d616e6167657220697320616c72656164792073657400000000604082015260600190565b60208082526012908201527124b731b7b93932b1ba103932b1b2b4bb32b960711b604082015260600190565b6020808252601590820152742737ba1030baba3437b934bd32b21031b0b63632b960591b604082015260600190565b6020808252602f908201527f416363657373436f6e74726f6c3a2063616e206f6e6c792072656e6f756e636560408201526e103937b632b9903337b91039b2b63360891b606082015260800190565b8151516060820190600d8110611eb857fe5b82526020838101516001600160a01b031690830152604092830151929091019190915290565b60405181810167ffffffffffffffff81118282101715611efd57600080fd5b604052919050565b60008085851115611f14578182fd5b83861115611f20578182fd5b5050820193919092039150565b60005b83811015611f48578181015183820152602001611f30565b83811115611f57576000848401525b50505050565b6001600160a01b038116811461111e57600080fdfe7164765a3c8bd2513bdfa0c90f1bee9606e920fbf2c9071f310263fbd818684ba2646970667358221220b5d6b9961015d7b61725d765574ee25a30ccb9200edbcb519fc5b5356302c63f64736f6c634300060c0033",
  "linkReferences": {},
  "deployedLinkReferences": {}
}