{
  "_format": "hh-sol-artifact-1",
  "contractName": "TokenManagerEth",
  "sourceName": "contracts/schain/TokenManagers/TokenManagerEth.sol",
  "abi": [
    {
      "anonymous": false,
      "inputs": [
        {
          "indexed": true,
          "internalType": "bytes32",
          "name": "role",
          "type": "bytes32"
        },
        {
          "indexed": true,
          "internalType": "bytes32",
          "name": "previousAdminRole",
          "type": "bytes32"
        },
        {
          "indexed": true,
          "internalType": "bytes32",
          "name": "newAdminRole",
          "type": "bytes32"
        }
      ],
      "name": "RoleAdminChanged",
      "type": "event"
    },
    {
      "anonymous": false,
      "inputs": [
        {
          "indexed": true,
          "internalType": "bytes32",
          "name": "role",
          "type": "bytes32"
        },
        {
          "indexed": true,
          "internalType": "address",
          "name": "account",
          "type": "address"
        },
        {
          "indexed": true,
          "internalType": "address",
          "name": "sender",
          "type": "address"
        }
      ],
      "name": "RoleGranted",
      "type": "event"
    },
    {
      "anonymous": false,
      "inputs": [
        {
          "indexed": true,
          "internalType": "bytes32",
          "name": "role",
          "type": "bytes32"
        },
        {
          "indexed": true,
          "internalType": "address",
          "name": "account",
          "type": "address"
        },
        {
          "indexed": true,
          "internalType": "address",
          "name": "sender",
          "type": "address"
        }
      ],
      "name": "RoleRevoked",
      "type": "event"
    },
    {
      "inputs": [],
      "name": "AUTOMATIC_DEPLOY_ROLE",
      "outputs": [
        {
          "internalType": "bytes32",
          "name": "",
          "type": "bytes32"
        }
      ],
      "stateMutability": "view",
      "type": "function"
    },
    {
      "inputs": [],
      "name": "DEFAULT_ADMIN_ROLE",
      "outputs": [
        {
          "internalType": "bytes32",
          "name": "",
          "type": "bytes32"
        }
      ],
      "stateMutability": "view",
      "type": "function"
    },
    {
      "inputs": [],
      "name": "MAINNET_HASH",
      "outputs": [
        {
          "internalType": "bytes32",
          "name": "",
          "type": "bytes32"
        }
      ],
      "stateMutability": "view",
      "type": "function"
    },
    {
      "inputs": [],
      "name": "MAINNET_NAME",
      "outputs": [
        {
          "internalType": "string",
          "name": "",
          "type": "string"
        }
      ],
      "stateMutability": "view",
      "type": "function"
    },
    {
      "inputs": [],
      "name": "TOKEN_REGISTRAR_ROLE",
      "outputs": [
        {
          "internalType": "bytes32",
          "name": "",
          "type": "bytes32"
        }
      ],
      "stateMutability": "view",
      "type": "function"
    },
    {
      "inputs": [
        {
          "internalType": "string",
          "name": "schainName",
          "type": "string"
        },
        {
          "internalType": "address",
          "name": "newTokenManager",
          "type": "address"
        }
      ],
      "name": "addTokenManager",
      "outputs": [],
      "stateMutability": "nonpayable",
      "type": "function"
    },
    {
      "inputs": [],
      "name": "automaticDeploy",
      "outputs": [
        {
          "internalType": "bool",
          "name": "",
          "type": "bool"
        }
      ],
      "stateMutability": "view",
      "type": "function"
    },
    {
      "inputs": [
        {
          "internalType": "address",
          "name": "newDepositBox",
          "type": "address"
        }
      ],
      "name": "changeDepositBoxAddress",
      "outputs": [],
      "stateMutability": "nonpayable",
      "type": "function"
    },
    {
      "inputs": [],
      "name": "communityLocker",
      "outputs": [
        {
          "internalType": "contract CommunityLocker",
          "name": "",
          "type": "address"
        }
      ],
      "stateMutability": "view",
      "type": "function"
    },
    {
      "inputs": [],
      "name": "depositBox",
      "outputs": [
        {
          "internalType": "address",
          "name": "",
          "type": "address"
        }
      ],
      "stateMutability": "view",
      "type": "function"
    },
    {
      "inputs": [],
      "name": "disableAutomaticDeploy",
      "outputs": [],
      "stateMutability": "nonpayable",
      "type": "function"
    },
    {
      "inputs": [],
      "name": "enableAutomaticDeploy",
      "outputs": [],
      "stateMutability": "nonpayable",
      "type": "function"
    },
    {
      "inputs": [],
      "name": "ethErc20",
      "outputs": [
        {
          "internalType": "contract EthErc20",
          "name": "",
          "type": "address"
        }
      ],
      "stateMutability": "view",
      "type": "function"
    },
    {
      "inputs": [
        {
          "internalType": "address",
          "name": "to",
          "type": "address"
        },
        {
          "internalType": "uint256",
          "name": "amount",
          "type": "uint256"
        }
      ],
      "name": "exitToMain",
      "outputs": [],
      "stateMutability": "nonpayable",
      "type": "function"
    },
    {
      "inputs": [
        {
          "internalType": "bytes32",
          "name": "role",
          "type": "bytes32"
        }
      ],
      "name": "getRoleAdmin",
      "outputs": [
        {
          "internalType": "bytes32",
          "name": "",
          "type": "bytes32"
        }
      ],
      "stateMutability": "view",
      "type": "function"
    },
    {
      "inputs": [
        {
          "internalType": "bytes32",
          "name": "role",
          "type": "bytes32"
        },
        {
          "internalType": "uint256",
          "name": "index",
          "type": "uint256"
        }
      ],
      "name": "getRoleMember",
      "outputs": [
        {
          "internalType": "address",
          "name": "",
          "type": "address"
        }
      ],
      "stateMutability": "view",
      "type": "function"
    },
    {
      "inputs": [
        {
          "internalType": "bytes32",
          "name": "role",
          "type": "bytes32"
        }
      ],
      "name": "getRoleMemberCount",
      "outputs": [
        {
          "internalType": "uint256",
          "name": "",
          "type": "uint256"
        }
      ],
      "stateMutability": "view",
      "type": "function"
    },
    {
      "inputs": [
        {
          "internalType": "bytes32",
          "name": "role",
          "type": "bytes32"
        },
        {
          "internalType": "address",
          "name": "account",
          "type": "address"
        }
      ],
      "name": "grantRole",
      "outputs": [],
      "stateMutability": "nonpayable",
      "type": "function"
    },
    {
      "inputs": [
        {
          "internalType": "bytes32",
          "name": "role",
          "type": "bytes32"
        },
        {
          "internalType": "address",
          "name": "account",
          "type": "address"
        }
      ],
      "name": "hasRole",
      "outputs": [
        {
          "internalType": "bool",
          "name": "",
          "type": "bool"
        }
      ],
      "stateMutability": "view",
      "type": "function"
    },
    {
      "inputs": [
        {
          "internalType": "string",
          "name": "schainName",
          "type": "string"
        }
      ],
      "name": "hasTokenManager",
      "outputs": [
        {
          "internalType": "bool",
          "name": "",
          "type": "bool"
        }
      ],
      "stateMutability": "view",
      "type": "function"
    },
    {
      "inputs": [
        {
          "internalType": "string",
          "name": "newChainName",
          "type": "string"
        },
        {
          "internalType": "contract MessageProxyForSchain",
          "name": "newMessageProxy",
          "type": "address"
        },
        {
          "internalType": "contract TokenManagerLinker",
          "name": "newIMALinker",
          "type": "address"
        },
        {
          "internalType": "contract CommunityLocker",
          "name": "newCommunityLocker",
          "type": "address"
        },
        {
          "internalType": "address",
          "name": "newDepositBox",
          "type": "address"
        },
        {
          "internalType": "contract EthErc20",
          "name": "ethErc20Address",
          "type": "address"
        }
      ],
      "name": "initialize",
      "outputs": [],
      "stateMutability": "nonpayable",
      "type": "function"
    },
    {
      "inputs": [
        {
          "internalType": "string",
          "name": "newSchainName",
          "type": "string"
        },
        {
          "internalType": "contract MessageProxyForSchain",
          "name": "newMessageProxy",
          "type": "address"
        },
        {
          "internalType": "contract TokenManagerLinker",
          "name": "newIMALinker",
          "type": "address"
        },
        {
          "internalType": "contract CommunityLocker",
          "name": "newCommunityLocker",
          "type": "address"
        },
        {
          "internalType": "address",
          "name": "newDepositBox",
          "type": "address"
        }
      ],
      "name": "initializeTokenManager",
      "outputs": [],
      "stateMutability": "nonpayable",
      "type": "function"
    },
    {
      "inputs": [],
      "name": "messageProxy",
      "outputs": [
        {
          "internalType": "contract MessageProxyForSchain",
          "name": "",
          "type": "address"
        }
      ],
      "stateMutability": "view",
      "type": "function"
    },
    {
      "inputs": [
        {
          "internalType": "bytes32",
          "name": "fromChainHash",
          "type": "bytes32"
        },
        {
          "internalType": "address",
          "name": "sender",
          "type": "address"
        },
        {
          "internalType": "bytes",
          "name": "data",
          "type": "bytes"
        }
      ],
      "name": "postMessage",
      "outputs": [
        {
          "internalType": "address",
          "name": "",
          "type": "address"
        }
      ],
      "stateMutability": "nonpayable",
      "type": "function"
    },
    {
      "inputs": [
        {
          "internalType": "string",
          "name": "schainName",
          "type": "string"
        }
      ],
      "name": "removeTokenManager",
      "outputs": [],
      "stateMutability": "nonpayable",
      "type": "function"
    },
    {
      "inputs": [
        {
          "internalType": "bytes32",
          "name": "role",
          "type": "bytes32"
        },
        {
          "internalType": "address",
          "name": "account",
          "type": "address"
        }
      ],
      "name": "renounceRole",
      "outputs": [],
      "stateMutability": "nonpayable",
      "type": "function"
    },
    {
      "inputs": [
        {
          "internalType": "bytes32",
          "name": "role",
          "type": "bytes32"
        },
        {
          "internalType": "address",
          "name": "account",
          "type": "address"
        }
      ],
      "name": "revokeRole",
      "outputs": [],
      "stateMutability": "nonpayable",
      "type": "function"
    },
    {
      "inputs": [],
      "name": "schainHash",
      "outputs": [
        {
          "internalType": "bytes32",
          "name": "",
          "type": "bytes32"
        }
      ],
      "stateMutability": "view",
      "type": "function"
    },
    {
      "inputs": [
        {
          "internalType": "contract EthErc20",
          "name": "newEthErc20Address",
          "type": "address"
        }
      ],
      "name": "setEthErc20Address",
      "outputs": [],
      "stateMutability": "nonpayable",
      "type": "function"
    },
    {
      "inputs": [],
      "name": "tokenManagerLinker",
      "outputs": [
        {
          "internalType": "contract TokenManagerLinker",
          "name": "",
          "type": "address"
        }
      ],
      "stateMutability": "view",
      "type": "function"
    },
    {
      "inputs": [
        {
          "internalType": "bytes32",
          "name": "",
          "type": "bytes32"
        }
      ],
      "name": "tokenManagers",
      "outputs": [
        {
          "internalType": "address",
          "name": "",
          "type": "address"
        }
      ],
      "stateMutability": "view",
      "type": "function"
    },
    {
      "inputs": [
        {
          "internalType": "string",
          "name": "targetSchainName",
          "type": "string"
        },
        {
          "internalType": "address",
          "name": "to",
          "type": "address"
        },
        {
          "internalType": "uint256",
          "name": "amount",
          "type": "uint256"
        }
      ],
      "name": "transferToSchain",
      "outputs": [],
      "stateMutability": "nonpayable",
      "type": "function"
    }
  ],
  "bytecode": "0x608060405234801561001057600080fd5b50611f79806100206000396000f3fe608060405234801561001057600080fd5b50600436106101f05760003560e01c80638182e7071161010f578063c0e312dc116100a2578063d547741f11610071578063d547741f146103b9578063dec2deb6146103cc578063e4a9eaaf146103d4578063edcc12b5146103e7576101f0565b8063c0e312dc14610378578063ca15c8731461038b578063cb703bff1461039e578063cc5b715b146103b1576101f0565b806391d14854116100de57806391d148541461034d57806392d7846a14610360578063a217fddf14610368578063b9581c5014610370576101f0565b80638182e70714610301578063884cee5a146103145780638b71b4b5146103275780639010d07c1461033a576101f0565b80633b690b6b116101875780636ce681d2116101565780636ce681d2146102cb5780636d611286146102de5780636d6c68e6146102e657806372838baa146102ee576101f0565b80633b690b6b1461029e5780633fa194ce146102a657806350f44280146102ae5780635573b8b6146102c3576101f0565b80632dc151de116101c35780632dc151de146102505780632f2ff15d1461025857806336568abe1461026b57806339927cf91461027e576101f0565b8063029996b8146101f55780630f1a8f74146101ff578063248a9ca31461022857806328c5e18214610248575b600080fd5b6101fd6103fa565b005b61021261020d3660046115d9565b61044c565b60405161021f919061198a565b60405180910390f35b61023b6102363660046115d9565b610467565b60405161021f91906119c2565b61023b61047c565b6102126104c5565b6101fd6102663660046115f1565b6104d4565b6101fd6102793660046115f1565b61051c565b61029161028c3660046116b6565b61055e565b60405161021f91906119b7565b61023b6105bb565b61023b6105c1565b6102b66105d3565b60405161021f91906119fe565b6102126105f6565b6101fd6102d93660046117a3565b610605565b610212610758565b610212610767565b6101fd6102fc36600461174b565b610776565b6101fd61030f36600461182b565b61085d565b610212610322366004611620565b61090e565b6101fd610335366004611592565b610a97565b61021261034836600461167a565b610b0e565b61029161035b3660046115f1565b610b2d565b610212610b45565b61023b610b54565b6101fd610b59565b6101fd6103863660046116b6565b610b9c565b61023b6103993660046115d9565b610c59565b6101fd6103ac3660046116f6565b610c70565b61023b610d64565b6101fd6103c73660046115f1565b610d88565b610291610dc2565b6101fd6103e23660046115ae565b610dd2565b6101fd6103f5366004611592565b610e92565b610412600080516020611f2483398151915233610b2d565b6104375760405162461bcd60e51b815260040161042e90611bce565b60405180910390fd5b6069805460ff60a01b1916600160a01b179055565b606a602052600090815260409020546001600160a01b031681565b60009081526033602052604090206002015490565b6040518060400160405280600781526020016613585a5b9b995d60ca1b8152506040516020016104ac919061196e565b6040516020818303038152906040528051906020012081565b6066546001600160a01b031681565b6000828152603360205260409020600201546104f29061035b610edb565b61050e5760405162461bcd60e51b815260040161042e90611a8a565b6105188282610edf565b5050565b610524610edb565b6001600160a01b0316816001600160a01b0316146105545760405162461bcd60e51b815260040161042e90611e0c565b6105188282610f48565b6000806001600160a01b0316606a6000858560405160200161058192919061195e565b60408051601f19818403018152918152815160209283012083529082019290925201600020546001600160a01b0316141590505b92915050565b60685481565b600080516020611f2483398151915281565b6040518060400160405280600781526020016613585a5b9b995d60ca1b81525081565b6065546001600160a01b031681565b600054610100900460ff168061061e575061061e610fb1565b8061062c575060005460ff16155b6106485760405162461bcd60e51b815260040161042e90611c94565b600054610100900460ff16158015610673576000805460ff1961ff0019909116610100171660011790555b61067b610fc2565b61068660003361050e565b61069e600080516020611f248339815191523361050e565b6106c87ffda70c2cc66a36c14884ee85424961f51b1d92b4494751699b6d105b3bcbcba83361050e565b856040516020016106d9919061196e565b60408051601f198184030181529190528051602090910120606855606580546001600160a01b038088166001600160a01b031992831617909255606680548784169083161790556067805486841690831617905560698054928516929091169190911790558015610750576000805461ff00191690555b505050505050565b6069546001600160a01b031681565b6067546001600160a01b031681565b600083604051602001610789919061196e565b60408051601f1981840301815282825280516020918201208383018352600784526613585a5b9b995d60ca1b8483015291519193506107c992910161196e565b604051602081830303815290604052805190602001208114156107fe5760405162461bcd60e51b815260040161042e90611b47565b6000818152606a60205260409020546001600160a01b03166108325760405162461bcd60e51b815260040161042e90611a11565b6000818152606a60205260409020546108579082906001600160a01b03168585611055565b50505050565b600054610100900460ff16806108765750610876610fb1565b80610884575060005460ff16155b6108a05760405162461bcd60e51b815260040161042e90611c94565b600054610100900460ff161580156108cb576000805460ff1961ff0019909116610100171660011790555b6108d88787878787610605565b606b80546001600160a01b0319166001600160a01b0384161790558015610905576000805461ff00191690555b50505050505050565b6065546000906001600160a01b0316331461093b5760405162461bcd60e51b815260040161042e90611ad9565b60685485141580156109c857506040518060400160405280600781526020016613585a5b9b995d60ca1b815250604051602001610978919061196e565b6040516020818303038152906040528051906020012085146109b6576000858152606a60205260409020546001600160a01b038581169116146109c8565b6069546001600160a01b038581169116145b6109e45760405162461bcd60e51b815260040161042e90611d43565b6109ec61149a565b6109f68484611160565b60208101519091506001600160a01b038116610a245760405162461bcd60e51b815260040161042e90611db1565b606b5460408084015190516340c10f1960e01b81526001600160a01b03909216916340c10f1991610a5a9185919060040161199e565b600060405180830381600087803b158015610a7457600080fd5b505af1158015610a88573d6000803e3d6000fd5b50929998505050505050505050565b610aa2600033610b2d565b610abe5760405162461bcd60e51b815260040161042e90611ddd565b606b546001600160a01b0382811691161415610aec5760405162461bcd60e51b815260040161042e90611d19565b606b80546001600160a01b0319166001600160a01b0392909216919091179055565b6000828152603360205260408120610b2690836111a8565b9392505050565b6000828152603360205260408120610b2690836111b4565b606b546001600160a01b031681565b600081565b610b71600080516020611f2483398151915233610b2d565b610b8d5760405162461bcd60e51b815260040161042e90611bce565b6069805460ff60a01b19169055565b6066546001600160a01b0316331480610bbb5750610bbb600033610b2d565b610bd75760405162461bcd60e51b815260040161042e90611ddd565b60008282604051602001610bec92919061195e565b60408051601f1981840301815291815281516020928301206000818152606a9093529120549091506001600160a01b0316610c395760405162461bcd60e51b815260040161042e90611b97565b6000908152606a6020526040902080546001600160a01b03191690555050565b60008181526033602052604081206105b5906111c9565b6066546001600160a01b0316331480610c8f5750610c8f600033610b2d565b610cab5760405162461bcd60e51b815260040161042e90611ddd565b60008383604051602001610cc092919061195e565b60408051601f1981840301815291815281516020928301206000818152606a9093529120549091506001600160a01b031615610d0e5760405162461bcd60e51b815260040161042e90611d7a565b6001600160a01b038216610d345760405162461bcd60e51b815260040161042e90611a11565b6000908152606a6020526040902080546001600160a01b0319166001600160a01b03929092169190911790555050565b7ffda70c2cc66a36c14884ee85424961f51b1d92b4494751699b6d105b3bcbcba881565b600082815260336020526040902060020154610da69061035b610edb565b6105545760405162461bcd60e51b815260040161042e90611c0f565b606954600160a01b900460ff1681565b6067546040516311be333d60e11b81526001600160a01b039091169063237c667a90610e0290859060040161198a565b600060405180830381600087803b158015610e1c57600080fd5b505af1158015610e30573d6000803e3d6000fd5b505050506105186040518060400160405280600781526020016613585a5b9b995d60ca1b815250604051602001610e67919061196e565b60408051601f1981840301815291905280516020909101206069546001600160a01b03168484611055565b610e9d600033610b2d565b610eb95760405162461bcd60e51b815260040161042e90611b10565b606980546001600160a01b0319166001600160a01b0392909216919091179055565b3390565b6000828152603360205260409020610ef790826111d4565b1561051857610f04610edb565b6001600160a01b0316816001600160a01b0316837f2f8788117e7eff1d82e926ec794901d17c78024a50270940304540a733656f0d60405160405180910390a45050565b6000828152603360205260409020610f6090826111e9565b1561051857610f6d610edb565b6001600160a01b0316816001600160a01b0316837ff6391f5c32d9c69d2a47ea670b442974b53935d1edc7fd64eb21e047a839171b60405160405180910390a45050565b6000610fbc306111fe565b15905090565b600054610100900460ff1680610fdb5750610fdb610fb1565b80610fe9575060005460ff16155b6110055760405162461bcd60e51b815260040161042e90611c94565b600054610100900460ff16158015611030576000805460ff1961ff0019909116610100171660011790555b611038611204565b611040611204565b8015611052576000805461ff00191690555b50565b6001600160a01b03821661107b5760405162461bcd60e51b815260040161042e90611ce2565b80156110e657606b546040516338b5bd8d60e21b81526001600160a01b039091169063e2d6f634906110b3903390859060040161199e565b600060405180830381600087803b1580156110cd57600080fd5b505af11580156110e1573d6000803e3d6000fd5b505050505b60606110f28383611285565b606554604051634a24490160e11b81529192506001600160a01b031690639448920290611127908890889086906004016119cb565b600060405180830381600087803b15801561114157600080fd5b505af1158015611155573d6000803e3d6000fd5b505050505050505050565b61116861149a565b600161117484846112e8565b600c81111561117f57fe5b1461119c5760405162461bcd60e51b815260040161042e90611c5f565b610b26828401846118c4565b6000610b268383611329565b6000610b26836001600160a01b03841661136e565b60006105b582611386565b6000610b26836001600160a01b03841661138a565b6000610b26836001600160a01b0384166113d4565b3b151590565b600054610100900460ff168061121d575061121d610fb1565b8061122b575060005460ff16155b6112475760405162461bcd60e51b815260040161042e90611c94565b600054610100900460ff16158015611040576000805460ff1961ff0019909116610100171660011790558015611052576000805461ff001916905550565b606061128f61149a565b604080516080810190915280606081018060018152508152602001856001600160a01b03168152602001848152509050806040516020016112d09190611e5b565b60405160208183030381529060405291505092915050565b6000806112f7838501856115d9565b90506020810661131d5761131561131084838188611eba565b6112e8565b9150506105b5565b6113158385018561169b565b8154600090821061134c5760405162461bcd60e51b815260040161042e90611a48565b82600001828154811061135b57fe5b9060005260206000200154905092915050565b60009081526001919091016020526040902054151590565b5490565b6000611396838361136e565b6113cc575081546001818101845560008481526020808220909301849055845484825282860190935260409020919091556105b5565b5060006105b5565b60008181526001830160205260408120548015611490578354600019808301919081019060009087908390811061140757fe5b906000526020600020015490508087600001848154811061142457fe5b60009182526020808320909101929092558281526001898101909252604090209084019055865487908061145457fe5b600190038181906000526020600020016000905590558660010160008781526020019081526020016000206000905560019450505050506105b5565b60009150506105b5565b60405180606001604052806114ad6114c1565b815260006020820181905260409091015290565b60408051602081019091526000815290565b60008083601f8401126114e4578182fd5b50813567ffffffffffffffff8111156114fb578182fd5b60208301915083602082850101111561151357600080fd5b9250929050565b8035600d81106105b557600080fd5b600082601f830112611539578081fd5b813567ffffffffffffffff81111561154f578182fd5b611562601f8201601f1916602001611e93565b915080825283602082850101111561157957600080fd5b8060208401602084013760009082016020015292915050565b6000602082840312156115a3578081fd5b8135610b2681611f0e565b600080604083850312156115c0578081fd5b82356115cb81611f0e565b946020939093013593505050565b6000602082840312156115ea578081fd5b5035919050565b60008060408385031215611603578182fd5b82359150602083013561161581611f0e565b809150509250929050565b60008060008060608587031215611635578182fd5b84359350602085013561164781611f0e565b9250604085013567ffffffffffffffff811115611662578283fd5b61166e878288016114d3565b95989497509550505050565b6000806040838503121561168c578182fd5b50508035926020909101359150565b6000602082840312156116ac578081fd5b610b26838361151a565b600080602083850312156116c8578182fd5b823567ffffffffffffffff8111156116de578283fd5b6116ea858286016114d3565b90969095509350505050565b60008060006040848603121561170a578283fd5b833567ffffffffffffffff811115611720578384fd5b61172c868287016114d3565b909450925050602084013561174081611f0e565b809150509250925092565b60008060006060848603121561175f578283fd5b833567ffffffffffffffff811115611775578384fd5b61178186828701611529565b935050602084013561179281611f0e565b929592945050506040919091013590565b600080600080600060a086880312156117ba578283fd5b853567ffffffffffffffff8111156117d0578384fd5b6117dc88828901611529565b95505060208601356117ed81611f0e565b935060408601356117fd81611f0e565b9250606086013561180d81611f0e565b9150608086013561181d81611f0e565b809150509295509295909350565b60008060008060008060c08789031215611843578384fd5b863567ffffffffffffffff811115611859578485fd5b61186589828a01611529565b965050602087013561187681611f0e565b9450604087013561188681611f0e565b9350606087013561189681611f0e565b925060808701356118a681611f0e565b915060a08701356118b681611f0e565b809150509295509295509295565b600081830360608112156118d6578182fd5b6118e06060611e93565b60208212156118ed578283fd5b6118f76020611e93565b9150611903858561151a565b825290815260208301359061191782611f0e565b81602082015260408401356040820152809250505092915050565b6000815180845261194a816020860160208601611ee2565b601f01601f19169290920160200192915050565b6000828483379101908152919050565b60008251611980818460208701611ee2565b9190910192915050565b6001600160a01b0391909116815260200190565b6001600160a01b03929092168252602082015260400190565b901515815260200190565b90815260200190565b8381526001600160a01b03831660208201526060604082018190526000906119f590830184611932565b95945050505050565b600060208252610b266020830184611932565b6020808252601f908201527f496e636f727265637420546f6b656e204d616e61676572206164647265737300604082015260600190565b60208082526022908201527f456e756d657261626c655365743a20696e646578206f7574206f6620626f756e604082015261647360f01b606082015260800190565b6020808252602f908201527f416363657373436f6e74726f6c3a2073656e646572206d75737420626520616e60408201526e0818591b5a5b881d1bc819dc985b9d608a1b606082015260800190565b6020808252601c908201527f53656e646572206973206e6f742061204d65737361676550726f787900000000604082015260600190565b6020808252601e908201527f44454641554c545f41444d494e5f524f4c452069732072657175697265640000604082015260600190565b60208082526030908201527f546869732066756e6374696f6e206973206e6f7420666f72207472616e73666560408201526f1c9c9a5b99c81d1bc813585a5b9b995d60821b606082015260800190565b60208082526018908201527f546f6b656e204d616e61676572206973206e6f74207365740000000000000000604082015260600190565b60208082526021908201527f4155544f4d415449435f4445504c4f595f524f4c4520697320726571756972656040820152601960fa1b606082015260800190565b60208082526030908201527f416363657373436f6e74726f6c3a2073656e646572206d75737420626520616e60408201526f2061646d696e20746f207265766f6b6560801b606082015260800190565b6020808252818101527f4d6573736167652074797065206973206e6f7420455448207472616e73666572604082015260600190565b6020808252602e908201527f496e697469616c697a61626c653a20636f6e747261637420697320616c72656160408201526d191e481a5b9a5d1a585b1a5e995960921b606082015260800190565b6020808252601a908201527f496e636f72726563742072656365697665722061646472657373000000000000604082015260600190565b60208082526010908201526f5468652073616d65206164647265737360801b604082015260600190565b6020808252601b908201527f526563656976657220636861696e20697320696e636f72726563740000000000604082015260600190565b6020808252601c908201527f546f6b656e204d616e6167657220697320616c72656164792073657400000000604082015260600190565b60208082526012908201527124b731b7b93932b1ba103932b1b2b4bb32b960711b604082015260600190565b6020808252601590820152742737ba1030baba3437b934bd32b21031b0b63632b960591b604082015260600190565b6020808252602f908201527f416363657373436f6e74726f6c3a2063616e206f6e6c792072656e6f756e636560408201526e103937b632b9903337b91039b2b63360891b606082015260800190565b8151516060820190600d8110611e6d57fe5b82526020838101516001600160a01b031690830152604092830151929091019190915290565b60405181810167ffffffffffffffff81118282101715611eb257600080fd5b604052919050565b60008085851115611ec9578182fd5b83861115611ed5578182fd5b5050820193919092039150565b60005b83811015611efd578181015183820152602001611ee5565b838111156108575750506000910152565b6001600160a01b038116811461105257600080fdfe7164765a3c8bd2513bdfa0c90f1bee9606e920fbf2c9071f310263fbd818684ba264697066735822122045c479ec72940abfbf45d67dc3c80544d220bca012e4d70467999d46be52dc7964736f6c634300060c0033",
  "linkReferences": {},
  "deployedLinkReferences": {}
}