{
  "_format": "hh-sol-artifact-1",
  "contractName": "TokenManagerERC1155",
  "sourceName": "contracts/schain/TokenManagers/TokenManagerERC1155.sol",
  "abi": [
    {
      "anonymous": false,
      "inputs": [
        {
          "indexed": true,
          "internalType": "address",
          "name": "erc1155OnMainnet",
          "type": "address"
        },
        {
          "indexed": true,
          "internalType": "address",
          "name": "erc1155OnSchain",
          "type": "address"
        }
      ],
      "name": "ERC1155TokenAdded",
      "type": "event"
    },
    {
      "anonymous": false,
      "inputs": [
        {
          "indexed": true,
          "internalType": "address",
          "name": "erc1155OnMainnet",
          "type": "address"
        },
        {
          "indexed": true,
          "internalType": "address",
          "name": "erc1155OnSchain",
          "type": "address"
        }
      ],
      "name": "ERC1155TokenCreated",
      "type": "event"
    },
    {
      "anonymous": false,
      "inputs": [
        {
          "indexed": true,
          "internalType": "address",
          "name": "erc1155OnMainnet",
          "type": "address"
        },
        {
          "indexed": true,
          "internalType": "address",
          "name": "erc1155OnSchain",
          "type": "address"
        },
        {
          "indexed": false,
          "internalType": "uint256[]",
          "name": "ids",
          "type": "uint256[]"
        },
        {
          "indexed": false,
          "internalType": "uint256[]",
          "name": "amounts",
          "type": "uint256[]"
        }
      ],
      "name": "ERC1155TokenReceived",
      "type": "event"
    },
    {
      "anonymous": false,
      "inputs": [
        {
          "indexed": true,
          "internalType": "bytes32",
          "name": "role",
          "type": "bytes32"
        },
        {
          "indexed": true,
          "internalType": "bytes32",
          "name": "previousAdminRole",
          "type": "bytes32"
        },
        {
          "indexed": true,
          "internalType": "bytes32",
          "name": "newAdminRole",
          "type": "bytes32"
        }
      ],
      "name": "RoleAdminChanged",
      "type": "event"
    },
    {
      "anonymous": false,
      "inputs": [
        {
          "indexed": true,
          "internalType": "bytes32",
          "name": "role",
          "type": "bytes32"
        },
        {
          "indexed": true,
          "internalType": "address",
          "name": "account",
          "type": "address"
        },
        {
          "indexed": true,
          "internalType": "address",
          "name": "sender",
          "type": "address"
        }
      ],
      "name": "RoleGranted",
      "type": "event"
    },
    {
      "anonymous": false,
      "inputs": [
        {
          "indexed": true,
          "internalType": "bytes32",
          "name": "role",
          "type": "bytes32"
        },
        {
          "indexed": true,
          "internalType": "address",
          "name": "account",
          "type": "address"
        },
        {
          "indexed": true,
          "internalType": "address",
          "name": "sender",
          "type": "address"
        }
      ],
      "name": "RoleRevoked",
      "type": "event"
    },
    {
      "inputs": [],
      "name": "AUTOMATIC_DEPLOY_ROLE",
      "outputs": [
        {
          "internalType": "bytes32",
          "name": "",
          "type": "bytes32"
        }
      ],
      "stateMutability": "view",
      "type": "function"
    },
    {
      "inputs": [],
      "name": "DEFAULT_ADMIN_ROLE",
      "outputs": [
        {
          "internalType": "bytes32",
          "name": "",
          "type": "bytes32"
        }
      ],
      "stateMutability": "view",
      "type": "function"
    },
    {
      "inputs": [],
      "name": "MAINNET_HASH",
      "outputs": [
        {
          "internalType": "bytes32",
          "name": "",
          "type": "bytes32"
        }
      ],
      "stateMutability": "view",
      "type": "function"
    },
    {
      "inputs": [],
      "name": "MAINNET_NAME",
      "outputs": [
        {
          "internalType": "string",
          "name": "",
          "type": "string"
        }
      ],
      "stateMutability": "view",
      "type": "function"
    },
    {
      "inputs": [],
      "name": "TOKEN_REGISTRAR_ROLE",
      "outputs": [
        {
          "internalType": "bytes32",
          "name": "",
          "type": "bytes32"
        }
      ],
      "stateMutability": "view",
      "type": "function"
    },
    {
      "inputs": [
        {
          "internalType": "address",
          "name": "erc1155OnMainnet",
          "type": "address"
        },
        {
          "internalType": "contract ERC1155OnChain",
          "name": "erc1155OnSchain",
          "type": "address"
        }
      ],
      "name": "addERC1155TokenByOwner",
      "outputs": [],
      "stateMutability": "nonpayable",
      "type": "function"
    },
    {
      "inputs": [
        {
          "internalType": "string",
          "name": "schainName",
          "type": "string"
        },
        {
          "internalType": "address",
          "name": "newTokenManager",
          "type": "address"
        }
      ],
      "name": "addTokenManager",
      "outputs": [],
      "stateMutability": "nonpayable",
      "type": "function"
    },
    {
      "inputs": [],
      "name": "automaticDeploy",
      "outputs": [
        {
          "internalType": "bool",
          "name": "",
          "type": "bool"
        }
      ],
      "stateMutability": "view",
      "type": "function"
    },
    {
      "inputs": [
        {
          "internalType": "address",
          "name": "newDepositBox",
          "type": "address"
        }
      ],
      "name": "changeDepositBoxAddress",
      "outputs": [],
      "stateMutability": "nonpayable",
      "type": "function"
    },
    {
      "inputs": [
        {
          "internalType": "address",
          "name": "",
          "type": "address"
        }
      ],
      "name": "clonesErc1155",
      "outputs": [
        {
          "internalType": "contract ERC1155OnChain",
          "name": "",
          "type": "address"
        }
      ],
      "stateMutability": "view",
      "type": "function"
    },
    {
      "inputs": [],
      "name": "communityLocker",
      "outputs": [
        {
          "internalType": "contract CommunityLocker",
          "name": "",
          "type": "address"
        }
      ],
      "stateMutability": "view",
      "type": "function"
    },
    {
      "inputs": [],
      "name": "depositBox",
      "outputs": [
        {
          "internalType": "address",
          "name": "",
          "type": "address"
        }
      ],
      "stateMutability": "view",
      "type": "function"
    },
    {
      "inputs": [],
      "name": "disableAutomaticDeploy",
      "outputs": [],
      "stateMutability": "nonpayable",
      "type": "function"
    },
    {
      "inputs": [],
      "name": "enableAutomaticDeploy",
      "outputs": [],
      "stateMutability": "nonpayable",
      "type": "function"
    },
    {
      "inputs": [
        {
          "internalType": "address",
          "name": "contractOnMainnet",
          "type": "address"
        },
        {
          "internalType": "address",
          "name": "to",
          "type": "address"
        },
        {
          "internalType": "uint256",
          "name": "id",
          "type": "uint256"
        },
        {
          "internalType": "uint256",
          "name": "amount",
          "type": "uint256"
        }
      ],
      "name": "exitToMainERC1155",
      "outputs": [],
      "stateMutability": "nonpayable",
      "type": "function"
    },
    {
      "inputs": [
        {
          "internalType": "address",
          "name": "contractOnMainnet",
          "type": "address"
        },
        {
          "internalType": "address",
          "name": "to",
          "type": "address"
        },
        {
          "internalType": "uint256[]",
          "name": "ids",
          "type": "uint256[]"
        },
        {
          "internalType": "uint256[]",
          "name": "amounts",
          "type": "uint256[]"
        }
      ],
      "name": "exitToMainERC1155Batch",
      "outputs": [],
      "stateMutability": "nonpayable",
      "type": "function"
    },
    {
      "inputs": [
        {
          "internalType": "bytes32",
          "name": "role",
          "type": "bytes32"
        }
      ],
      "name": "getRoleAdmin",
      "outputs": [
        {
          "internalType": "bytes32",
          "name": "",
          "type": "bytes32"
        }
      ],
      "stateMutability": "view",
      "type": "function"
    },
    {
      "inputs": [
        {
          "internalType": "bytes32",
          "name": "role",
          "type": "bytes32"
        },
        {
          "internalType": "uint256",
          "name": "index",
          "type": "uint256"
        }
      ],
      "name": "getRoleMember",
      "outputs": [
        {
          "internalType": "address",
          "name": "",
          "type": "address"
        }
      ],
      "stateMutability": "view",
      "type": "function"
    },
    {
      "inputs": [
        {
          "internalType": "bytes32",
          "name": "role",
          "type": "bytes32"
        }
      ],
      "name": "getRoleMemberCount",
      "outputs": [
        {
          "internalType": "uint256",
          "name": "",
          "type": "uint256"
        }
      ],
      "stateMutability": "view",
      "type": "function"
    },
    {
      "inputs": [
        {
          "internalType": "bytes32",
          "name": "role",
          "type": "bytes32"
        },
        {
          "internalType": "address",
          "name": "account",
          "type": "address"
        }
      ],
      "name": "grantRole",
      "outputs": [],
      "stateMutability": "nonpayable",
      "type": "function"
    },
    {
      "inputs": [
        {
          "internalType": "bytes32",
          "name": "role",
          "type": "bytes32"
        },
        {
          "internalType": "address",
          "name": "account",
          "type": "address"
        }
      ],
      "name": "hasRole",
      "outputs": [
        {
          "internalType": "bool",
          "name": "",
          "type": "bool"
        }
      ],
      "stateMutability": "view",
      "type": "function"
    },
    {
      "inputs": [
        {
          "internalType": "string",
          "name": "schainName",
          "type": "string"
        }
      ],
      "name": "hasTokenManager",
      "outputs": [
        {
          "internalType": "bool",
          "name": "",
          "type": "bool"
        }
      ],
      "stateMutability": "view",
      "type": "function"
    },
    {
      "inputs": [
        {
          "internalType": "string",
          "name": "newChainName",
          "type": "string"
        },
        {
          "internalType": "contract MessageProxyForSchain",
          "name": "newMessageProxy",
          "type": "address"
        },
        {
          "internalType": "contract TokenManagerLinker",
          "name": "newIMALinker",
          "type": "address"
        },
        {
          "internalType": "contract CommunityLocker",
          "name": "newCommunityLocker",
          "type": "address"
        },
        {
          "internalType": "address",
          "name": "newDepositBox",
          "type": "address"
        }
      ],
      "name": "initialize",
      "outputs": [],
      "stateMutability": "nonpayable",
      "type": "function"
    },
    {
      "inputs": [
        {
          "internalType": "string",
          "name": "newSchainName",
          "type": "string"
        },
        {
          "internalType": "contract MessageProxyForSchain",
          "name": "newMessageProxy",
          "type": "address"
        },
        {
          "internalType": "contract TokenManagerLinker",
          "name": "newIMALinker",
          "type": "address"
        },
        {
          "internalType": "contract CommunityLocker",
          "name": "newCommunityLocker",
          "type": "address"
        },
        {
          "internalType": "address",
          "name": "newDepositBox",
          "type": "address"
        }
      ],
      "name": "initializeTokenManager",
      "outputs": [],
      "stateMutability": "nonpayable",
      "type": "function"
    },
    {
      "inputs": [],
      "name": "messageProxy",
      "outputs": [
        {
          "internalType": "contract MessageProxyForSchain",
          "name": "",
          "type": "address"
        }
      ],
      "stateMutability": "view",
      "type": "function"
    },
    {
      "inputs": [
        {
          "internalType": "bytes32",
          "name": "fromChainHash",
          "type": "bytes32"
        },
        {
          "internalType": "address",
          "name": "sender",
          "type": "address"
        },
        {
          "internalType": "bytes",
          "name": "data",
          "type": "bytes"
        }
      ],
      "name": "postMessage",
      "outputs": [
        {
          "internalType": "address",
          "name": "",
          "type": "address"
        }
      ],
      "stateMutability": "nonpayable",
      "type": "function"
    },
    {
      "inputs": [
        {
          "internalType": "string",
          "name": "schainName",
          "type": "string"
        }
      ],
      "name": "removeTokenManager",
      "outputs": [],
      "stateMutability": "nonpayable",
      "type": "function"
    },
    {
      "inputs": [
        {
          "internalType": "bytes32",
          "name": "role",
          "type": "bytes32"
        },
        {
          "internalType": "address",
          "name": "account",
          "type": "address"
        }
      ],
      "name": "renounceRole",
      "outputs": [],
      "stateMutability": "nonpayable",
      "type": "function"
    },
    {
      "inputs": [
        {
          "internalType": "bytes32",
          "name": "role",
          "type": "bytes32"
        },
        {
          "internalType": "address",
          "name": "account",
          "type": "address"
        }
      ],
      "name": "revokeRole",
      "outputs": [],
      "stateMutability": "nonpayable",
      "type": "function"
    },
    {
      "inputs": [],
      "name": "schainHash",
      "outputs": [
        {
          "internalType": "bytes32",
          "name": "",
          "type": "bytes32"
        }
      ],
      "stateMutability": "view",
      "type": "function"
    },
    {
      "inputs": [],
      "name": "tokenManagerLinker",
      "outputs": [
        {
          "internalType": "contract TokenManagerLinker",
          "name": "",
          "type": "address"
        }
      ],
      "stateMutability": "view",
      "type": "function"
    },
    {
      "inputs": [
        {
          "internalType": "bytes32",
          "name": "",
          "type": "bytes32"
        }
      ],
      "name": "tokenManagers",
      "outputs": [
        {
          "internalType": "address",
          "name": "",
          "type": "address"
        }
      ],
      "stateMutability": "view",
      "type": "function"
    },
    {
      "inputs": [
        {
          "internalType": "string",
          "name": "targetSchainName",
          "type": "string"
        },
        {
          "internalType": "address",
          "name": "contractOnMainnet",
          "type": "address"
        },
        {
          "internalType": "address",
          "name": "to",
          "type": "address"
        },
        {
          "internalType": "uint256",
          "name": "id",
          "type": "uint256"
        },
        {
          "internalType": "uint256",
          "name": "amount",
          "type": "uint256"
        }
      ],
      "name": "transferToSchainERC1155",
      "outputs": [],
      "stateMutability": "nonpayable",
      "type": "function"
    },
    {
      "inputs": [
        {
          "internalType": "string",
          "name": "targetSchainName",
          "type": "string"
        },
        {
          "internalType": "address",
          "name": "contractOnMainnet",
          "type": "address"
        },
        {
          "internalType": "address",
          "name": "to",
          "type": "address"
        },
        {
          "internalType": "uint256[]",
          "name": "ids",
          "type": "uint256[]"
        },
        {
          "internalType": "uint256[]",
          "name": "amounts",
          "type": "uint256[]"
        }
      ],
      "name": "transferToSchainERC1155Batch",
      "outputs": [],
      "stateMutability": "nonpayable",
      "type": "function"
    }
  ],
  "bytecode": "0x608060405234801561001057600080fd5b50616ddf806100206000396000f3fe60806040523480156200001157600080fd5b5060043610620002385760003560e01c80636d6112861162000135578063b9581c5011620000bd578063cc5b715b1162000087578063cc5b715b1462000490578063d547741f146200049a578063dec2deb614620004b1578063e7ece22814620004bb578063edcc12b514620004d25762000238565b8063b9581c501462000441578063c0e312dc146200044b578063ca15c8731462000462578063cb703bff14620004795762000238565b806391d1485411620000ff57806391d1485414620003f2578063a217fddf1462000409578063ade686761462000413578063b626a44f146200042a5762000238565b80636d61128614620003b05780636d6c68e614620003ba578063884cee5a14620003c45780639010d07c14620003db5762000238565b806336568abe11620001c557806350f44280116200018f57806350f4428014620003485780635492d3b514620003615780635573b8b614620003785780636685bde514620003825780636ce681d214620003995762000238565b806336568abe14620002f757806339927cf9146200030e5780633b690b6b14620003345780633fa194ce146200033e5762000238565b8063248a9ca31162000207578063248a9ca314620002a657806328c5e18214620002cc5780632dc151de14620002d65780632f2ff15d14620002e05762000238565b8063029996b8146200023d578063066ee47f14620002495780630b885ac314620002605780630f1a8f741462000277575b600080fd5b62000247620004e9565b005b620002476200025a36600462002877565b62000541565b6200024762000271366004620029b5565b6200063b565b6200028e62000288366004620026fb565b620006db565b6040516200029d919062002c50565b60405180910390f35b620002bd620002b7366004620026fb565b620006f6565b6040516200029d919062002d99565b620002bd6200070b565b6200028e62000756565b62000247620002f136600462002714565b62000765565b620002476200030836600462002714565b620007b5565b620003256200031f366004620027da565b620007fe565b6040516200029d919062002d8e565b620002bd6200085d565b620002bd62000863565b6200035262000876565b6040516200029d919062002dce565b620002476200037236600462002936565b62000899565b6200028e6200098a565b6200028e62000393366004620025a3565b62000999565b62000247620003aa366004620029b5565b620009b4565b6200028e62000b1a565b6200028e62000b29565b6200028e620003d53660046200273b565b62000b38565b6200028e620003ec3660046200279a565b62000ccb565b620003256200040336600462002714565b62000cec565b620002bd62000d06565b6200024762000424366004620025c2565b62000d0b565b620002476200043b3660046200269c565b62000ddb565b6200024762000eb0565b620002476200045c366004620027da565b62000ef9565b620002bd62000473366004620026fb565b62000fc1565b620002476200048a3660046200281d565b62000fda565b620002bd620010dc565b62000247620004ab36600462002714565b62001100565b6200032562001140565b62000247620004cc36600462002652565b62001150565b62000247620004e3366004620025a3565b6200121a565b6200050460008051602062006d8a8339815191523362000cec565b6200052c5760405162461bcd60e51b8152600401620005239062003089565b60405180910390fd5b6069805460ff60a01b1916600160a01b179055565b600086866040516020016200055892919062002c22565b60408051601f1981840301815282825280516020918201208383018352600784526613585a5b9b995d60ca1b8483015291519193506200059a92910162002c32565b60405160208183030381529060405280519060200120811415620005d25760405162461bcd60e51b8152600401620005239062002f6e565b6000818152606a60205260409020546001600160a01b0316620006095760405162461bcd60e51b8152600401620005239062002de3565b6000818152606a6020526040902054620006329082906001600160a01b03168787878762001268565b50505050505050565b600054610100900460ff16806200065757506200065762001464565b8062000666575060005460ff16155b620006855760405162461bcd60e51b8152600401620005239062003186565b600054610100900460ff16158015620006b1576000805460ff1961ff0019909116610100171660011790555b620006c08686868686620009b4565b8015620006d3576000805461ff00191690555b505050505050565b606a602052600090815260409020546001600160a01b031681565b60009081526033602052604090206002015490565b6040518060400160405280600781526020016613585a5b9b995d60ca1b8152506040516020016200073d919062002c32565b6040516020818303038152906040528051906020012081565b6066546001600160a01b031681565b60008281526033602052604090206002015462000786906200040362001477565b620007a55760405162461bcd60e51b8152600401620005239062002e5c565b620007b182826200147b565b5050565b620007bf62001477565b6001600160a01b0316816001600160a01b031614620007f25760405162461bcd60e51b8152600401620005239062003396565b620007b18282620014e9565b6000806001600160a01b0316606a600085856040516020016200082392919062002c22565b60408051601f19818403018152918152815160209283012083529082019290925201600020546001600160a01b0316141590505b92915050565b60685481565b60008051602062006d8a83398151915281565b6040518060400160405280600781526020016613585a5b9b995d60ca1b81525081565b60008686604051602001620008b092919062002c22565b60408051601f1981840301815282825280516020918201208383018352600784526613585a5b9b995d60ca1b848301529151919350620008f292910162002c32565b604051602081830303815290604052805190602001208114156200092a5760405162461bcd60e51b8152600401620005239062002f6e565b6000818152606a60205260409020546001600160a01b0316620009615760405162461bcd60e51b8152600401620005239062002de3565b6000818152606a6020526040902054620006329082906001600160a01b03168787878762001557565b6065546001600160a01b031681565b606b602052600090815260409020546001600160a01b031681565b600054610100900460ff1680620009d05750620009d062001464565b80620009df575060005460ff16155b620009fe5760405162461bcd60e51b8152600401620005239062003186565b600054610100900460ff1615801562000a2a576000805460ff1961ff0019909116610100171660011790555b62000a34620016de565b62000a41600033620007a5565b62000a5c60008051602062006d8a83398151915233620007a5565b62000a887ffda70c2cc66a36c14884ee85424961f51b1d92b4494751699b6d105b3bcbcba833620007a5565b8560405160200162000a9b919062002c32565b60408051601f198184030181529190528051602090910120606855606580546001600160a01b038088166001600160a01b031992831617909255606680548784169083161790556067805486841690831617905560698054928516929091169190911790558015620006d3576000805461ff0019169055505050505050565b6069546001600160a01b031681565b6067546001600160a01b031681565b6065546000906001600160a01b0316331462000b685760405162461bcd60e51b8152600401620005239062002eab565b606854851415801562000bfa57506040518060400160405280600781526020016613585a5b9b995d60ca1b81525060405160200162000ba8919062002c32565b60405160208183030381529060405280519060200120851462000be8576000858152606a60205260409020546001600160a01b0385811691161462000bfa565b6069546001600160a01b038581169116145b62000c195760405162461bcd60e51b8152600401620005239062003279565b600062000c2784846200177e565b90506000600982600c81111562000c3a57fe5b148062000c535750600a82600c81111562000c5157fe5b145b1562000c6d5762000c658585620017c9565b905062000cc1565b600b82600c81111562000c7c57fe5b148062000c955750600c82600c81111562000c9357fe5b145b1562000ca75762000c65858562001a70565b60405162461bcd60e51b81526004016200052390620033e5565b9695505050505050565b600082815260336020526040812062000ce5908362001cef565b9392505050565b600082815260336020526040812062000ce5908362001cfd565b600081565b6067546040516311be333d60e11b81526001600160a01b039091169063237c667a9062000d3d90869060040162002c50565b600060405180830381600087803b15801562000d5857600080fd5b505af115801562000d6d573d6000803e3d6000fd5b5050505062000dd56040518060400160405280600781526020016613585a5b9b995d60ca1b81525060405160200162000da7919062002c32565b60408051601f1981840301815291905280516020909101206069546001600160a01b03168686868662001268565b50505050565b62000e077ffda70c2cc66a36c14884ee85424961f51b1d92b4494751699b6d105b3bcbcba83362000cec565b62000e265760405162461bcd60e51b8152600401620005239062003151565b62000e3a816001600160a01b031662001d14565b62000e595760405162461bcd60e51b8152600401620005239062003242565b6001600160a01b038281166000818152606b602052604080822080546001600160a01b0319169486169485179055517f096b3e2c36bc263e90f7577e70dc47b6536fc8d85d467d54f61f91c2ca091c519190a35050565b62000ecb60008051602062006d8a8339815191523362000cec565b62000eea5760405162461bcd60e51b8152600401620005239062003089565b6069805460ff60a01b19169055565b6066546001600160a01b031633148062000f1b575062000f1b60003362000cec565b62000f3a5760405162461bcd60e51b8152600401620005239062003330565b6000828260405160200162000f5192919062002c22565b60408051601f1981840301815291815281516020928301206000818152606a9093529120549091506001600160a01b031662000fa15760405162461bcd60e51b8152600401620005239062002fbe565b6000908152606a6020526040902080546001600160a01b03191690555050565b6000818152603360205260408120620008579062001d1a565b6066546001600160a01b031633148062000ffc575062000ffc60003362000cec565b6200101b5760405162461bcd60e51b8152600401620005239062003330565b600083836040516020016200103292919062002c22565b60408051601f1981840301815291815281516020928301206000818152606a9093529120549091506001600160a01b031615620010835760405162461bcd60e51b81526004016200052390620032f9565b6001600160a01b038216620010ac5760405162461bcd60e51b8152600401620005239062002de3565b6000908152606a6020526040902080546001600160a01b0319166001600160a01b03929092169190911790555050565b7ffda70c2cc66a36c14884ee85424961f51b1d92b4494751699b6d105b3bcbcba881565b60008281526033602052604090206002015462001121906200040362001477565b620007f25760405162461bcd60e51b8152600401620005239062003101565b606954600160a01b900460ff1681565b6067546040516311be333d60e11b81526001600160a01b039091169063237c667a906200118290869060040162002c50565b600060405180830381600087803b1580156200119d57600080fd5b505af1158015620011b2573d6000803e3d6000fd5b5050505062000dd56040518060400160405280600781526020016613585a5b9b995d60ca1b815250604051602001620011ec919062002c32565b60408051601f1981840301815291905280516020909101206069546001600160a01b03168686868662001557565b6200122760003362000cec565b620012465760405162461bcd60e51b8152600401620005239062002f37565b606980546001600160a01b0319166001600160a01b0392909216919091179055565b6001600160a01b038316620012915760405162461bcd60e51b815260040162000523906200320b565b6001600160a01b038085166000908152606b602052604090205416620012b78162001d14565b620012d65760405162461bcd60e51b815260040162000523906200335f565b60405163e985e9c560e01b81526001600160a01b0382169063e985e9c59062001306903390309060040162002c64565b60206040518083038186803b1580156200131f57600080fd5b505afa15801562001334573d6000803e3d6000fd5b505050506040513d601f19601f820116820180604052508101906200135a9190620026d9565b620013795760405162461bcd60e51b81526004016200052390620030ca565b604051631ac8311560e21b81526001600160a01b03821690636b20c45490620013ab9033908790879060040162002c7e565b600060405180830381600087803b158015620013c657600080fd5b505af1158015620013db573d6000803e3d6000fd5b505050506060620013ef8686868662001d27565b606554604051634a24490160e11b81529192506001600160a01b03169063944892029062001426908b908b90869060040162002da2565b600060405180830381600087803b1580156200144157600080fd5b505af115801562001456573d6000803e3d6000fd5b505050505050505050505050565b6000620014713062001d14565b15905090565b3390565b600082815260336020526040902062001495908262001da5565b15620007b157620014a562001477565b6001600160a01b0316816001600160a01b0316837f2f8788117e7eff1d82e926ec794901d17c78024a50270940304540a733656f0d60405160405180910390a45050565b600082815260336020526040902062001503908262001dbc565b15620007b1576200151362001477565b6001600160a01b0316816001600160a01b0316837ff6391f5c32d9c69d2a47ea670b442974b53935d1edc7fd64eb21e047a839171b60405160405180910390a45050565b6001600160a01b038316620015805760405162461bcd60e51b815260040162000523906200320b565b6001600160a01b038085166000908152606b602052604090205416620015a68162001d14565b620015c55760405162461bcd60e51b815260040162000523906200335f565b60405163e985e9c560e01b81526001600160a01b0382169063e985e9c590620015f5903390309060040162002c64565b60206040518083038186803b1580156200160e57600080fd5b505afa15801562001623573d6000803e3d6000fd5b505050506040513d601f19601f82011682018060405250810190620016499190620026d9565b620016685760405162461bcd60e51b81526004016200052390620030ca565b604051637a94c56560e11b81526001600160a01b0382169063f5298aca906200169a9033908790879060040162002cb8565b600060405180830381600087803b158015620016b557600080fd5b505af1158015620016ca573d6000803e3d6000fd5b505050506060620013ef8686868662001dd3565b600054610100900460ff1680620016fa5750620016fa62001464565b8062001709575060005460ff16155b620017285760405162461bcd60e51b8152600401620005239062003186565b600054610100900460ff1615801562001754576000805460ff1961ff0019909116610100171660011790555b6200175e62001e37565b6200176862001e37565b80156200177b576000805461ff00191690555b50565b6000806200178f83850185620026fb565b905060208106620017bb57620017b2620017ac8483818862003501565b6200177e565b91505062000857565b620017b283850185620027bc565b600080620017d884846200177e565b90506000808080600985600c811115620017ee57fe5b14156200183057620017ff620021cb565b6200180b898962001ec1565b9050806040015194508060200151935080606001519250806080015191505062001955565b6200183a62002202565b62001846898962001f13565b805160408082015160208084015160608501516080909501516001600160a01b038083166000908152606b9094529490922054929a50985092965091945091925016806200195257606954600160a01b900460ff16620018ba5760405162461bcd60e51b81526004016200052390620031d4565b602082015151604051620018ce906200222b565b620018da919062002dce565b604051809103906000f080158015620018f7573d6000803e3d6000fd5b506001600160a01b038681166000818152606b602052604080822080546001600160a01b031916948616948517905551939450919290917ff591ef422bd6af456a3cad967032f043099a7d9838494d88ba15d16a89f50b7491a35b50505b6001600160a01b038084166000908152606b6020526040902054166200197b8162001d14565b6200199a5760405162461bcd60e51b8152600401620005239062003242565b60405163731133e960e01b81526001600160a01b0382169063731133e990620019cc9088908790879060040162002d2c565b600060405180830381600087803b158015620019e757600080fd5b505af1158015620019fc573d6000803e3d6000fd5b50505050806001600160a01b0316846001600160a01b03167f84899afd4ab55115c2eab5a59471e73bc42359e7c3d4e5a3c1aa4837bd20ed5562001a408662001f65565b62001a4b8662001f65565b60405162001a5b92919062002d5c565b60405180910390a35092979650505050505050565b60008062001a7f84846200177e565b9050600080606080600b85600c81111562001a9657fe5b141562001ad85762001aa762002239565b62001ab3898962001fa7565b9050806040015194508060200151935080606001519250806080015191505062001bfd565b62001ae26200226f565b62001aee898962001ff9565b805160408082015160208084015160608501516080909501516001600160a01b038083166000908152606b9094529490922054929a509850929650919450919250168062001bfa57606954600160a01b900460ff1662001b625760405162461bcd60e51b81526004016200052390620031d4565b60208201515160405162001b76906200222b565b62001b82919062002dce565b604051809103906000f08015801562001b9f573d6000803e3d6000fd5b506001600160a01b038681166000818152606b602052604080822080546001600160a01b031916948616948517905551939450919290917ff591ef422bd6af456a3cad967032f043099a7d9838494d88ba15d16a89f50b7491a35b50505b6001600160a01b038084166000908152606b60205260409020541662001c238162001d14565b62001c425760405162461bcd60e51b8152600401620005239062003242565b604051630fbfeffd60e11b81526001600160a01b03821690631f7fdffa9062001c749088908790879060040162002cd9565b600060405180830381600087803b15801562001c8f57600080fd5b505af115801562001ca4573d6000803e3d6000fd5b50505050806001600160a01b0316846001600160a01b03167f84899afd4ab55115c2eab5a59471e73bc42359e7c3d4e5a3c1aa4837bd20ed55858560405162001a5b92919062002d5c565b600062000ce583836200204b565b600062000ce5836001600160a01b03841662002094565b3b151590565b60006200085782620020ac565b606062001d3362002239565b6040805160c081019091528060a0810180600b8152508152602001876001600160a01b03168152602001866001600160a01b031681526020018581526020018481525090508060405160200162001d8b919062003415565b604051602081830303815290604052915050949350505050565b600062000ce5836001600160a01b038416620020b0565b600062000ce5836001600160a01b038416620020ff565b606062001ddf620021cb565b6040805160c081019091528060a081018060098152508152602001876001600160a01b03168152602001866001600160a01b031681526020018581526020018481525090508060405160200162001d8b919062003489565b600054610100900460ff168062001e53575062001e5362001464565b8062001e62575060005460ff16155b62001e815760405162461bcd60e51b8152600401620005239062003186565b600054610100900460ff1615801562001768576000805460ff1961ff00199091166101001716600117905580156200177b576000805461ff001916905550565b62001ecb620021cb565b600962001ed984846200177e565b600c81111562001ee557fe5b1462001f055760405162461bcd60e51b8152600401620005239062002ff5565b62000ce58284018462002b87565b62001f1d62002202565b600a62001f2b84846200177e565b600c81111562001f3757fe5b1462001f575760405162461bcd60e51b8152600401620005239062003039565b62000ce58284018462002a48565b60408051600180825281830190925260609160208083019080368337019050509050818160008151811062001f9657fe5b602002602001018181525050919050565b62001fb162002239565b600b62001fbf84846200177e565b600c81111562001fcb57fe5b1462001feb5760405162461bcd60e51b81526004016200052390620032b0565b62000ce58284018462002b49565b620020036200226f565b600c6200201184846200177e565b600c8111156200201d57fe5b146200203d5760405162461bcd60e51b8152600401620005239062002ee2565b62000ce58284018462002ace565b81546000908210620020715760405162461bcd60e51b8152600401620005239062002e1a565b8260000182815481106200208157fe5b9060005260206000200154905092915050565b60009081526001919091016020526040902054151590565b5490565b6000620020be838362002094565b620020f65750815460018181018455600084815260208082209093018490558454848252828601909352604090209190915562000857565b50600062000857565b60008181526001830160205260408120548015620021c057835460001980830191908101906000908790839081106200213457fe5b90600052602060002001549050808760000184815481106200215257fe5b6000918252602080832090910192909255828152600189810190925260409020908401905586548790806200218357fe5b6001900381819060005260206000200160009055905586600101600087815260200190815260200160002060009055600194505050505062000857565b600091505062000857565b6040518060a00160405280620021e062002284565b8152600060208201819052604082018190526060820181905260809091015290565b604051806040016040528062002217620021cb565b81526020016200222662002298565b905290565b613819806200357183390190565b6040518060a001604052806200224e62002284565b81526000602082018190526040820152606080820181905260809091015290565b60405180604001604052806200221762002239565b604080516020810190915280600062002226565b6040518060200160405280606081525090565b600082601f830112620022bc578081fd5b81356001600160401b03811115620022d2578182fd5b6020808202620022e4828201620034da565b838152935081840185830182870184018810156200230157600080fd5b600092505b848310156200232657803582526001929092019190830190830162002306565b505050505092915050565b60008083601f84011262002343578182fd5b5081356001600160401b038111156200235a578182fd5b6020830191508360208285010111156200237357600080fd5b9250929050565b8035600d81106200085757600080fd5b600082601f8301126200239b578081fd5b81356001600160401b03811115620023b1578182fd5b620023c6601f8201601f1916602001620034da565b9150808252836020828501011115620023de57600080fd5b8060208401602084013760009082016020015292915050565b60006020828403121562002409578081fd5b620024156020620034da565b90506200242383836200237a565b815292915050565b6000602082840312156200243d578081fd5b620024496020620034da565b905081356001600160401b038111156200246257600080fd5b62002470848285016200238a565b82525092915050565b600060a082840312156200248b578081fd5b6200249760a0620034da565b9050620024a58383620023f7565b81526020820135620024b7816200355a565b60208201526040820135620024cc816200355a565b604082015260608201356001600160401b0380821115620024ec57600080fd5b620024fa85838601620022ab565b606084015260808401359150808211156200251457600080fd5b506200252384828501620022ab565b60808301525092915050565b600060a0828403121562002541578081fd5b6200254d60a0620034da565b90506200255b8383620023f7565b815260208201356200256d816200355a565b6020820152604082013562002582816200355a565b80604083015250606082013560608201526080820135608082015292915050565b600060208284031215620025b5578081fd5b813562000ce5816200355a565b60008060008060808587031215620025d8578283fd5b8435620025e5816200355a565b93506020850135620025f7816200355a565b925060408501356001600160401b038082111562002613578384fd5b6200262188838901620022ab565b9350606087013591508082111562002637578283fd5b506200264687828801620022ab565b91505092959194509250565b6000806000806080858703121562002668578384fd5b843562002675816200355a565b9350602085013562002687816200355a565b93969395505050506040820135916060013590565b60008060408385031215620026af578182fd5b8235620026bc816200355a565b91506020830135620026ce816200355a565b809150509250929050565b600060208284031215620026eb578081fd5b8151801515811462000ce5578182fd5b6000602082840312156200270d578081fd5b5035919050565b6000806040838503121562002727578182fd5b823591506020830135620026ce816200355a565b6000806000806060858703121562002751578182fd5b84359350602085013562002765816200355a565b925060408501356001600160401b0381111562002780578283fd5b6200278e8782880162002331565b95989497509550505050565b60008060408385031215620027ad578182fd5b50508035926020909101359150565b600060208284031215620027ce578081fd5b62000ce583836200237a565b60008060208385031215620027ed578182fd5b82356001600160401b0381111562002803578283fd5b620028118582860162002331565b90969095509350505050565b60008060006040848603121562002832578081fd5b83356001600160401b0381111562002848578182fd5b620028568682870162002331565b90945092505060208401356200286c816200355a565b809150509250925092565b60008060008060008060a0878903121562002890578384fd5b86356001600160401b0380821115620028a7578586fd5b620028b58a838b0162002331565b909850965060208901359150620028cc826200355a565b909450604088013590620028e0826200355a565b90935060608801359080821115620028f6578384fd5b620029048a838b01620022ab565b935060808901359150808211156200291a578283fd5b506200292989828a01620022ab565b9150509295509295509295565b60008060008060008060a087890312156200294f578384fd5b86356001600160401b0381111562002965578485fd5b6200297389828a0162002331565b909750955050602087013562002989816200355a565b935060408701356200299b816200355a565b959894975092956060810135946080909101359350915050565b600080600080600060a08688031215620029cd578283fd5b85356001600160401b03811115620029e3578384fd5b620029f1888289016200238a565b955050602086013562002a04816200355a565b9350604086013562002a16816200355a565b9250606086013562002a28816200355a565b9150608086013562002a3a816200355a565b809150509295509295909350565b60006020828403121562002a5a578081fd5b81356001600160401b038082111562002a71578283fd5b9083019060c0828603121562002a85578283fd5b62002a916040620034da565b62002a9d86846200252f565b815260a08301358281111562002ab1578485fd5b62002abf878286016200242b565b60208301525095945050505050565b60006020828403121562002ae0578081fd5b81356001600160401b038082111562002af7578283fd5b908301906040828603121562002b0b578283fd5b62002b176040620034da565b82358281111562002b26578485fd5b62002b348782860162002479565b82525060208301358281111562002ab1578485fd5b60006020828403121562002b5b578081fd5b81356001600160401b0381111562002b71578182fd5b62002b7f8482850162002479565b949350505050565b600060a0828403121562002b99578081fd5b62000ce583836200252f565b6000815180845260208085019450808401835b8381101562002bd65781518752958201959082019060010162002bb8565b509495945050505050565b6000815180845262002bfb8160208601602086016200352b565b601f01601f19169290920160200192915050565b8051600d811062002c1c57fe5b90915250565b6000828483379101908152919050565b6000825162002c468184602087016200352b565b9190910192915050565b6001600160a01b0391909116815260200190565b6001600160a01b0392831681529116602082015260400190565b6001600160a01b038416815260606020820181905260009062002ca49083018562002ba5565b828103604084015262000cc1818562002ba5565b6001600160a01b039390931683526020830191909152604082015260600190565b6001600160a01b038416815260806020820181905260009062002cff9083018562002ba5565b828103604084015262002d13818562002ba5565b8381036060909401939093525081526020019392505050565b6001600160a01b039390931683526020830191909152604082015260806060820181905260009082015260a00190565b60006040825262002d71604083018562002ba5565b828103602084015262002d85818562002ba5565b95945050505050565b901515815260200190565b90815260200190565b8381526001600160a01b038316602082015260606040820181905260009062002d859083018462002be1565b60006020825262000ce5602083018462002be1565b6020808252601f908201527f496e636f727265637420546f6b656e204d616e61676572206164647265737300604082015260600190565b60208082526022908201527f456e756d657261626c655365743a20696e646578206f7574206f6620626f756e604082015261647360f01b606082015260800190565b6020808252602f908201527f416363657373436f6e74726f6c3a2073656e646572206d75737420626520616e60408201526e0818591b5a5b881d1bc819dc985b9d608a1b606082015260800190565b6020808252601c908201527f53656e646572206973206e6f742061204d65737361676550726f787900000000604082015260600190565b60208082526035908201527f4d6573736167652074797065206973206e6f742045524331313535426174636860408201527420b7322a37b5b2b724b73337903a3930b739b332b960591b606082015260800190565b6020808252601e908201527f44454641554c545f41444d494e5f524f4c452069732072657175697265640000604082015260600190565b60208082526030908201527f546869732066756e6374696f6e206973206e6f7420666f72207472616e73666560408201526f1c9c9a5b99c81d1bc813585a5b9b995d60821b606082015260800190565b60208082526018908201527f546f6b656e204d616e61676572206973206e6f74207365740000000000000000604082015260600190565b60208082526024908201527f4d6573736167652074797065206973206e6f742045524331313535207472616e60408201526339b332b960e11b606082015260800190565b60208082526030908201527f4d6573736167652074797065206973206e6f742045524331313535416e64546f60408201526f35b2b724b73337903a3930b739b332b960811b606082015260800190565b60208082526021908201527f4155544f4d415449435f4445504c4f595f524f4c4520697320726571756972656040820152601960fa1b606082015260800190565b60208082526019908201527f4e6f7420616c6c6f776564204552433131353520546f6b656e00000000000000604082015260600190565b60208082526030908201527f416363657373436f6e74726f6c3a2073656e646572206d75737420626520616e60408201526f2061646d696e20746f207265766f6b6560801b606082015260800190565b6020808252818101527f544f4b454e5f5245474953545241525f524f4c45206973207265717569726564604082015260600190565b6020808252602e908201527f496e697469616c697a61626c653a20636f6e747261637420697320616c72656160408201526d191e481a5b9a5d1a585b1a5e995960921b606082015260800190565b6020808252601c908201527f4175746f6d61746963206465706c6f792069732064697361626c656400000000604082015260600190565b6020808252601a908201527f496e636f72726563742072656365697665722061646472657373000000000000604082015260600190565b6020808252601f908201527f476976656e2061646472657373206973206e6f74206120636f6e747261637400604082015260600190565b6020808252601b908201527f526563656976657220636861696e20697320696e636f72726563740000000000604082015260600190565b60208082526029908201527f4d6573736167652074797065206973206e6f7420455243313135354261746368604082015268103a3930b739b332b960b91b606082015260800190565b6020808252601c908201527f546f6b656e204d616e6167657220697320616c72656164792073657400000000604082015260600190565b6020808252601590820152742737ba1030baba3437b934bd32b21031b0b63632b960591b604082015260600190565b60208082526018908201527f4e6f20746f6b656e20636c6f6e65206f6e2073636861696e0000000000000000604082015260600190565b6020808252602f908201527f416363657373436f6e74726f6c3a2063616e206f6e6c792072656e6f756e636560408201526e103937b632b9903337b91039b2b63360891b606082015260800190565b60208082526016908201527526b2b9b9b0b3b2aa3cb8329034b9903ab735b737bbb760511b604082015260600190565b6000602082526200342b60208301845162002c0f565b60208301516001600160a01b039081166040848101919091528401511660608084019190915283015160a060808401526200346a60c084018262002ba5565b90506080840151601f198483030160a085015262002d85828262002ba5565b600060a0820190506200349e82845162002c0f565b602083015160018060a01b0380821660208501528060408601511660408501525050606083015160608301526080830151608083015292915050565b6040518181016001600160401b0381118282101715620034f957600080fd5b604052919050565b6000808585111562003511578182fd5b838611156200351e578182fd5b5050820193919092039150565b60005b83811015620035485781810151838201526020016200352e565b8381111562000dd55750506000910152565b6001600160a01b03811681146200177b57600080fdfe60806040523480156200001157600080fd5b506040516200381938038062003819833981810160405260208110156200003757600080fd5b81019080805160405193929190846401000000008211156200005857600080fd5b9083019060208201858111156200006e57600080fd5b82516401000000008111828201881017156200008957600080fd5b82525081516020918201929091019080838360005b83811015620000b85781810151838201526020016200009e565b50505050905090810190601f168015620000e65780820380516001836020036101000a031916815260200191505b50604052505050620001026200017360201b620017601760201c565b62000118816200023160201b620018121760201c565b6200012d620002fb60201b620018cd1760201c565b62000148600080516020620037f983398151915280620003a3565b6200016c600080516020620037f983398151915262000166620003f5565b620003f9565b5062000872565b600054610100900460ff16806200018f57506200018f62000405565b806200019e575060005460ff16155b620001db5760405162461bcd60e51b815260040180806020018281038252602e815260200180620037cb602e913960400191505060405180910390fd5b600054610100900460ff1615801562000207576000805460ff1961ff0019909116610100171660011790555b6200021162000423565b6200021b62000423565b80156200022e576000805461ff00191690555b50565b600054610100900460ff16806200024d57506200024d62000405565b806200025c575060005460ff16155b620002995760405162461bcd60e51b815260040180806020018281038252602e815260200180620037cb602e913960400191505060405180910390fd5b600054610100900460ff16158015620002c5576000805460ff1961ff0019909116610100171660011790555b620002cf62000423565b620002d9620004cb565b620002e48262000571565b8015620002f7576000805461ff00191690555b5050565b600054610100900460ff16806200031757506200031762000405565b8062000326575060005460ff16155b620003635760405162461bcd60e51b815260040180806020018281038252602e815260200180620037cb602e913960400191505060405180910390fd5b600054610100900460ff161580156200038f576000805460ff1961ff0019909116610100171660011790555b6200039962000423565b62000211620004cb565b600082815260336020526040808220600201549051839285917fbd79b86ffe0ab8e8776151514217cd7cacd52c909f66475c3af44e129f0b00ff9190a460009182526033602052604090912060020155565b3390565b620002f7828262000634565b60006200041d30620006af60201b6200196a1760201c565b15905090565b600054610100900460ff16806200043f57506200043f62000405565b806200044e575060005460ff16155b6200048b5760405162461bcd60e51b815260040180806020018281038252602e815260200180620037cb602e913960400191505060405180910390fd5b600054610100900460ff161580156200021b576000805460ff1961ff00199091166101001716600117905580156200022e576000805461ff001916905550565b600054610100900460ff1680620004e75750620004e762000405565b80620004f6575060005460ff16155b620005335760405162461bcd60e51b815260040180806020018281038252602e815260200180620037cb602e913960400191505060405180910390fd5b600054610100900460ff161580156200055f576000805460ff1961ff0019909116610100171660011790555b6200021b6301ffc9a760e01b620006b5565b600054610100900460ff16806200058d57506200058d62000405565b806200059c575060005460ff16155b620005d95760405162461bcd60e51b815260040180806020018281038252602e815260200180620037cb602e913960400191505060405180910390fd5b600054610100900460ff1615801562000605576000805460ff1961ff0019909116610100171660011790555b62000610826200073a565b62000622636cdb3d1360e11b620006b5565b620002e46303a24d0760e21b620006b5565b60008281526033602090815260409091206200065b918390620019706200074f821b17901c565b15620002f7576200066b620003f5565b6001600160a01b0316816001600160a01b0316837f2f8788117e7eff1d82e926ec794901d17c78024a50270940304540a733656f0d60405160405180910390a45050565b3b151590565b6001600160e01b0319808216141562000715576040805162461bcd60e51b815260206004820152601c60248201527f4552433136353a20696e76616c696420696e7465726661636520696400000000604482015290519081900360640190fd5b6001600160e01b0319166000908152606560205260409020805460ff19166001179055565b8051620002f7906099906020840190620007d6565b600062000766836001600160a01b0384166200076f565b90505b92915050565b60006200077d8383620007be565b620007b55750815460018181018455600084815260208082209093018490558454848252828601909352604090209190915562000769565b50600062000769565b60009081526001919091016020526040902054151590565b828054600181600116156101000203166002900490600052602060002090601f016020900481019282601f106200081957805160ff191683800117855562000849565b8280016001018555821562000849579182015b82811115620008495782518255916020019190600101906200082c565b50620008579291506200085b565b5090565b5b808211156200085757600081556001016200085c565b612f4980620008826000396000f3fe608060405234801561001057600080fd5b50600436106101365760003560e01c8063731133e9116100b8578063ca15c8731161007c578063ca15c87314610a3d578063d539139314610a5a578063d547741f14610a62578063e985e9c514610a8e578063f242432a14610abc578063f5298aca14610b8557610136565b8063731133e9146108dc5780639010d07c1461099c57806391d14854146109db578063a217fddf14610a07578063a22cb46514610a0f57610136565b80632eb2c2d6116100ff5780632eb2c2d61461041d5780632f2ff15d146105de57806336568abe1461060a5780634e1273f4146106365780636b20c454146107a957610136565b8062fdd58e1461013b57806301ffc9a7146101795780630e89341c146101b45780631f7fdffa14610246578063248a9ca314610400575b600080fd5b6101676004803603604081101561015157600080fd5b506001600160a01b038135169060200135610bb7565b60408051918252519081900360200190f35b6101a06004803603602081101561018f57600080fd5b50356001600160e01b031916610c29565b604080519115158252519081900360200190f35b6101d1600480360360208110156101ca57600080fd5b5035610c48565b6040805160208082528351818301528351919283929083019185019080838360005b8381101561020b5781810151838201526020016101f3565b50505050905090810190601f1680156102385780820380516001836020036101000a031916815260200191505b509250505060405180910390f35b6103fe6004803603608081101561025c57600080fd5b6001600160a01b038235169190810190604081016020820135600160201b81111561028657600080fd5b82018360208201111561029857600080fd5b803590602001918460208302840111600160201b831117156102b957600080fd5b9190808060200260200160405190810160405280939291908181526020018383602002808284376000920191909152509295949360208101935035915050600160201b81111561030857600080fd5b82018360208201111561031a57600080fd5b803590602001918460208302840111600160201b8311171561033b57600080fd5b9190808060200260200160405190810160405280939291908181526020018383602002808284376000920191909152509295949360208101935035915050600160201b81111561038a57600080fd5b82018360208201111561039c57600080fd5b803590602001918460018302840111600160201b831117156103bd57600080fd5b91908080601f016020809104026020016040519081016040528093929190818152602001838380828437600092019190915250929550610ce0945050505050565b005b6101676004803603602081101561041657600080fd5b5035610d6d565b6103fe600480360360a081101561043357600080fd5b6001600160a01b038235811692602081013590911691810190606081016040820135600160201b81111561046657600080fd5b82018360208201111561047857600080fd5b803590602001918460208302840111600160201b8311171561049957600080fd5b9190808060200260200160405190810160405280939291908181526020018383602002808284376000920191909152509295949360208101935035915050600160201b8111156104e857600080fd5b8201836020820111156104fa57600080fd5b803590602001918460208302840111600160201b8311171561051b57600080fd5b9190808060200260200160405190810160405280939291908181526020018383602002808284376000920191909152509295949360208101935035915050600160201b81111561056a57600080fd5b82018360208201111561057c57600080fd5b803590602001918460018302840111600160201b8311171561059d57600080fd5b91908080601f016020809104026020016040519081016040528093929190818152602001838380828437600092019190915250929550610d82945050505050565b6103fe600480360360408110156105f457600080fd5b50803590602001356001600160a01b0316611085565b6103fe6004803603604081101561062057600080fd5b50803590602001356001600160a01b03166110ec565b6107596004803603604081101561064c57600080fd5b810190602081018135600160201b81111561066657600080fd5b82018360208201111561067857600080fd5b803590602001918460208302840111600160201b8311171561069957600080fd5b9190808060200260200160405190810160405280939291908181526020018383602002808284376000920191909152509295949360208101935035915050600160201b8111156106e857600080fd5b8201836020820111156106fa57600080fd5b803590602001918460208302840111600160201b8311171561071b57600080fd5b91908080602002602001604051908101604052809392919081815260200183836020028082843760009201919091525092955061114d945050505050565b60408051602080825283518183015283519192839290830191858101910280838360005b8381101561079557818101518382015260200161077d565b505050509050019250505060405180910390f35b6103fe600480360360608110156107bf57600080fd5b6001600160a01b038235169190810190604081016020820135600160201b8111156107e957600080fd5b8201836020820111156107fb57600080fd5b803590602001918460208302840111600160201b8311171561081c57600080fd5b9190808060200260200160405190810160405280939291908181526020018383602002808284376000920191909152509295949360208101935035915050600160201b81111561086b57600080fd5b82018360208201111561087d57600080fd5b803590602001918460208302840111600160201b8311171561089e57600080fd5b919080806020026020016040519081016040528093929190818152602001838360200280828437600092019190915250929550611239945050505050565b6103fe600480360360808110156108f257600080fd5b6001600160a01b038235169160208101359160408201359190810190608081016060820135600160201b81111561092857600080fd5b82018360208201111561093a57600080fd5b803590602001918460018302840111600160201b8311171561095b57600080fd5b91908080601f0160208091040260200160405190810160405280939291908181526020018383808284376000920191909152509295506112b2945050505050565b6109bf600480360360408110156109b257600080fd5b5080359060200135611334565b604080516001600160a01b039092168252519081900360200190f35b6101a0600480360360408110156109f157600080fd5b50803590602001356001600160a01b0316611353565b61016761136b565b6103fe60048036036040811015610a2557600080fd5b506001600160a01b0381351690602001351515611370565b61016760048036036020811015610a5357600080fd5b503561145f565b610167611476565b6103fe60048036036040811015610a7857600080fd5b50803590602001356001600160a01b031661149a565b6101a060048036036040811015610aa457600080fd5b506001600160a01b03813581169160200135166114f3565b6103fe600480360360a0811015610ad257600080fd5b6001600160a01b03823581169260208101359091169160408201359160608101359181019060a081016080820135600160201b811115610b1157600080fd5b820183602082011115610b2357600080fd5b803590602001918460018302840111600160201b83111715610b4457600080fd5b91908080601f016020809104026020016040519081016040528093929190818152602001838380828437600092019190915250929550611521945050505050565b6103fe60048036036060811015610b9b57600080fd5b506001600160a01b0381351690602081013590604001356116ec565b60006001600160a01b038316610bfe5760405162461bcd60e51b815260040180806020018281038252602b815260200180612cd0602b913960400191505060405180910390fd5b5060008181526097602090815260408083206001600160a01b03861684529091529020545b92915050565b6001600160e01b03191660009081526065602052604090205460ff1690565b60998054604080516020601f6002600019610100600188161502019095169490940493840181900481028201810190925282815260609390929091830182828015610cd45780601f10610ca957610100808354040283529160200191610cd4565b820191906000526020600020905b815481529060010190602001808311610cb757829003601f168201915b50505050509050919050565b610d117f9f2df0fed2c77648de5860a4cc508cd0818c85b8b8a1ab4ceeef8d981c8956a6610d0c611985565b611353565b610d5b576040805162461bcd60e51b815260206004820152601660248201527529b2b73232b91034b9903737ba10309026b4b73a32b960511b604482015290519081900360640190fd5b610d678484848461198a565b50505050565b60009081526033602052604090206002015490565b8151835114610dc25760405162461bcd60e51b8152600401808060200182810382526028815260200180612e9c6028913960400191505060405180910390fd5b6001600160a01b038416610e075760405162461bcd60e51b8152600401808060200182810382526025815260200180612d786025913960400191505060405180910390fd5b610e0f611985565b6001600160a01b0316856001600160a01b03161480610e3a5750610e3a85610e35611985565b6114f3565b610e755760405162461bcd60e51b8152600401808060200182810382526032815260200180612d9d6032913960400191505060405180910390fd5b6000610e7f611985565b9050610e8f81878787878761107d565b60005b8451811015610f95576000858281518110610ea957fe5b602002602001015190506000858381518110610ec157fe5b60200260200101519050610f2e816040518060600160405280602a8152602001612e20602a91396097600086815260200190815260200160002060008d6001600160a01b03166001600160a01b0316815260200190815260200160002054611bdf9092919063ffffffff16565b60008381526097602090815260408083206001600160a01b038e811685529252808320939093558a1681522054610f659082611c76565b60009283526097602090815260408085206001600160a01b038c1686529091529092209190915550600101610e92565b50846001600160a01b0316866001600160a01b0316826001600160a01b03167f4a39dc06d4c0dbc64b70af90fd698a233a518aa5d07e595d983b8c0526c8f7fb8787604051808060200180602001838103835285818151815260200191508051906020019060200280838360005b8381101561101b578181015183820152602001611003565b50505050905001838103825284818151815260200191508051906020019060200280838360005b8381101561105a578181015183820152602001611042565b5050505090500194505050505060405180910390a461107d818787878787611cd0565b505050505050565b6000828152603360205260409020600201546110a390610d0c611985565b6110de5760405162461bcd60e51b815260040180806020018281038252602f815260200180612ca1602f913960400191505060405180910390fd5b6110e88282611f4f565b5050565b6110f4611985565b6001600160a01b0316816001600160a01b0316146111435760405162461bcd60e51b815260040180806020018281038252602f815260200180612ee5602f913960400191505060405180910390fd5b6110e88282611fb8565b6060815183511461118f5760405162461bcd60e51b8152600401808060200182810382526029815260200180612e736029913960400191505060405180910390fd5b6060835167ffffffffffffffff811180156111a957600080fd5b506040519080825280602002602001820160405280156111d3578160200160208202803683370190505b50905060005b8451811015611231576112128582815181106111f157fe5b602002602001015185838151811061120557fe5b6020026020010151610bb7565b82828151811061121e57fe5b60209081029190910101526001016111d9565b509392505050565b611241611985565b6001600160a01b0316836001600160a01b03161480611267575061126783610e35611985565b6112a25760405162461bcd60e51b8152600401808060200182810382526029815260200180612d1f6029913960400191505060405180910390fd5b6112ad838383612021565b505050565b6112de7f9f2df0fed2c77648de5860a4cc508cd0818c85b8b8a1ab4ceeef8d981c8956a6610d0c611985565b611328576040805162461bcd60e51b815260206004820152601660248201527529b2b73232b91034b9903737ba10309026b4b73a32b960511b604482015290519081900360640190fd5b610d678484848461228f565b600082815260336020526040812061134c9083612390565b9392505050565b600082815260336020526040812061134c908361239c565b600081565b816001600160a01b0316611382611985565b6001600160a01b031614156113c85760405162461bcd60e51b8152600401808060200182810382526029815260200180612e4a6029913960400191505060405180910390fd5b80609860006113d5611985565b6001600160a01b03908116825260208083019390935260409182016000908120918716808252919093529120805460ff191692151592909217909155611419611985565b6001600160a01b03167f17307eab39ab6107e8899845ad3d59bd9653f200f220920489ca2b5937696c318360405180821515815260200191505060405180910390a35050565b6000818152603360205260408120610c23906123b1565b7f9f2df0fed2c77648de5860a4cc508cd0818c85b8b8a1ab4ceeef8d981c8956a681565b6000828152603360205260409020600201546114b890610d0c611985565b6111435760405162461bcd60e51b8152600401808060200182810382526030815260200180612d486030913960400191505060405180910390fd5b6001600160a01b03918216600090815260986020908152604080832093909416825291909152205460ff1690565b6001600160a01b0384166115665760405162461bcd60e51b8152600401808060200182810382526025815260200180612d786025913960400191505060405180910390fd5b61156e611985565b6001600160a01b0316856001600160a01b03161480611594575061159485610e35611985565b6115cf5760405162461bcd60e51b8152600401808060200182810382526029815260200180612d1f6029913960400191505060405180910390fd5b60006115d9611985565b90506115f98187876115ea886123bc565b6115f3886123bc565b8761107d565b611640836040518060600160405280602a8152602001612e20602a913960008781526097602090815260408083206001600160a01b038d1684529091529020549190611bdf565b60008581526097602090815260408083206001600160a01b038b811685529252808320939093558716815220546116779084611c76565b60008581526097602090815260408083206001600160a01b03808b168086529184529382902094909455805188815291820187905280518a8416938616927fc3d58168c5ae7397731d063d5bbf3d657854427343f4c083240f7aacaa2d0f6292908290030190a461107d818787878787612400565b6116f4611985565b6001600160a01b0316836001600160a01b0316148061171a575061171a83610e35611985565b6117555760405162461bcd60e51b8152600401808060200182810382526029815260200180612d1f6029913960400191505060405180910390fd5b6112ad838383612571565b600054610100900460ff168061177957506117796126a4565b80611787575060005460ff16155b6117c25760405162461bcd60e51b815260040180806020018281038252602e815260200180612dcf602e913960400191505060405180910390fd5b600054610100900460ff161580156117ed576000805460ff1961ff0019909116610100171660011790555b6117f56126b5565b6117fd6126b5565b801561180f576000805461ff00191690555b50565b600054610100900460ff168061182b575061182b6126a4565b80611839575060005460ff16155b6118745760405162461bcd60e51b815260040180806020018281038252602e815260200180612dcf602e913960400191505060405180910390fd5b600054610100900460ff1615801561189f576000805460ff1961ff0019909116610100171660011790555b6118a76126b5565b6118af612755565b6118b8826127f2565b80156110e8576000805461ff00191690555050565b600054610100900460ff16806118e657506118e66126a4565b806118f4575060005460ff16155b61192f5760405162461bcd60e51b815260040180806020018281038252602e815260200180612dcf602e913960400191505060405180910390fd5b600054610100900460ff1615801561195a576000805460ff1961ff0019909116610100171660011790555b6119626126b5565b6117f5612755565b3b151590565b600061134c836001600160a01b0384166128a8565b335b90565b6001600160a01b0384166119cf5760405162461bcd60e51b8152600401808060200182810382526021815260200180612ec46021913960400191505060405180910390fd5b8151835114611a0f5760405162461bcd60e51b8152600401808060200182810382526028815260200180612e9c6028913960400191505060405180910390fd5b6000611a19611985565b9050611a2a8160008787878761107d565b60005b8451811015611aee57611aa560976000878481518110611a4957fe5b602002602001015181526020019081526020016000206000886001600160a01b03166001600160a01b0316815260200190815260200160002054858381518110611a8f57fe5b6020026020010151611c7690919063ffffffff16565b60976000878481518110611ab557fe5b602090810291909101810151825281810192909252604090810160009081206001600160a01b038b168252909252902055600101611a2d565b50846001600160a01b031660006001600160a01b0316826001600160a01b03167f4a39dc06d4c0dbc64b70af90fd698a233a518aa5d07e595d983b8c0526c8f7fb8787604051808060200180602001838103835285818151815260200191508051906020019060200280838360005b83811015611b75578181015183820152602001611b5d565b50505050905001838103825284818151815260200191508051906020019060200280838360005b83811015611bb4578181015183820152602001611b9c565b5050505090500194505050505060405180910390a4611bd881600087878787611cd0565b5050505050565b60008184841115611c6e5760405162461bcd60e51b81526004018080602001828103825283818151815260200191508051906020019080838360005b83811015611c33578181015183820152602001611c1b565b50505050905090810190601f168015611c605780820380516001836020036101000a031916815260200191505b509250505060405180910390fd5b505050900390565b60008282018381101561134c576040805162461bcd60e51b815260206004820152601b60248201527f536166654d6174683a206164646974696f6e206f766572666c6f770000000000604482015290519081900360640190fd5b611ce2846001600160a01b031661196a565b1561107d57836001600160a01b031663bc197c8187878686866040518663ffffffff1660e01b815260040180866001600160a01b03168152602001856001600160a01b03168152602001806020018060200180602001848103845287818151815260200191508051906020019060200280838360005b83811015611d70578181015183820152602001611d58565b50505050905001848103835286818151815260200191508051906020019060200280838360005b83811015611daf578181015183820152602001611d97565b50505050905001848103825285818151815260200191508051906020019080838360005b83811015611deb578181015183820152602001611dd3565b50505050905090810190601f168015611e185780820380516001836020036101000a031916815260200191505b5098505050505050505050602060405180830381600087803b158015611e3d57600080fd5b505af1925050508015611e6257506040513d6020811015611e5d57600080fd5b505160015b611ef757611e6e612b7d565b80611e795750611ec0565b60405162461bcd60e51b8152602060048201818152835160248401528351849391928392604401919085019080838360008315611c33578181015183820152602001611c1b565b60405162461bcd60e51b8152600401808060200182810382526034815260200180612c236034913960400191505060405180910390fd5b6001600160e01b0319811663bc197c8160e01b14611f465760405162461bcd60e51b8152600401808060200182810382526028815260200180612c796028913960400191505060405180910390fd5b50505050505050565b6000828152603360205260409020611f679082611970565b156110e857611f74611985565b6001600160a01b0316816001600160a01b0316837f2f8788117e7eff1d82e926ec794901d17c78024a50270940304540a733656f0d60405160405180910390a45050565b6000828152603360205260409020611fd090826128f2565b156110e857611fdd611985565b6001600160a01b0316816001600160a01b0316837ff6391f5c32d9c69d2a47ea670b442974b53935d1edc7fd64eb21e047a839171b60405160405180910390a45050565b6001600160a01b0383166120665760405162461bcd60e51b8152600401808060200182810382526023815260200180612dfd6023913960400191505060405180910390fd5b80518251146120a65760405162461bcd60e51b8152600401808060200182810382526028815260200180612e9c6028913960400191505060405180910390fd5b60006120b0611985565b90506120d08185600086866040518060200160405280600081525061107d565b60005b83518110156121ae576121658382815181106120eb57fe5b6020026020010151604051806060016040528060248152602001612cfb602491396097600088868151811061211c57fe5b602002602001015181526020019081526020016000206000896001600160a01b03166001600160a01b0316815260200190815260200160002054611bdf9092919063ffffffff16565b6097600086848151811061217557fe5b602090810291909101810151825281810192909252604090810160009081206001600160a01b038a1682529092529020556001016120d3565b5060006001600160a01b0316846001600160a01b0316826001600160a01b03167f4a39dc06d4c0dbc64b70af90fd698a233a518aa5d07e595d983b8c0526c8f7fb8686604051808060200180602001838103835285818151815260200191508051906020019060200280838360005b8381101561223557818101518382015260200161221d565b50505050905001838103825284818151815260200191508051906020019060200280838360005b8381101561227457818101518382015260200161225c565b5050505090500194505050505060405180910390a450505050565b6001600160a01b0384166122d45760405162461bcd60e51b8152600401808060200182810382526021815260200180612ec46021913960400191505060405180910390fd5b60006122de611985565b90506122f0816000876115ea886123bc565b60008481526097602090815260408083206001600160a01b038916845290915290205461231d9084611c76565b60008581526097602090815260408083206001600160a01b03808b16808652918452828520959095558151898152928301889052815190948616927fc3d58168c5ae7397731d063d5bbf3d657854427343f4c083240f7aacaa2d0f6292908290030190a4611bd881600087878787612400565b600061134c8383612907565b600061134c836001600160a01b03841661296b565b6000610c2382612983565b6040805160018082528183019092526060918291906020808301908036833701905050905082816000815181106123ef57fe5b602090810291909101015292915050565b612412846001600160a01b031661196a565b1561107d57836001600160a01b031663f23a6e6187878686866040518663ffffffff1660e01b815260040180866001600160a01b03168152602001856001600160a01b0316815260200184815260200183815260200180602001828103825283818151815260200191508051906020019080838360005b838110156124a1578181015183820152602001612489565b50505050905090810190601f1680156124ce5780820380516001836020036101000a031916815260200191505b509650505050505050602060405180830381600087803b1580156124f157600080fd5b505af192505050801561251657506040513d602081101561251157600080fd5b505160015b61252257611e6e612b7d565b6001600160e01b0319811663f23a6e6160e01b14611f465760405162461bcd60e51b8152600401808060200182810382526028815260200180612c796028913960400191505060405180910390fd5b6001600160a01b0383166125b65760405162461bcd60e51b8152600401808060200182810382526023815260200180612dfd6023913960400191505060405180910390fd5b60006125c0611985565b90506125f0818560006125d2876123bc565b6125db876123bc565b6040518060200160405280600081525061107d565b61263782604051806060016040528060248152602001612cfb6024913960008681526097602090815260408083206001600160a01b038b1684529091529020549190611bdf565b60008481526097602090815260408083206001600160a01b03808a16808652918452828520959095558151888152928301879052815193949093908616927fc3d58168c5ae7397731d063d5bbf3d657854427343f4c083240f7aacaa2d0f6292908290030190a450505050565b60006126af3061196a565b15905090565b600054610100900460ff16806126ce57506126ce6126a4565b806126dc575060005460ff16155b6127175760405162461bcd60e51b815260040180806020018281038252602e815260200180612dcf602e913960400191505060405180910390fd5b600054610100900460ff161580156117fd576000805460ff1961ff001990911661010017166001179055801561180f576000805461ff001916905550565b600054610100900460ff168061276e575061276e6126a4565b8061277c575060005460ff16155b6127b75760405162461bcd60e51b815260040180806020018281038252602e815260200180612dcf602e913960400191505060405180910390fd5b600054610100900460ff161580156127e2576000805460ff1961ff0019909116610100171660011790555b6117fd6301ffc9a760e01b612987565b600054610100900460ff168061280b575061280b6126a4565b80612819575060005460ff16155b6128545760405162461bcd60e51b815260040180806020018281038252602e815260200180612dcf602e913960400191505060405180910390fd5b600054610100900460ff1615801561287f576000805460ff1961ff0019909116610100171660011790555b61288882612a0b565b612898636cdb3d1360e11b612987565b6118b86303a24d0760e21b612987565b60006128b4838361296b565b6128ea57508154600181810184556000848152602080822090930184905584548482528286019093526040902091909155610c23565b506000610c23565b600061134c836001600160a01b038416612a1e565b815460009082106129495760405162461bcd60e51b8152600401808060200182810382526022815260200180612c576022913960400191505060405180910390fd5b82600001828154811061295857fe5b9060005260206000200154905092915050565b60009081526001919091016020526040902054151590565b5490565b6001600160e01b031980821614156129e6576040805162461bcd60e51b815260206004820152601c60248201527f4552433136353a20696e76616c696420696e7465726661636520696400000000604482015290519081900360640190fd5b6001600160e01b0319166000908152606560205260409020805460ff19166001179055565b80516110e8906099906020840190612ae4565b60008181526001830160205260408120548015612ada5783546000198083019190810190600090879083908110612a5157fe5b9060005260206000200154905080876000018481548110612a6e57fe5b600091825260208083209091019290925582815260018981019092526040902090840190558654879080612a9e57fe5b60019003818190600052602060002001600090559055866001016000878152602001908152602001600020600090556001945050505050610c23565b6000915050610c23565b828054600181600116156101000203166002900490600052602060002090601f016020900481019282601f10612b2557805160ff1916838001178555612b52565b82800160010185558215612b52579182015b82811115612b52578251825591602001919060010190612b37565b50612b5e929150612b62565b5090565b5b80821115612b5e5760008155600101612b63565b60e01c90565b600060443d1015612b8d57611987565b600481823e6308c379a0612ba18251612b77565b14612bab57611987565b6040513d600319016004823e80513d67ffffffffffffffff8160248401118184111715612bdb5750505050611987565b82840192508251915080821115612bf55750505050611987565b503d83016020828401011115612c0d57505050611987565b601f01601f191681016020016040529150509056fe455243313135353a207472616e7366657220746f206e6f6e2045524331313535526563656976657220696d706c656d656e746572456e756d657261626c655365743a20696e646578206f7574206f6620626f756e6473455243313135353a204552433131353552656365697665722072656a656374656420746f6b656e73416363657373436f6e74726f6c3a2073656e646572206d75737420626520616e2061646d696e20746f206772616e74455243313135353a2062616c616e636520717565727920666f7220746865207a65726f2061646472657373455243313135353a206275726e20616d6f756e7420657863656564732062616c616e6365455243313135353a2063616c6c6572206973206e6f74206f776e6572206e6f7220617070726f766564416363657373436f6e74726f6c3a2073656e646572206d75737420626520616e2061646d696e20746f207265766f6b65455243313135353a207472616e7366657220746f20746865207a65726f2061646472657373455243313135353a207472616e736665722063616c6c6572206973206e6f74206f776e6572206e6f7220617070726f766564496e697469616c697a61626c653a20636f6e747261637420697320616c726561647920696e697469616c697a6564455243313135353a206275726e2066726f6d20746865207a65726f2061646472657373455243313135353a20696e73756666696369656e742062616c616e636520666f72207472616e73666572455243313135353a2073657474696e6720617070726f76616c2073746174757320666f722073656c66455243313135353a206163636f756e747320616e6420696473206c656e677468206d69736d61746368455243313135353a2069647320616e6420616d6f756e7473206c656e677468206d69736d61746368455243313135353a206d696e7420746f20746865207a65726f2061646472657373416363657373436f6e74726f6c3a2063616e206f6e6c792072656e6f756e636520726f6c657320666f722073656c66a26469706673582212208082e80af5715fe3fac7824ad3b116a08ca0bb914f0d3fd373b87d6d3d635c7664736f6c634300060c0033496e697469616c697a61626c653a20636f6e747261637420697320616c726561647920696e697469616c697a65649f2df0fed2c77648de5860a4cc508cd0818c85b8b8a1ab4ceeef8d981c8956a67164765a3c8bd2513bdfa0c90f1bee9606e920fbf2c9071f310263fbd818684ba26469706673582212205db5b67eb94d2a7872f326ff7e2872610b8ae3e296c708d9fc993942d75a4c5c64736f6c634300060c0033",
  "linkReferences": {},
  "deployedLinkReferences": {}
}