{
  "_format": "hh-sol-artifact-1",
  "contractName": "Fp2Operations",
  "sourceName": "contracts/schain/bls/FieldOperations.sol",
  "abi": [
    {
      "inputs": [],
      "name": "P",
      "outputs": [
        {
          "internalType": "uint256",
          "name": "",
          "type": "uint256"
        }
      ],
      "stateMutability": "view",
      "type": "function"
    }
  ],
  "bytecode": "0x60aa610024600b82828239805160001a607314601757fe5b30600052607381538281f3fe730000000000000000000000000000000000000000301460806040526004361060335760003560e01c80638b8fbd92146038575b600080fd5b603e6050565b60408051918252519081900360200190f35b7f30644e72e131a029b85045b68181585d97816a916871ca8d3c208c16d87cfd478156fea2646970667358221220017601ef4861b6d977688f31b3dee1a409968b8a8c163e309ed027e13b091f2b64736f6c634300060c0033",
  "linkReferences": {},
  "deployedLinkReferences": {}
}